{
  "_format": "hh-sol-artifact-1",
  "contractName": "Portal",
  "sourceName": "contracts/Portal.sol",
  "abi": [
    {
      "anonymous": false,
      "inputs": [
        {
          "indexed": true,
          "internalType": "bytes32",
          "name": "_id",
          "type": "bytes32"
        },
        {
          "indexed": true,
          "internalType": "address",
          "name": "_to",
          "type": "address"
        },
        {
          "indexed": false,
          "internalType": "uint256",
          "name": "_amount",
          "type": "uint256"
        },
        {
          "indexed": false,
          "internalType": "address",
          "name": "_token",
          "type": "address"
        }
      ],
      "name": "BurnCompleted",
      "type": "event"
    },
    {
      "anonymous": false,
      "inputs": [
        {
          "indexed": false,
          "internalType": "string",
          "name": "requestType",
          "type": "string"
        },
        {
          "indexed": false,
          "internalType": "address",
          "name": "bridge",
          "type": "address"
        },
        {
          "indexed": false,
          "internalType": "bytes32",
          "name": "requestId",
          "type": "bytes32"
        },
        {
          "indexed": false,
          "internalType": "bytes",
          "name": "selector",
          "type": "bytes"
        },
        {
          "indexed": false,
          "internalType": "address",
          "name": "receiveSide",
          "type": "address"
        },
        {
          "indexed": false,
          "internalType": "address",
          "name": "oppositeBridge",
          "type": "address"
        },
        {
          "indexed": false,
          "internalType": "uint256",
          "name": "chainid",
          "type": "uint256"
        }
      ],
      "name": "OracleRequest",
      "type": "event"
    },
    {
      "anonymous": false,
      "inputs": [
        {
          "indexed": true,
          "internalType": "address",
          "name": "previousOwner",
          "type": "address"
        },
        {
          "indexed": true,
          "internalType": "address",
          "name": "newOwner",
          "type": "address"
        }
      ],
      "name": "OwnershipTransferred",
      "type": "event"
    },
    {
      "anonymous": false,
      "inputs": [
        {
          "indexed": true,
          "internalType": "bytes32",
          "name": "_id",
          "type": "bytes32"
        },
        {
          "indexed": true,
          "internalType": "address",
          "name": "_to",
          "type": "address"
        }
      ],
      "name": "RevertBurnRequest",
      "type": "event"
    },
    {
      "anonymous": false,
      "inputs": [
        {
          "indexed": true,
          "internalType": "bytes32",
          "name": "_id",
          "type": "bytes32"
        },
        {
          "indexed": true,
          "internalType": "address",
          "name": "_to",
          "type": "address"
        },
        {
          "indexed": false,
          "internalType": "uint256",
          "name": "_amount",
          "type": "uint256"
        },
        {
          "indexed": false,
          "internalType": "address",
          "name": "_token",
          "type": "address"
        }
      ],
      "name": "RevertSynthesizeCompleted",
      "type": "event"
    },
    {
      "anonymous": false,
      "inputs": [
        {
          "indexed": true,
          "internalType": "bytes32",
          "name": "_id",
          "type": "bytes32"
        },
        {
          "indexed": true,
          "internalType": "address",
          "name": "_from",
          "type": "address"
        },
        {
          "indexed": true,
          "internalType": "address",
          "name": "_to",
          "type": "address"
        },
        {
          "indexed": false,
          "internalType": "uint256",
          "name": "_amount",
          "type": "uint256"
        },
        {
          "indexed": false,
          "internalType": "address",
          "name": "_token",
          "type": "address"
        }
      ],
      "name": "SynthesizeRequest",
      "type": "event"
    },
    {
      "inputs": [
        {
          "internalType": "address",
          "name": "",
          "type": "address"
        }
      ],
      "name": "balanceOf",
      "outputs": [
        {
          "internalType": "uint256",
          "name": "",
          "type": "uint256"
        }
      ],
      "stateMutability": "view",
      "type": "function"
    },
    {
      "inputs": [],
      "name": "bridge",
      "outputs": [
        {
          "internalType": "address",
          "name": "",
          "type": "address"
        }
      ],
      "stateMutability": "view",
      "type": "function"
    },
    {
      "inputs": [
        {
          "internalType": "address",
          "name": "_bridge",
          "type": "address"
        }
      ],
      "name": "changeBridge",
      "outputs": [],
      "stateMutability": "nonpayable",
      "type": "function"
    },
    {
      "inputs": [
        {
          "internalType": "bytes32",
          "name": "_txID",
          "type": "bytes32"
        },
        {
          "internalType": "address",
          "name": "_receiveSide",
          "type": "address"
        },
        {
          "internalType": "address",
          "name": "_oppositeBridge",
          "type": "address"
        },
        {
          "internalType": "uint256",
          "name": "_chainId",
          "type": "uint256"
        }
      ],
      "name": "emergencyUnburnRequest",
      "outputs": [],
      "stateMutability": "nonpayable",
      "type": "function"
    },
    {
      "inputs": [
        {
          "internalType": "bytes32",
          "name": "_txID",
          "type": "bytes32"
        }
      ],
      "name": "emergencyUnsynthesize",
      "outputs": [],
      "stateMutability": "nonpayable",
      "type": "function"
    },
    {
      "inputs": [],
      "name": "getChainId",
      "outputs": [
        {
          "internalType": "uint256",
          "name": "",
          "type": "uint256"
        }
      ],
      "stateMutability": "view",
      "type": "function"
    },
    {
      "inputs": [
        {
          "internalType": "address",
          "name": "_bridge",
          "type": "address"
        },
        {
          "internalType": "address",
          "name": "_trustedForwarder",
          "type": "address"
        }
      ],
      "name": "initialize",
      "outputs": [],
      "stateMutability": "nonpayable",
      "type": "function"
    },
    {
      "inputs": [
        {
          "internalType": "address",
          "name": "forwarder",
          "type": "address"
        }
      ],
      "name": "isTrustedForwarder",
      "outputs": [
        {
          "internalType": "bool",
          "name": "",
          "type": "bool"
        }
      ],
      "stateMutability": "view",
      "type": "function"
    },
    {
      "inputs": [],
      "name": "owner",
      "outputs": [
        {
          "internalType": "address",
          "name": "",
          "type": "address"
        }
      ],
      "stateMutability": "view",
      "type": "function"
    },
    {
      "inputs": [],
      "name": "pause",
      "outputs": [],
      "stateMutability": "nonpayable",
      "type": "function"
    },
    {
      "inputs": [],
      "name": "paused",
      "outputs": [
        {
          "internalType": "bool",
          "name": "",
          "type": "bool"
        }
      ],
      "stateMutability": "view",
      "type": "function"
    },
    {
      "inputs": [],
      "name": "renounceOwnership",
      "outputs": [],
      "stateMutability": "nonpayable",
      "type": "function"
    },
    {
      "inputs": [
        {
          "internalType": "bytes32",
          "name": "",
          "type": "bytes32"
        }
      ],
      "name": "requests",
      "outputs": [
        {
          "internalType": "address",
          "name": "recipient",
          "type": "address"
        },
        {
          "internalType": "address",
          "name": "chain2address",
          "type": "address"
        },
        {
          "internalType": "uint256",
          "name": "amount",
          "type": "uint256"
        },
        {
          "internalType": "address",
          "name": "rtoken",
          "type": "address"
        },
        {
          "internalType": "enum Portal.RequestState",
          "name": "state",
          "type": "uint8"
        }
      ],
      "stateMutability": "view",
      "type": "function"
    },
    {
      "inputs": [
        {
          "internalType": "address",
          "name": "_token",
          "type": "address"
        },
        {
          "internalType": "uint256",
          "name": "_amount",
          "type": "uint256"
        },
        {
          "internalType": "address",
          "name": "_chain2address",
          "type": "address"
        },
        {
          "internalType": "address",
          "name": "_receiveSide",
          "type": "address"
        },
        {
          "internalType": "address",
          "name": "_oppositeBridge",
          "type": "address"
        },
        {
          "internalType": "uint256",
          "name": "_chainID",
          "type": "uint256"
        }
      ],
      "name": "synthesize",
      "outputs": [
        {
          "internalType": "bytes32",
          "name": "txID",
          "type": "bytes32"
        }
      ],
      "stateMutability": "nonpayable",
      "type": "function"
    },
    {
      "inputs": [
        {
          "internalType": "bytes",
          "name": "_approvalData",
          "type": "bytes"
        },
        {
          "internalType": "address",
          "name": "_token",
          "type": "address"
        },
        {
          "internalType": "uint256",
          "name": "_amount",
          "type": "uint256"
        },
        {
          "internalType": "address",
          "name": "_chain2address",
          "type": "address"
        },
        {
          "internalType": "address",
          "name": "_receiveSide",
          "type": "address"
        },
        {
          "internalType": "address",
          "name": "_oppositeBridge",
          "type": "address"
        },
        {
          "internalType": "uint256",
          "name": "_chainID",
          "type": "uint256"
        }
      ],
      "name": "synthesizeWithPermit",
      "outputs": [
        {
          "internalType": "bytes32",
          "name": "txID",
          "type": "bytes32"
        }
      ],
      "stateMutability": "nonpayable",
      "type": "function"
    },
    {
      "inputs": [
        {
          "internalType": "address",
          "name": "newOwner",
          "type": "address"
        }
      ],
      "name": "transferOwnership",
      "outputs": [],
      "stateMutability": "nonpayable",
      "type": "function"
    },
    {
      "inputs": [],
      "name": "unpause",
      "outputs": [],
      "stateMutability": "nonpayable",
      "type": "function"
    },
    {
      "inputs": [
        {
          "internalType": "bytes32",
          "name": "_txID",
          "type": "bytes32"
        },
        {
          "internalType": "address",
          "name": "_token",
          "type": "address"
        },
        {
          "internalType": "uint256",
          "name": "_amount",
          "type": "uint256"
        },
        {
          "internalType": "address",
          "name": "_to",
          "type": "address"
        }
      ],
      "name": "unsynthesize",
      "outputs": [],
      "stateMutability": "nonpayable",
      "type": "function"
    },
    {
      "inputs": [
        {
          "internalType": "bytes32",
          "name": "",
          "type": "bytes32"
        }
      ],
      "name": "unsynthesizeStates",
      "outputs": [
        {
          "internalType": "enum Portal.UnsynthesizeState",
          "name": "",
          "type": "uint8"
        }
      ],
      "stateMutability": "view",
      "type": "function"
    },
    {
      "inputs": [],
      "name": "versionRecipient",
      "outputs": [
        {
          "internalType": "string",
          "name": "",
          "type": "string"
        }
      ],
      "stateMutability": "view",
      "type": "function"
    }
  ],
  "bytecode": "0x608060405234801561001057600080fd5b506133c2806100206000396000f3fe608060405234801561001057600080fd5b506004361061012c5760003560e01c80637ac3a7ad116100ad578063a6037a2911610071578063a6037a291461030f578063e78cea921461032b578063f2fde38b14610349578063fab9289414610365578063fc895869146103955761012c565b80637ac3a7ad146102675780638456cb59146102835780638da5cb5b1461028d5780639a1962fb146102ab5780639d866985146102db5761012c565b8063572b6c05116100f4578063572b6c05146101af5780635bb8809f146101df5780635c975abb1461020f57806370a082311461022d578063715018a61461025d5761012c565b806308774410146101315780633408e4701461014d5780633f4ba83a1461016b578063485cc95514610175578063486ff0cd14610191575b600080fd5b61014b6004803603810190610146919061249c565b6103b1565b005b610155610471565b6040516101629190613010565b60405180910390f35b610173610479565b005b61018f600480360381019061018a91906124c5565b610512565b005b610199610637565b6040516101a69190612e53565b60405180910390f35b6101c960048036038101906101c4919061249c565b610674565b6040516101d69190612d63565b60405180910390f35b6101f960048036038101906101f49190612501565b6106ce565b6040516102069190612d7e565b60405180910390f35b610217610b1f565b6040516102249190612d63565b60405180910390f35b6102476004803603810190610242919061249c565b610b32565b6040516102549190613010565b60405180910390f35b610265610b4a565b005b610281600480360381019061027c9190612605565b610c87565b005b61028b610f8c565b005b610295611025565b6040516102a29190612c95565b60405180910390f35b6102c560048036038101906102c091906126cb565b61104f565b6040516102d29190612d7e565b60405180910390f35b6102f560048036038101906102f091906125b3565b611511565b604051610306959493929190612ce7565b60405180910390f35b61032960048036038101906103249190612668565b6115b4565b005b61033361184d565b6040516103409190612c95565b60405180910390f35b610363600480360381019061035e919061249c565b611873565b005b61037f600480360381019061037a91906125b3565b611a1f565b60405161038c9190612e38565b60405180910390f35b6103af60048036038101906103aa91906125b3565b611a3f565b005b6103b9611cd9565b73ffffffffffffffffffffffffffffffffffffffff166103d7611025565b73ffffffffffffffffffffffffffffffffffffffff161461042d576040517f08c379a000000000000000000000000000000000000000000000000000000000815260040161042490612f55565b60405180910390fd5b80606760006101000a81548173ffffffffffffffffffffffffffffffffffffffff021916908373ffffffffffffffffffffffffffffffffffffffff16021790555050565b600046905090565b610481611cd9565b73ffffffffffffffffffffffffffffffffffffffff1661049f611025565b73ffffffffffffffffffffffffffffffffffffffff16146104f5576040517f08c379a00000000000000000000000000000000000000000000000000000000081526004016104ec90612f55565b60405180910390fd5b6000606960006101000a81548160ff021916908315150217905550565b600060019054906101000a900460ff1680610538575060008054906101000a900460ff16155b610577576040517f08c379a000000000000000000000000000000000000000000000000000000000815260040161056e90612ed5565b60405180910390fd5b60008060019054906101000a900460ff1615905080156105c7576001600060016101000a81548160ff02191690831515021790555060016000806101000a81548160ff0219169083151502179055505b6105d082611d0b565b82606760006101000a81548173ffffffffffffffffffffffffffffffffffffffff021916908373ffffffffffffffffffffffffffffffffffffffff16021790555080156106325760008060016101000a81548160ff0219169083151502179055505b505050565b60606040518060400160405280600581526020017f322e302e31000000000000000000000000000000000000000000000000000000815250905090565b6000606560009054906101000a900473ffffffffffffffffffffffffffffffffffffffff1673ffffffffffffffffffffffffffffffffffffffff168273ffffffffffffffffffffffffffffffffffffffff16149050919050565b6000606960009054906101000a900460ff16156106ea57600080fd5b6106fd876106f6611cd9565b3089611e2e565b85606660008973ffffffffffffffffffffffffffffffffffffffff1673ffffffffffffffffffffffffffffffffffffffff168152602001908152602001600020546107489190613097565b606660008973ffffffffffffffffffffffffffffffffffffffff1673ffffffffffffffffffffffffffffffffffffffff16815260200190815260200160002081905550306068546040516020016107a0929190612c69565b60405160208183030381529060405280519060200120905060006040518060600160405280603b8152602001613352603b9139805190602001208289468a8a6040516024016107f3959493929190612d99565b604051602081830303815290604052907bffffffffffffffffffffffffffffffffffffffffffffffffffffffff19166020820180517bffffffffffffffffffffffffffffffffffffffffffffffffffffffff83818316178352505050509050606760009054906101000a900473ffffffffffffffffffffffffffffffffffffffff1673ffffffffffffffffffffffffffffffffffffffff16636cebc9c2828787876040518563ffffffff1660e01b81526004016108b39493929190612dec565b602060405180830381600087803b1580156108cd57600080fd5b505af11580156108e1573d6000803e3d6000fd5b505050506040513d601f19601f8201168201806040525081019061090591906125dc565b506000606a60008481526020019081526020016000209050610925611cd9565b8160000160006101000a81548173ffffffffffffffffffffffffffffffffffffffff021916908373ffffffffffffffffffffffffffffffffffffffff160217905550868160010160006101000a81548173ffffffffffffffffffffffffffffffffffffffff021916908373ffffffffffffffffffffffffffffffffffffffff160217905550888160030160006101000a81548173ffffffffffffffffffffffffffffffffffffffff021916908373ffffffffffffffffffffffffffffffffffffffff16021790555087816002018190555060018160030160146101000a81548160ff02191690836002811115610a44577f4e487b7100000000000000000000000000000000000000000000000000000000600052602160045260246000fd5b0217905550600160686000828254610a5c9190613097565b925050819055508673ffffffffffffffffffffffffffffffffffffffff16610a82611cd9565b73ffffffffffffffffffffffffffffffffffffffff16847f79856ea8bc3d8f5d0a803c32f56f54884a196b09482b11134b6f2a6f6276a0b98b8d604051610aca92919061302b565b60405180910390a47f5c3fb349179e8d8347e69078d6b9912b9724461c39bf776a56925267afc55aff308484898989604051610b0b96959493929190612f95565b60405180910390a150509695505050505050565b606960009054906101000a900460ff1681565b60666020528060005260406000206000915090505481565b610b52611cd9565b73ffffffffffffffffffffffffffffffffffffffff16610b70611025565b73ffffffffffffffffffffffffffffffffffffffff1614610bc6576040517f08c379a0000000000000000000000000000000000000000000000000000000008152600401610bbd90612f55565b60405180910390fd5b600073ffffffffffffffffffffffffffffffffffffffff16603360009054906101000a900473ffffffffffffffffffffffffffffffffffffffff1673ffffffffffffffffffffffffffffffffffffffff167f8be0079c531659141344cd1fd0a4f28419497f9722a3daafe3b4186f6b6457e060405160405180910390a36000603360006101000a81548173ffffffffffffffffffffffffffffffffffffffff021916908373ffffffffffffffffffffffffffffffffffffffff160217905550565b606960009054906101000a900460ff1615610ca157600080fd5b60016002811115610cdb577f4e487b7100000000000000000000000000000000000000000000000000000000600052602160045260246000fd5b606b600086815260200190815260200160002060009054906101000a900460ff166002811115610d34577f4e487b7100000000000000000000000000000000000000000000000000000000600052602160045260246000fd5b1415610d75576040517f08c379a0000000000000000000000000000000000000000000000000000000008152600401610d6c90612f35565b60405180910390fd5b6002606b600086815260200190815260200160002060006101000a81548160ff02191690836002811115610dd2577f4e487b7100000000000000000000000000000000000000000000000000000000600052602160045260246000fd5b021790555060006040518060400160405280601881526020017f656d657267656e6379556e6275726e28627974657333322900000000000000008152508051906020012085604051602401610e279190612d7e565b604051602081830303815290604052907bffffffffffffffffffffffffffffffffffffffffffffffffffffffff19166020820180517bffffffffffffffffffffffffffffffffffffffffffffffffffffffff83818316178352505050509050606760009054906101000a900473ffffffffffffffffffffffffffffffffffffffff1673ffffffffffffffffffffffffffffffffffffffff16636cebc9c2828686866040518563ffffffff1660e01b8152600401610ee79493929190612dec565b602060405180830381600087803b158015610f0157600080fd5b505af1158015610f15573d6000803e3d6000fd5b505050506040513d601f19601f82011682018060405250810190610f3991906125dc565b50610f42611cd9565b73ffffffffffffffffffffffffffffffffffffffff16857f40590cc12db0488520ce425059f83f8caed91bdf98de5ff829dc57c63843161b60405160405180910390a35050505050565b610f94611cd9565b73ffffffffffffffffffffffffffffffffffffffff16610fb2611025565b73ffffffffffffffffffffffffffffffffffffffff1614611008576040517f08c379a0000000000000000000000000000000000000000000000000000000008152600401610fff90612f55565b60405180910390fd5b6001606960006101000a81548160ff021916908315150217905550565b6000603360009054906101000a900473ffffffffffffffffffffffffffffffffffffffff16905090565b6000606960009054906101000a900460ff161561106b57600080fd5b60008773ffffffffffffffffffffffffffffffffffffffff168a8a604051611094929190612c39565b6000604051808303816000865af19150503d80600081146110d1576040519150601f19603f3d011682016040523d82523d6000602084013e6110d6565b606091505b505090508061111a576040517f08c379a000000000000000000000000000000000000000000000000000000000815260040161111190612eb5565b60405180910390fd5b61112d88611126611cd9565b308a611e2e565b86606660008a73ffffffffffffffffffffffffffffffffffffffff1673ffffffffffffffffffffffffffffffffffffffff168152602001908152602001600020546111789190613097565b606660008a73ffffffffffffffffffffffffffffffffffffffff1673ffffffffffffffffffffffffffffffffffffffff16815260200190815260200160002081905550306068546040516020016111d0929190612c69565b60405160208183030381529060405280519060200120915060006040518060600160405280603b8152602001613352603b913980519060200120838a468b8b604051602401611223959493929190612d99565b604051602081830303815290604052907bffffffffffffffffffffffffffffffffffffffffffffffffffffffff19166020820180517bffffffffffffffffffffffffffffffffffffffffffffffffffffffff83818316178352505050509050606760009054906101000a900473ffffffffffffffffffffffffffffffffffffffff1673ffffffffffffffffffffffffffffffffffffffff16636cebc9c2828888886040518563ffffffff1660e01b81526004016112e39493929190612dec565b602060405180830381600087803b1580156112fd57600080fd5b505af1158015611311573d6000803e3d6000fd5b505050506040513d601f19601f8201168201806040525081019061133591906125dc565b506000606a60008581526020019081526020016000209050611355611cd9565b8160000160006101000a81548173ffffffffffffffffffffffffffffffffffffffff021916908373ffffffffffffffffffffffffffffffffffffffff160217905550878160010160006101000a81548173ffffffffffffffffffffffffffffffffffffffff021916908373ffffffffffffffffffffffffffffffffffffffff160217905550898160030160006101000a81548173ffffffffffffffffffffffffffffffffffffffff021916908373ffffffffffffffffffffffffffffffffffffffff16021790555088816002018190555060018160030160146101000a81548160ff02191690836002811115611474577f4e487b7100000000000000000000000000000000000000000000000000000000600052602160045260246000fd5b021790555060016068600082825461148c9190613097565b925050819055508773ffffffffffffffffffffffffffffffffffffffff166114b2611cd9565b73ffffffffffffffffffffffffffffffffffffffff16857f79856ea8bc3d8f5d0a803c32f56f54884a196b09482b11134b6f2a6f6276a0b98c8e6040516114fa92919061302b565b60405180910390a450505098975050505050505050565b606a6020528060005260406000206000915090508060000160009054906101000a900473ffffffffffffffffffffffffffffffffffffffff16908060010160009054906101000a900473ffffffffffffffffffffffffffffffffffffffff16908060020154908060030160009054906101000a900473ffffffffffffffffffffffffffffffffffffffff16908060030160149054906101000a900460ff16905085565b3373ffffffffffffffffffffffffffffffffffffffff16606760009054906101000a900473ffffffffffffffffffffffffffffffffffffffff1673ffffffffffffffffffffffffffffffffffffffff161461160e57600080fd5b606960009054906101000a900460ff161561162857600080fd5b60006002811115611662577f4e487b7100000000000000000000000000000000000000000000000000000000600052602160045260246000fd5b606b600086815260200190815260200160002060009054906101000a900460ff1660028111156116bb577f4e487b7100000000000000000000000000000000000000000000000000000000600052602160045260246000fd5b146116fb576040517f08c379a00000000000000000000000000000000000000000000000000000000081526004016116f290612ef5565b60405180910390fd5b611706838284611f67565b81606660008573ffffffffffffffffffffffffffffffffffffffff1673ffffffffffffffffffffffffffffffffffffffff1681526020019081526020016000205461175191906130ed565b606660008573ffffffffffffffffffffffffffffffffffffffff1673ffffffffffffffffffffffffffffffffffffffff168152602001908152602001600020819055506001606b600086815260200190815260200160002060006101000a81548160ff021916908360028111156117f1577f4e487b7100000000000000000000000000000000000000000000000000000000600052602160045260246000fd5b02179055508073ffffffffffffffffffffffffffffffffffffffff16847f7d38b66fe45f4596a8e0f6d416747ea22ad1ef15891e9d7c8f848a044be974e0848660405161183f92919061302b565b60405180910390a350505050565b606760009054906101000a900473ffffffffffffffffffffffffffffffffffffffff1681565b61187b611cd9565b73ffffffffffffffffffffffffffffffffffffffff16611899611025565b73ffffffffffffffffffffffffffffffffffffffff16146118ef576040517f08c379a00000000000000000000000000000000000000000000000000000000081526004016118e690612f55565b60405180910390fd5b600073ffffffffffffffffffffffffffffffffffffffff168173ffffffffffffffffffffffffffffffffffffffff16141561195f576040517f08c379a000000000000000000000000000000000000000000000000000000000815260040161195690612e95565b60405180910390fd5b8073ffffffffffffffffffffffffffffffffffffffff16603360009054906101000a900473ffffffffffffffffffffffffffffffffffffffff1673ffffffffffffffffffffffffffffffffffffffff167f8be0079c531659141344cd1fd0a4f28419497f9722a3daafe3b4186f6b6457e060405160405180910390a380603360006101000a81548173ffffffffffffffffffffffffffffffffffffffff021916908373ffffffffffffffffffffffffffffffffffffffff16021790555050565b606b6020528060005260406000206000915054906101000a900460ff1681565b3373ffffffffffffffffffffffffffffffffffffffff16606760009054906101000a900473ffffffffffffffffffffffffffffffffffffffff1673ffffffffffffffffffffffffffffffffffffffff1614611a9957600080fd5b606960009054906101000a900460ff1615611ab357600080fd5b6000606a6000838152602001908152602001600020905060016002811115611b04577f4e487b7100000000000000000000000000000000000000000000000000000000600052602160045260246000fd5b8160030160149054906101000a900460ff166002811115611b4e577f4e487b7100000000000000000000000000000000000000000000000000000000600052602160045260246000fd5b14611b8e576040517f08c379a0000000000000000000000000000000000000000000000000000000008152600401611b8590612f15565b60405180910390fd5b60028160030160146101000a81548160ff02191690836002811115611bdc577f4e487b7100000000000000000000000000000000000000000000000000000000600052602160045260246000fd5b0217905550611c388160030160009054906101000a900473ffffffffffffffffffffffffffffffffffffffff168260000160009054906101000a900473ffffffffffffffffffffffffffffffffffffffff168360020154611f67565b8060000160009054906101000a900473ffffffffffffffffffffffffffffffffffffffff1673ffffffffffffffffffffffffffffffffffffffff16827f944f1d3ef1c50472b370611627295b06b64eca841d2de116bb7634a08a097ca983600201548460030160009054906101000a900473ffffffffffffffffffffffffffffffffffffffff16604051611ccd92919061302b565b60405180910390a35050565b6000611ce433610674565b15611cf857601436033560601c9050611d07565b611d0061209d565b9050611d08565b5b90565b600060019054906101000a900460ff1680611d31575060008054906101000a900460ff16155b611d70576040517f08c379a0000000000000000000000000000000000000000000000000000000008152600401611d6790612ed5565b60405180910390fd5b60008060019054906101000a900460ff161590508015611dc0576001600060016101000a81548160ff02191690831515021790555060016000806101000a81548160ff0219169083151502179055505b611dc86120a5565b81606560006101000a81548173ffffffffffffffffffffffffffffffffffffffff021916908373ffffffffffffffffffffffffffffffffffffffff1602179055508015611e2a5760008060016101000a81548160ff0219169083151502179055505b5050565b6000808573ffffffffffffffffffffffffffffffffffffffff166323b872dd868686604051602401611e6293929190612cb0565b6040516020818303038152906040529060e01b6020820180517bffffffffffffffffffffffffffffffffffffffffffffffffffffffff8381831617835250505050604051611eb09190612c52565b6000604051808303816000865af19150503d8060008114611eed576040519150601f19603f3d011682016040523d82523d6000602084013e611ef2565b606091505b5091509150818015611f205750600081511480611f1f575080806020019051810190611f1e919061258a565b5b5b611f5f576040517f08c379a0000000000000000000000000000000000000000000000000000000008152600401611f5690612f75565b60405180910390fd5b505050505050565b6000808473ffffffffffffffffffffffffffffffffffffffff1663a9059cbb8585604051602401611f99929190612d3a565b6040516020818303038152906040529060e01b6020820180517bffffffffffffffffffffffffffffffffffffffffffffffffffffffff8381831617835250505050604051611fe79190612c52565b6000604051808303816000865af19150503d8060008114612024576040519150601f19603f3d011682016040523d82523d6000602084013e612029565b606091505b50915091508180156120575750600081511480612056575080806020019051810190612055919061258a565b5b5b612096576040517f08c379a000000000000000000000000000000000000000000000000000000000815260040161208d90612e75565b60405180910390fd5b5050505050565b600033905090565b600060019054906101000a900460ff16806120cb575060008054906101000a900460ff16155b61210a576040517f08c379a000000000000000000000000000000000000000000000000000000000815260040161210190612ed5565b60405180910390fd5b60008060019054906101000a900460ff16159050801561215a576001600060016101000a81548160ff02191690831515021790555060016000806101000a81548160ff0219169083151502179055505b61216261218e565b61216a612267565b801561218b5760008060016101000a81548160ff0219169083151502179055505b50565b600060019054906101000a900460ff16806121b4575060008054906101000a900460ff16155b6121f3576040517f08c379a00000000000000000000000000000000000000000000000000000000081526004016121ea90612ed5565b60405180910390fd5b60008060019054906101000a900460ff161590508015612243576001600060016101000a81548160ff02191690831515021790555060016000806101000a81548160ff0219169083151502179055505b80156122645760008060016101000a81548160ff0219169083151502179055505b50565b600060019054906101000a900460ff168061228d575060008054906101000a900460ff16155b6122cc576040517f08c379a00000000000000000000000000000000000000000000000000000000081526004016122c390612ed5565b60405180910390fd5b60008060019054906101000a900460ff16159050801561231c576001600060016101000a81548160ff02191690831515021790555060016000806101000a81548160ff0219169083151502179055505b6000612326611cd9565b905080603360006101000a81548173ffffffffffffffffffffffffffffffffffffffff021916908373ffffffffffffffffffffffffffffffffffffffff1602179055508073ffffffffffffffffffffffffffffffffffffffff16600073ffffffffffffffffffffffffffffffffffffffff167f8be0079c531659141344cd1fd0a4f28419497f9722a3daafe3b4186f6b6457e060405160405180910390a35080156123e65760008060016101000a81548160ff0219169083151502179055505b50565b6000813590506123f8816132f5565b92915050565b60008151905061240d8161330c565b92915050565b60008135905061242281613323565b92915050565b60008151905061243781613323565b92915050565b60008083601f84011261244f57600080fd5b8235905067ffffffffffffffff81111561246857600080fd5b60208301915083600182028301111561248057600080fd5b9250929050565b6000813590506124968161333a565b92915050565b6000602082840312156124ae57600080fd5b60006124bc848285016123e9565b91505092915050565b600080604083850312156124d857600080fd5b60006124e6858286016123e9565b92505060206124f7858286016123e9565b9150509250929050565b60008060008060008060c0878903121561251a57600080fd5b600061252889828a016123e9565b965050602061253989828a01612487565b955050604061254a89828a016123e9565b945050606061255b89828a016123e9565b935050608061256c89828a016123e9565b92505060a061257d89828a01612487565b9150509295509295509295565b60006020828403121561259c57600080fd5b60006125aa848285016123fe565b91505092915050565b6000602082840312156125c557600080fd5b60006125d384828501612413565b91505092915050565b6000602082840312156125ee57600080fd5b60006125fc84828501612428565b91505092915050565b6000806000806080858703121561261b57600080fd5b600061262987828801612413565b945050602061263a878288016123e9565b935050604061264b878288016123e9565b925050606061265c87828801612487565b91505092959194509250565b6000806000806080858703121561267e57600080fd5b600061268c87828801612413565b945050602061269d878288016123e9565b93505060406126ae87828801612487565b92505060606126bf878288016123e9565b91505092959194509250565b60008060008060008060008060e0898b0312156126e757600080fd5b600089013567ffffffffffffffff81111561270157600080fd5b61270d8b828c0161243d565b985098505060206127208b828c016123e9565b96505060406127318b828c01612487565b95505060606127428b828c016123e9565b94505060806127538b828c016123e9565b93505060a06127648b828c016123e9565b92505060c06127758b828c01612487565b9150509295985092959890939650565b61278e81613121565b82525050565b61279d81613133565b82525050565b6127ac8161313f565b82525050565b60006127be838561307b565b93506127cb8385846131e1565b82840190509392505050565b60006127e282613054565b6127ec818561306a565b93506127fc8185602086016131f0565b612805816132af565b840191505092915050565b600061281b82613054565b612825818561307b565b93506128358185602086016131f0565b80840191505092915050565b61285261284d82613199565b613223565b82525050565b612861816131bd565b82525050565b612870816131cf565b82525050565b60006128818261305f565b61288b8185613086565b935061289b8185602086016131f0565b6128a4816132af565b840191505092915050565b60006128bc601f83613086565b91507f5472616e7366657248656c7065723a205452414e534645525f4641494c4544006000830152602082019050919050565b60006128fc602683613086565b91507f4f776e61626c653a206e6577206f776e657220697320746865207a65726f206160008301527f64647265737300000000000000000000000000000000000000000000000000006020830152604082019050919050565b6000612962601383613086565b91507f417070726f76652063616c6c206661696c6564000000000000000000000000006000830152602082019050919050565b60006129a2602e83613086565b91507f496e697469616c697a61626c653a20636f6e747261637420697320616c72656160008301527f647920696e697469616c697a65640000000000000000000000000000000000006020830152604082019050919050565b6000612a08602783613086565b91507f506f7274616c3a2073796e746174696320746f6b656e7320656d657267656e6360008301527f79556e6275726e000000000000000000000000000000000000000000000000006020830152604082019050919050565b6000612a6e602a83613086565b91507f506f7274616c3a7374617465206e6f74206f70656e206f7220747820646f657360008301527f206e6f74206578697374000000000000000000000000000000000000000000006020830152604082019050919050565b6000612ad4602683613086565b91507f506f7274616c3a205265616c20746f6b656e7320616c7265616479207472616e60008301527f73666572656400000000000000000000000000000000000000000000000000006020830152604082019050919050565b6000612b3a602083613086565b91507f4f776e61626c653a2063616c6c6572206973206e6f7420746865206f776e65726000830152602082019050919050565b6000612b7a602483613086565b91507f5472616e7366657248656c7065723a205452414e534645525f46524f4d5f464160008301527f494c4544000000000000000000000000000000000000000000000000000000006020830152604082019050919050565b6000612be0600a83613086565b91507f73657452657175657374000000000000000000000000000000000000000000006000830152602082019050919050565b612c1c8161318f565b82525050565b612c33612c2e8261318f565b613247565b82525050565b6000612c468284866127b2565b91508190509392505050565b6000612c5e8284612810565b915081905092915050565b6000612c758285612841565b601482019150612c858284612c22565b6020820191508190509392505050565b6000602082019050612caa6000830184612785565b92915050565b6000606082019050612cc56000830186612785565b612cd26020830185612785565b612cdf6040830184612c13565b949350505050565b600060a082019050612cfc6000830188612785565b612d096020830187612785565b612d166040830186612c13565b612d236060830185612785565b612d306080830184612858565b9695505050505050565b6000604082019050612d4f6000830185612785565b612d5c6020830184612c13565b9392505050565b6000602082019050612d786000830184612794565b92915050565b6000602082019050612d9360008301846127a3565b92915050565b600060a082019050612dae60008301886127a3565b612dbb6020830187612785565b612dc86040830186612c13565b612dd56060830185612c13565b612de26080830184612785565b9695505050505050565b60006080820190508181036000830152612e0681876127d7565b9050612e156020830186612785565b612e226040830185612785565b612e2f6060830184612c13565b95945050505050565b6000602082019050612e4d6000830184612867565b92915050565b60006020820190508181036000830152612e6d8184612876565b905092915050565b60006020820190508181036000830152612e8e816128af565b9050919050565b60006020820190508181036000830152612eae816128ef565b9050919050565b60006020820190508181036000830152612ece81612955565b9050919050565b60006020820190508181036000830152612eee81612995565b9050919050565b60006020820190508181036000830152612f0e816129fb565b9050919050565b60006020820190508181036000830152612f2e81612a61565b9050919050565b60006020820190508181036000830152612f4e81612ac7565b9050919050565b60006020820190508181036000830152612f6e81612b2d565b9050919050565b60006020820190508181036000830152612f8e81612b6d565b9050919050565b600060e0820190508181036000830152612fae81612bd3565b9050612fbd6020830189612785565b612fca60408301886127a3565b8181036060830152612fdc81876127d7565b9050612feb6080830186612785565b612ff860a0830185612785565b61300560c0830184612c13565b979650505050505050565b60006020820190506130256000830184612c13565b92915050565b60006040820190506130406000830185612c13565b61304d6020830184612785565b9392505050565b600081519050919050565b600081519050919050565b600082825260208201905092915050565b600081905092915050565b600082825260208201905092915050565b60006130a28261318f565b91506130ad8361318f565b9250827fffffffffffffffffffffffffffffffffffffffffffffffffffffffffffffffff038211156130e2576130e1613251565b5b828201905092915050565b60006130f88261318f565b91506131038361318f565b92508282101561311657613115613251565b5b828203905092915050565b600061312c8261316f565b9050919050565b60008115159050919050565b6000819050919050565b6000819050613157826132cd565b919050565b600081905061316a826132e1565b919050565b600073ffffffffffffffffffffffffffffffffffffffff82169050919050565b6000819050919050565b60006131a4826131ab565b9050919050565b60006131b68261316f565b9050919050565b60006131c882613149565b9050919050565b60006131da8261315c565b9050919050565b82818337600083830152505050565b60005b8381101561320e5780820151818401526020810190506131f3565b8381111561321d576000848401525b50505050565b600061322e82613235565b9050919050565b6000613240826132c0565b9050919050565b6000819050919050565b7f4e487b7100000000000000000000000000000000000000000000000000000000600052601160045260246000fd5b7f4e487b7100000000000000000000000000000000000000000000000000000000600052602160045260246000fd5b6000601f19601f8301169050919050565b60008160601b9050919050565b600381106132de576132dd613280565b5b50565b600381106132f2576132f1613280565b5b50565b6132fe81613121565b811461330957600080fd5b50565b61331581613133565b811461332057600080fd5b50565b61332c8161313f565b811461333757600080fd5b50565b6133438161318f565b811461334e57600080fd5b5056fe6d696e7453796e746865746963546f6b656e28627974657333322c616464726573732c75696e743235362c75696e743235362c6164647265737329a2646970667358221220e869c107c97fc224857a5c8815f3289e0aa1d2f5d287e303d577c21a4776661b64736f6c63430008000033",
  "linkReferences": {},
  "deployedLinkReferences": {}
}