{
  "_format": "hh-sol-artifact-1",
  "contractName": "Portal",
  "sourceName": "contracts/Portal.sol",
  "abi": [
    {
      "inputs": [
        {
          "internalType": "address",
          "name": "trustedForwarder",
          "type": "address"
        }
      ],
      "stateMutability": "nonpayable",
      "type": "constructor"
    },
    {
      "anonymous": false,
      "inputs": [
        {
          "indexed": true,
          "internalType": "bytes32",
          "name": "_id",
          "type": "bytes32"
        },
        {
          "indexed": true,
          "internalType": "address",
          "name": "_to",
          "type": "address"
        },
        {
          "indexed": false,
          "internalType": "uint256",
          "name": "_amount",
          "type": "uint256"
        },
        {
          "indexed": false,
          "internalType": "address",
          "name": "_token",
          "type": "address"
        }
      ],
      "name": "BurnCompleted",
      "type": "event"
    },
    {
      "anonymous": false,
      "inputs": [
        {
          "indexed": true,
          "internalType": "address",
          "name": "previousOwner",
          "type": "address"
        },
        {
          "indexed": true,
          "internalType": "address",
          "name": "newOwner",
          "type": "address"
        }
      ],
      "name": "OwnershipTransferred",
      "type": "event"
    },
    {
      "anonymous": false,
      "inputs": [
        {
          "indexed": true,
          "internalType": "bytes32",
          "name": "_id",
          "type": "bytes32"
        },
        {
          "indexed": true,
          "internalType": "address",
          "name": "_to",
          "type": "address"
        }
      ],
      "name": "RevertBurnRequest",
      "type": "event"
    },
    {
      "anonymous": false,
      "inputs": [
        {
          "indexed": true,
          "internalType": "bytes32",
          "name": "_id",
          "type": "bytes32"
        },
        {
          "indexed": true,
          "internalType": "address",
          "name": "_to",
          "type": "address"
        },
        {
          "indexed": false,
          "internalType": "uint256",
          "name": "_amount",
          "type": "uint256"
        },
        {
          "indexed": false,
          "internalType": "address",
          "name": "_token",
          "type": "address"
        }
      ],
      "name": "RevertSynthesizeCompleted",
      "type": "event"
    },
    {
      "anonymous": false,
      "inputs": [
        {
          "indexed": true,
          "internalType": "bytes32",
          "name": "_id",
          "type": "bytes32"
        },
        {
          "indexed": true,
          "internalType": "address",
          "name": "_from",
          "type": "address"
        },
        {
          "indexed": true,
          "internalType": "address",
          "name": "_to",
          "type": "address"
        },
        {
          "indexed": false,
          "internalType": "uint256",
          "name": "_amount",
          "type": "uint256"
        },
        {
          "indexed": false,
          "internalType": "address",
          "name": "_token",
          "type": "address"
        }
      ],
      "name": "SynthesizeRequest",
      "type": "event"
    },
    {
      "inputs": [
        {
          "internalType": "address",
          "name": "_bridge",
          "type": "address"
        },
        {
          "internalType": "bool",
          "name": "_on",
          "type": "bool"
        }
      ],
      "name": "addBridge",
      "outputs": [],
      "stateMutability": "nonpayable",
      "type": "function"
    },
    {
      "inputs": [
        {
          "internalType": "address",
          "name": "",
          "type": "address"
        }
      ],
      "name": "balanceOf",
      "outputs": [
        {
          "internalType": "uint256",
          "name": "",
          "type": "uint256"
        }
      ],
      "stateMutability": "view",
      "type": "function"
    },
    {
      "inputs": [
        {
          "internalType": "address",
          "name": "",
          "type": "address"
        }
      ],
      "name": "bridges",
      "outputs": [
        {
          "internalType": "bool",
          "name": "",
          "type": "bool"
        }
      ],
      "stateMutability": "view",
      "type": "function"
    },
    {
      "inputs": [
        {
          "internalType": "bytes32",
          "name": "_txID",
          "type": "bytes32"
        },
        {
          "internalType": "address",
          "name": "_bridge",
          "type": "address"
        },
        {
          "internalType": "address",
          "name": "_oppositeBridge",
          "type": "address"
        },
        {
          "internalType": "uint256",
          "name": "_chainId",
          "type": "uint256"
        }
      ],
      "name": "emergencyUnburnRequest",
      "outputs": [],
      "stateMutability": "nonpayable",
      "type": "function"
    },
    {
      "inputs": [
        {
          "internalType": "bytes32",
          "name": "_txID",
          "type": "bytes32"
        }
      ],
      "name": "emergencyUnsynthesize",
      "outputs": [],
      "stateMutability": "nonpayable",
      "type": "function"
    },
    {
      "inputs": [
        {
          "internalType": "address",
          "name": "forwarder",
          "type": "address"
        }
      ],
      "name": "isTrustedForwarder",
      "outputs": [
        {
          "internalType": "bool",
          "name": "",
          "type": "bool"
        }
      ],
      "stateMutability": "view",
      "type": "function"
    },
    {
      "inputs": [],
      "name": "owner",
      "outputs": [
        {
          "internalType": "address",
          "name": "",
          "type": "address"
        }
      ],
      "stateMutability": "view",
      "type": "function"
    },
    {
      "inputs": [],
      "name": "renounceOwnership",
      "outputs": [],
      "stateMutability": "nonpayable",
      "type": "function"
    },
    {
      "inputs": [
        {
          "internalType": "bytes32",
          "name": "",
          "type": "bytes32"
        }
      ],
      "name": "requests",
      "outputs": [
        {
          "internalType": "address",
          "name": "recipient",
          "type": "address"
        },
        {
          "internalType": "address",
          "name": "chain2address",
          "type": "address"
        },
        {
          "internalType": "uint256",
          "name": "amount",
          "type": "uint256"
        },
        {
          "internalType": "address",
          "name": "rtoken",
          "type": "address"
        },
        {
          "internalType": "enum Portal.RequestState",
          "name": "state",
          "type": "uint8"
        }
      ],
      "stateMutability": "view",
      "type": "function"
    },
    {
      "inputs": [
        {
          "internalType": "address",
          "name": "_token",
          "type": "address"
        },
        {
          "internalType": "uint256",
          "name": "_amount",
          "type": "uint256"
        },
        {
          "internalType": "address",
          "name": "_chain2address",
          "type": "address"
        },
        {
          "internalType": "address",
          "name": "_bridge",
          "type": "address"
        },
        {
          "internalType": "address",
          "name": "_oppositeBridge",
          "type": "address"
        },
        {
          "internalType": "uint256",
          "name": "_chainID",
          "type": "uint256"
        }
      ],
      "name": "synthesize",
      "outputs": [
        {
          "internalType": "bytes32",
          "name": "txID",
          "type": "bytes32"
        }
      ],
      "stateMutability": "nonpayable",
      "type": "function"
    },
    {
      "inputs": [
        {
          "internalType": "bytes",
          "name": "_approvalData",
          "type": "bytes"
        },
        {
          "internalType": "address",
          "name": "_token",
          "type": "address"
        },
        {
          "internalType": "uint256",
          "name": "_amount",
          "type": "uint256"
        },
        {
          "internalType": "address",
          "name": "_chain2address",
          "type": "address"
        },
        {
          "internalType": "address",
          "name": "_bridge",
          "type": "address"
        },
        {
          "internalType": "address",
          "name": "_oppositeBridge",
          "type": "address"
        },
        {
          "internalType": "uint256",
          "name": "_chainID",
          "type": "uint256"
        }
      ],
      "name": "synthesizeWithPermit",
      "outputs": [
        {
          "internalType": "bytes32",
          "name": "txID",
          "type": "bytes32"
        }
      ],
      "stateMutability": "nonpayable",
      "type": "function"
    },
    {
      "inputs": [
        {
          "internalType": "address",
          "name": "newOwner",
          "type": "address"
        }
      ],
      "name": "transferOwnership",
      "outputs": [],
      "stateMutability": "nonpayable",
      "type": "function"
    },
    {
      "inputs": [
        {
          "internalType": "bytes32",
          "name": "_txID",
          "type": "bytes32"
        },
        {
          "internalType": "address",
          "name": "_token",
          "type": "address"
        },
        {
          "internalType": "uint256",
          "name": "_amount",
          "type": "uint256"
        },
        {
          "internalType": "address",
          "name": "_to",
          "type": "address"
        }
      ],
      "name": "unsynthesize",
      "outputs": [],
      "stateMutability": "nonpayable",
      "type": "function"
    },
    {
      "inputs": [
        {
          "internalType": "bytes32",
          "name": "",
          "type": "bytes32"
        }
      ],
      "name": "unsynthesizeStates",
      "outputs": [
        {
          "internalType": "enum Portal.UnsynthesizeState",
          "name": "",
          "type": "uint8"
        }
      ],
      "stateMutability": "view",
      "type": "function"
    },
    {
      "inputs": [],
      "name": "versionRecipient",
      "outputs": [
        {
          "internalType": "string",
          "name": "",
          "type": "string"
        }
      ],
      "stateMutability": "view",
      "type": "function"
    }
  ],
  "bytecode": "0x608060405260016004553480156200001657600080fd5b5060405162002ca838038062002ca883398181016040528101906200003c9190620001f9565b8060006200004f6200013660201b60201c565b9050806000806101000a81548173ffffffffffffffffffffffffffffffffffffffff021916908373ffffffffffffffffffffffffffffffffffffffff1602179055508073ffffffffffffffffffffffffffffffffffffffff16600073ffffffffffffffffffffffffffffffffffffffff167f8be0079c531659141344cd1fd0a4f28419497f9722a3daafe3b4186f6b6457e060405160405180910390a35080600160006101000a81548173ffffffffffffffffffffffffffffffffffffffff021916908373ffffffffffffffffffffffffffffffffffffffff160217905550505062000273565b600062000149336200018060201b60201c565b156200015f57601436033560601c90506200017c565b62000174620001da60201b620018c71760201c565b90506200017d565b5b90565b6000600160009054906101000a900473ffffffffffffffffffffffffffffffffffffffff1673ffffffffffffffffffffffffffffffffffffffff168273ffffffffffffffffffffffffffffffffffffffff16149050919050565b600033905090565b600081519050620001f38162000259565b92915050565b6000602082840312156200020c57600080fd5b60006200021c84828501620001e2565b91505092915050565b6000620002328262000239565b9050919050565b600073ffffffffffffffffffffffffffffffffffffffff82169050919050565b620002648162000225565b81146200027057600080fd5b50565b612a2580620002836000396000f3fe608060405234801561001057600080fd5b50600436106100f55760003560e01c80639a1962fb11610097578063ced67f0c11610066578063ced67f0c14610288578063f2fde38b146102b8578063fab92894146102d4578063fc89586914610304576100f5565b80639a1962fb146101ec5780639d8669851461021c578063a6037a2914610250578063ba6b0a891461026c576100f5565b806370a08231116100d357806370a0823114610178578063715018a6146101a85780637ac3a7ad146101b25780638da5cb5b146101ce576100f5565b8063486ff0cd146100fa578063572b6c05146101185780635bb8809f14610148575b600080fd5b610102610320565b60405161010f9190612559565b60405180910390f35b610132600480360381019061012d9190611c64565b61035d565b60405161013f9190612485565b60405180910390f35b610162600480360381019061015d9190611cc9565b6103b7565b60405161016f91906124a0565b60405180910390f35b610192600480360381019061018d9190611c64565b61078e565b60405161019f919061267b565b60405180910390f35b6101b06107a6565b005b6101cc60048036038101906101c79190611dcd565b6108e0565b005b6101d6610ba7565b6040516101e391906123b7565b60405180910390f35b61020660048036038101906102019190611e93565b610bd0565b60405161021391906124a0565b60405180910390f35b61023660048036038101906102319190611d7b565b611058565b604051610247959493929190612409565b60405180910390f35b61026a60048036038101906102659190611e30565b6110fb565b005b61028660048036038101906102819190611c8d565b611384565b005b6102a2600480360381019061029d9190611c64565b61145b565b6040516102af9190612485565b60405180910390f35b6102d260048036038101906102cd9190611c64565b61147b565b005b6102ee60048036038101906102e99190611d7b565b611624565b6040516102fb919061253e565b60405180910390f35b61031e60048036038101906103199190611d7b565b611644565b005b60606040518060400160405280600581526020017f322e302e31000000000000000000000000000000000000000000000000000000815250905090565b6000600160009054906101000a900473ffffffffffffffffffffffffffffffffffffffff1673ffffffffffffffffffffffffffffffffffffffff168273ffffffffffffffffffffffffffffffffffffffff16149050919050565b60006103cc876103c56118cf565b3089611901565b61041e86600260008a73ffffffffffffffffffffffffffffffffffffffff1673ffffffffffffffffffffffffffffffffffffffff16815260200190815260200160002054611a3a90919063ffffffff16565b600260008973ffffffffffffffffffffffffffffffffffffffff1673ffffffffffffffffffffffffffffffffffffffff168152602001908152602001600020819055503060045460405160200161047692919061238b565b60405160208183030381529060405280519060200120905060006040518060600160405280603381526020016129bd6033913980519060200120828989896040516024016104c794939291906124bb565b604051602081830303815290604052907bffffffffffffffffffffffffffffffffffffffffffffffffffffffff19166020820180517bffffffffffffffffffffffffffffffffffffffffffffffffffffffff838183161783525050505090508473ffffffffffffffffffffffffffffffffffffffff166396b9b19a8286866040518463ffffffff1660e01b815260040161056393929190612500565b602060405180830381600087803b15801561057d57600080fd5b505af1158015610591573d6000803e3d6000fd5b505050506040513d601f19601f820116820180604052508101906105b59190611da4565b5060006005600084815260200190815260200160002090506105d56118cf565b8160000160006101000a81548173ffffffffffffffffffffffffffffffffffffffff021916908373ffffffffffffffffffffffffffffffffffffffff160217905550868160010160006101000a81548173ffffffffffffffffffffffffffffffffffffffff021916908373ffffffffffffffffffffffffffffffffffffffff160217905550888160030160006101000a81548173ffffffffffffffffffffffffffffffffffffffff021916908373ffffffffffffffffffffffffffffffffffffffff16021790555087816002018190555060018160030160146101000a81548160ff021916908360028111156106f4577f4e487b7100000000000000000000000000000000000000000000000000000000600052602160045260246000fd5b021790555060016004600082825461070c9190612702565b925050819055508673ffffffffffffffffffffffffffffffffffffffff166107326118cf565b73ffffffffffffffffffffffffffffffffffffffff16847f79856ea8bc3d8f5d0a803c32f56f54884a196b09482b11134b6f2a6f6276a0b98b8d60405161077a929190612696565b60405180910390a450509695505050505050565b60026020528060005260406000206000915090505481565b6107ae6118cf565b73ffffffffffffffffffffffffffffffffffffffff166107cc610ba7565b73ffffffffffffffffffffffffffffffffffffffff1614610822576040517f08c379a00000000000000000000000000000000000000000000000000000000081526004016108199061263b565b60405180910390fd5b600073ffffffffffffffffffffffffffffffffffffffff1660008054906101000a900473ffffffffffffffffffffffffffffffffffffffff1673ffffffffffffffffffffffffffffffffffffffff167f8be0079c531659141344cd1fd0a4f28419497f9722a3daafe3b4186f6b6457e060405160405180910390a360008060006101000a81548173ffffffffffffffffffffffffffffffffffffffff021916908373ffffffffffffffffffffffffffffffffffffffff160217905550565b6001600281111561091a577f4e487b7100000000000000000000000000000000000000000000000000000000600052602160045260246000fd5b6006600086815260200190815260200160002060009054906101000a900460ff166002811115610973577f4e487b7100000000000000000000000000000000000000000000000000000000600052602160045260246000fd5b14156109b4576040517f08c379a00000000000000000000000000000000000000000000000000000000081526004016109ab9061261b565b60405180910390fd5b60026006600086815260200190815260200160002060006101000a81548160ff02191690836002811115610a11577f4e487b7100000000000000000000000000000000000000000000000000000000600052602160045260246000fd5b021790555060006040518060400160405280601881526020017f656d657267656e6379556e6275726e28627974657333322900000000000000008152508051906020012085604051602401610a6691906124a0565b604051602081830303815290604052907bffffffffffffffffffffffffffffffffffffffffffffffffffffffff19166020820180517bffffffffffffffffffffffffffffffffffffffffffffffffffffffff838183161783525050505090508373ffffffffffffffffffffffffffffffffffffffff166396b9b19a8285856040518463ffffffff1660e01b8152600401610b0293929190612500565b602060405180830381600087803b158015610b1c57600080fd5b505af1158015610b30573d6000803e3d6000fd5b505050506040513d601f19601f82011682018060405250810190610b549190611da4565b50610b5d6118cf565b73ffffffffffffffffffffffffffffffffffffffff16857f40590cc12db0488520ce425059f83f8caed91bdf98de5ff829dc57c63843161b60405160405180910390a35050505050565b60008060009054906101000a900473ffffffffffffffffffffffffffffffffffffffff16905090565b6000808773ffffffffffffffffffffffffffffffffffffffff168a8a604051610bfa92919061235b565b6000604051808303816000865af19150503d8060008114610c37576040519150601f19603f3d011682016040523d82523d6000602084013e610c3c565b606091505b5050905080610c80576040517f08c379a0000000000000000000000000000000000000000000000000000000008152600401610c77906125bb565b60405180910390fd5b610c9388610c8c6118cf565b308a611901565b610ce587600260008b73ffffffffffffffffffffffffffffffffffffffff1673ffffffffffffffffffffffffffffffffffffffff16815260200190815260200160002054611a3a90919063ffffffff16565b600260008a73ffffffffffffffffffffffffffffffffffffffff1673ffffffffffffffffffffffffffffffffffffffff1681526020019081526020016000208190555030600454604051602001610d3d92919061238b565b60405160208183030381529060405280519060200120915060006040518060600160405280603381526020016129bd6033913980519060200120838a8a8a604051602401610d8e94939291906124bb565b604051602081830303815290604052907bffffffffffffffffffffffffffffffffffffffffffffffffffffffff19166020820180517bffffffffffffffffffffffffffffffffffffffffffffffffffffffff838183161783525050505090508573ffffffffffffffffffffffffffffffffffffffff166396b9b19a8287876040518463ffffffff1660e01b8152600401610e2a93929190612500565b602060405180830381600087803b158015610e4457600080fd5b505af1158015610e58573d6000803e3d6000fd5b505050506040513d601f19601f82011682018060405250810190610e7c9190611da4565b506000600560008581526020019081526020016000209050610e9c6118cf565b8160000160006101000a81548173ffffffffffffffffffffffffffffffffffffffff021916908373ffffffffffffffffffffffffffffffffffffffff160217905550878160010160006101000a81548173ffffffffffffffffffffffffffffffffffffffff021916908373ffffffffffffffffffffffffffffffffffffffff160217905550898160030160006101000a81548173ffffffffffffffffffffffffffffffffffffffff021916908373ffffffffffffffffffffffffffffffffffffffff16021790555088816002018190555060018160030160146101000a81548160ff02191690836002811115610fbb577f4e487b7100000000000000000000000000000000000000000000000000000000600052602160045260246000fd5b0217905550600160046000828254610fd39190612702565b925050819055508773ffffffffffffffffffffffffffffffffffffffff16610ff96118cf565b73ffffffffffffffffffffffffffffffffffffffff16857f79856ea8bc3d8f5d0a803c32f56f54884a196b09482b11134b6f2a6f6276a0b98c8e604051611041929190612696565b60405180910390a450505098975050505050505050565b60056020528060005260406000206000915090508060000160009054906101000a900473ffffffffffffffffffffffffffffffffffffffff16908060010160009054906101000a900473ffffffffffffffffffffffffffffffffffffffff16908060020154908060030160009054906101000a900473ffffffffffffffffffffffffffffffffffffffff16908060030160149054906101000a900460ff16905085565b600360006111076118cf565b73ffffffffffffffffffffffffffffffffffffffff1673ffffffffffffffffffffffffffffffffffffffff16815260200190815260200160002060009054906101000a900460ff1661115857600080fd5b60006002811115611192577f4e487b7100000000000000000000000000000000000000000000000000000000600052602160045260246000fd5b6006600086815260200190815260200160002060009054906101000a900460ff1660028111156111eb577f4e487b7100000000000000000000000000000000000000000000000000000000600052602160045260246000fd5b1461122b576040517f08c379a0000000000000000000000000000000000000000000000000000000008152600401611222906125db565b60405180910390fd5b611236838284611a50565b61128882600260008673ffffffffffffffffffffffffffffffffffffffff1673ffffffffffffffffffffffffffffffffffffffff16815260200190815260200160002054611b8690919063ffffffff16565b600260008573ffffffffffffffffffffffffffffffffffffffff1673ffffffffffffffffffffffffffffffffffffffff1681526020019081526020016000208190555060016006600086815260200190815260200160002060006101000a81548160ff02191690836002811115611328577f4e487b7100000000000000000000000000000000000000000000000000000000600052602160045260246000fd5b02179055508073ffffffffffffffffffffffffffffffffffffffff16847f7d38b66fe45f4596a8e0f6d416747ea22ad1ef15891e9d7c8f848a044be974e08486604051611376929190612696565b60405180910390a350505050565b61138c6118cf565b73ffffffffffffffffffffffffffffffffffffffff166113aa610ba7565b73ffffffffffffffffffffffffffffffffffffffff1614611400576040517f08c379a00000000000000000000000000000000000000000000000000000000081526004016113f79061263b565b60405180910390fd5b80600360008473ffffffffffffffffffffffffffffffffffffffff1673ffffffffffffffffffffffffffffffffffffffff16815260200190815260200160002060006101000a81548160ff0219169083151502179055505050565b60036020528060005260406000206000915054906101000a900460ff1681565b6114836118cf565b73ffffffffffffffffffffffffffffffffffffffff166114a1610ba7565b73ffffffffffffffffffffffffffffffffffffffff16146114f7576040517f08c379a00000000000000000000000000000000000000000000000000000000081526004016114ee9061263b565b60405180910390fd5b600073ffffffffffffffffffffffffffffffffffffffff168173ffffffffffffffffffffffffffffffffffffffff161415611567576040517f08c379a000000000000000000000000000000000000000000000000000000000815260040161155e9061259b565b60405180910390fd5b8073ffffffffffffffffffffffffffffffffffffffff1660008054906101000a900473ffffffffffffffffffffffffffffffffffffffff1673ffffffffffffffffffffffffffffffffffffffff167f8be0079c531659141344cd1fd0a4f28419497f9722a3daafe3b4186f6b6457e060405160405180910390a3806000806101000a81548173ffffffffffffffffffffffffffffffffffffffff021916908373ffffffffffffffffffffffffffffffffffffffff16021790555050565b60066020528060005260406000206000915054906101000a900460ff1681565b600360006116506118cf565b73ffffffffffffffffffffffffffffffffffffffff1673ffffffffffffffffffffffffffffffffffffffff16815260200190815260200160002060009054906101000a900460ff166116a157600080fd5b6000600560008381526020019081526020016000209050600160028111156116f2577f4e487b7100000000000000000000000000000000000000000000000000000000600052602160045260246000fd5b8160030160149054906101000a900460ff16600281111561173c577f4e487b7100000000000000000000000000000000000000000000000000000000600052602160045260246000fd5b1461177c576040517f08c379a0000000000000000000000000000000000000000000000000000000008152600401611773906125fb565b60405180910390fd5b60028160030160146101000a81548160ff021916908360028111156117ca577f4e487b7100000000000000000000000000000000000000000000000000000000600052602160045260246000fd5b02179055506118268160030160009054906101000a900473ffffffffffffffffffffffffffffffffffffffff168260000160009054906101000a900473ffffffffffffffffffffffffffffffffffffffff168360020154611a50565b8060000160009054906101000a900473ffffffffffffffffffffffffffffffffffffffff1673ffffffffffffffffffffffffffffffffffffffff16827f944f1d3ef1c50472b370611627295b06b64eca841d2de116bb7634a08a097ca983600201548460030160009054906101000a900473ffffffffffffffffffffffffffffffffffffffff166040516118bb929190612696565b60405180910390a35050565b600033905090565b60006118da3361035d565b156118ee57601436033560601c90506118fd565b6118f66118c7565b90506118fe565b5b90565b6000808573ffffffffffffffffffffffffffffffffffffffff166323b872dd868686604051602401611935939291906123d2565b6040516020818303038152906040529060e01b6020820180517bffffffffffffffffffffffffffffffffffffffffffffffffffffffff83818316178352505050506040516119839190612374565b6000604051808303816000865af19150503d80600081146119c0576040519150601f19603f3d011682016040523d82523d6000602084013e6119c5565b606091505b50915091508180156119f357506000815114806119f25750808060200190518101906119f19190611d52565b5b5b611a32576040517f08c379a0000000000000000000000000000000000000000000000000000000008152600401611a299061265b565b60405180910390fd5b505050505050565b60008183611a489190612702565b905092915050565b6000808473ffffffffffffffffffffffffffffffffffffffff1663a9059cbb8585604051602401611a8292919061245c565b6040516020818303038152906040529060e01b6020820180517bffffffffffffffffffffffffffffffffffffffffffffffffffffffff8381831617835250505050604051611ad09190612374565b6000604051808303816000865af19150503d8060008114611b0d576040519150601f19603f3d011682016040523d82523d6000602084013e611b12565b606091505b5091509150818015611b405750600081511480611b3f575080806020019051810190611b3e9190611d52565b5b5b611b7f576040517f08c379a0000000000000000000000000000000000000000000000000000000008152600401611b769061257b565b60405180910390fd5b5050505050565b60008183611b949190612758565b905092915050565b600081359050611bab81612960565b92915050565b600081359050611bc081612977565b92915050565b600081519050611bd581612977565b92915050565b600081359050611bea8161298e565b92915050565b600081519050611bff8161298e565b92915050565b60008083601f840112611c1757600080fd5b8235905067ffffffffffffffff811115611c3057600080fd5b602083019150836001820283011115611c4857600080fd5b9250929050565b600081359050611c5e816129a5565b92915050565b600060208284031215611c7657600080fd5b6000611c8484828501611b9c565b91505092915050565b60008060408385031215611ca057600080fd5b6000611cae85828601611b9c565b9250506020611cbf85828601611bb1565b9150509250929050565b60008060008060008060c08789031215611ce257600080fd5b6000611cf089828a01611b9c565b9650506020611d0189828a01611c4f565b9550506040611d1289828a01611b9c565b9450506060611d2389828a01611b9c565b9350506080611d3489828a01611b9c565b92505060a0611d4589828a01611c4f565b9150509295509295509295565b600060208284031215611d6457600080fd5b6000611d7284828501611bc6565b91505092915050565b600060208284031215611d8d57600080fd5b6000611d9b84828501611bdb565b91505092915050565b600060208284031215611db657600080fd5b6000611dc484828501611bf0565b91505092915050565b60008060008060808587031215611de357600080fd5b6000611df187828801611bdb565b9450506020611e0287828801611b9c565b9350506040611e1387828801611b9c565b9250506060611e2487828801611c4f565b91505092959194509250565b60008060008060808587031215611e4657600080fd5b6000611e5487828801611bdb565b9450506020611e6587828801611b9c565b9350506040611e7687828801611c4f565b9250506060611e8787828801611b9c565b91505092959194509250565b60008060008060008060008060e0898b031215611eaf57600080fd5b600089013567ffffffffffffffff811115611ec957600080fd5b611ed58b828c01611c05565b98509850506020611ee88b828c01611b9c565b9650506040611ef98b828c01611c4f565b9550506060611f0a8b828c01611b9c565b9450506080611f1b8b828c01611b9c565b93505060a0611f2c8b828c01611b9c565b92505060c0611f3d8b828c01611c4f565b9150509295985092959890939650565b611f568161278c565b82525050565b611f658161279e565b82525050565b611f74816127aa565b82525050565b6000611f8683856126e6565b9350611f9383858461284c565b82840190509392505050565b6000611faa826126bf565b611fb481856126d5565b9350611fc481856020860161285b565b611fcd8161291a565b840191505092915050565b6000611fe3826126bf565b611fed81856126e6565b9350611ffd81856020860161285b565b80840191505092915050565b61201a61201582612804565b61288e565b82525050565b61202981612828565b82525050565b6120388161283a565b82525050565b6000612049826126ca565b61205381856126f1565b935061206381856020860161285b565b61206c8161291a565b840191505092915050565b6000612084601f836126f1565b91507f5472616e7366657248656c7065723a205452414e534645525f4641494c4544006000830152602082019050919050565b60006120c46026836126f1565b91507f4f776e61626c653a206e6577206f776e657220697320746865207a65726f206160008301527f64647265737300000000000000000000000000000000000000000000000000006020830152604082019050919050565b600061212a6013836126f1565b91507f417070726f76652063616c6c206661696c6564000000000000000000000000006000830152602082019050919050565b600061216a6027836126f1565b91507f506f7274616c3a2073796e746174696320746f6b656e7320656d657267656e6360008301527f79556e6275726e000000000000000000000000000000000000000000000000006020830152604082019050919050565b60006121d0602a836126f1565b91507f506f7274616c3a7374617465206e6f74206f70656e206f7220747820646f657360008301527f206e6f74206578697374000000000000000000000000000000000000000000006020830152604082019050919050565b60006122366026836126f1565b91507f506f7274616c3a205265616c20746f6b656e7320616c7265616479207472616e60008301527f73666572656400000000000000000000000000000000000000000000000000006020830152604082019050919050565b600061229c6020836126f1565b91507f4f776e61626c653a2063616c6c6572206973206e6f7420746865206f776e65726000830152602082019050919050565b60006122dc6024836126f1565b91507f5472616e7366657248656c7065723a205452414e534645525f46524f4d5f464160008301527f494c4544000000000000000000000000000000000000000000000000000000006020830152604082019050919050565b61233e816127fa565b82525050565b612355612350826127fa565b6128b2565b82525050565b6000612368828486611f7a565b91508190509392505050565b60006123808284611fd8565b915081905092915050565b60006123978285612009565b6014820191506123a78284612344565b6020820191508190509392505050565b60006020820190506123cc6000830184611f4d565b92915050565b60006060820190506123e76000830186611f4d565b6123f46020830185611f4d565b6124016040830184612335565b949350505050565b600060a08201905061241e6000830188611f4d565b61242b6020830187611f4d565b6124386040830186612335565b6124456060830185611f4d565b6124526080830184612020565b9695505050505050565b60006040820190506124716000830185611f4d565b61247e6020830184612335565b9392505050565b600060208201905061249a6000830184611f5c565b92915050565b60006020820190506124b56000830184611f6b565b92915050565b60006080820190506124d06000830187611f6b565b6124dd6020830186611f4d565b6124ea6040830185612335565b6124f76060830184611f4d565b95945050505050565b6000606082019050818103600083015261251a8186611f9f565b90506125296020830185611f4d565b6125366040830184612335565b949350505050565b6000602082019050612553600083018461202f565b92915050565b60006020820190508181036000830152612573818461203e565b905092915050565b6000602082019050818103600083015261259481612077565b9050919050565b600060208201905081810360008301526125b4816120b7565b9050919050565b600060208201905081810360008301526125d48161211d565b9050919050565b600060208201905081810360008301526125f48161215d565b9050919050565b60006020820190508181036000830152612614816121c3565b9050919050565b6000602082019050818103600083015261263481612229565b9050919050565b600060208201905081810360008301526126548161228f565b9050919050565b60006020820190508181036000830152612674816122cf565b9050919050565b60006020820190506126906000830184612335565b92915050565b60006040820190506126ab6000830185612335565b6126b86020830184611f4d565b9392505050565b600081519050919050565b600081519050919050565b600082825260208201905092915050565b600081905092915050565b600082825260208201905092915050565b600061270d826127fa565b9150612718836127fa565b9250827fffffffffffffffffffffffffffffffffffffffffffffffffffffffffffffffff0382111561274d5761274c6128bc565b5b828201905092915050565b6000612763826127fa565b915061276e836127fa565b925082821015612781576127806128bc565b5b828203905092915050565b6000612797826127da565b9050919050565b60008115159050919050565b6000819050919050565b60008190506127c282612938565b919050565b60008190506127d58261294c565b919050565b600073ffffffffffffffffffffffffffffffffffffffff82169050919050565b6000819050919050565b600061280f82612816565b9050919050565b6000612821826127da565b9050919050565b6000612833826127b4565b9050919050565b6000612845826127c7565b9050919050565b82818337600083830152505050565b60005b8381101561287957808201518184015260208101905061285e565b83811115612888576000848401525b50505050565b6000612899826128a0565b9050919050565b60006128ab8261292b565b9050919050565b6000819050919050565b7f4e487b7100000000000000000000000000000000000000000000000000000000600052601160045260246000fd5b7f4e487b7100000000000000000000000000000000000000000000000000000000600052602160045260246000fd5b6000601f19601f8301169050919050565b60008160601b9050919050565b60038110612949576129486128eb565b5b50565b6003811061295d5761295c6128eb565b5b50565b6129698161278c565b811461297457600080fd5b50565b6129808161279e565b811461298b57600080fd5b50565b612997816127aa565b81146129a257600080fd5b50565b6129ae816127fa565b81146129b957600080fd5b5056fe6d696e7453796e746865746963546f6b656e28627974657333322c616464726573732c75696e743235362c6164647265737329a2646970667358221220ecbdc26ce286e1a09c31abca7e68e195e9be99a2add07e37bb9e2e9b3f62c0d564736f6c63430008000033",
  "linkReferences": {},
  "deployedLinkReferences": {}
}