{
  "_format": "hh-sol-artifact-1",
  "contractName": "Portal",
  "sourceName": "contracts/Portal.sol",
  "abi": [
    {
      "anonymous": false,
      "inputs": [
        {
          "indexed": true,
          "internalType": "bytes32",
          "name": "_id",
          "type": "bytes32"
        },
        {
          "indexed": true,
          "internalType": "address",
          "name": "_to",
          "type": "address"
        },
        {
          "indexed": false,
          "internalType": "uint256",
          "name": "_amount",
          "type": "uint256"
        },
        {
          "indexed": false,
          "internalType": "address",
          "name": "_token",
          "type": "address"
        }
      ],
      "name": "BurnCompleted",
      "type": "event"
    },
    {
      "anonymous": false,
      "inputs": [
        {
          "indexed": true,
          "internalType": "address",
          "name": "previousOwner",
          "type": "address"
        },
        {
          "indexed": true,
          "internalType": "address",
          "name": "newOwner",
          "type": "address"
        }
      ],
      "name": "OwnershipTransferred",
      "type": "event"
    },
    {
      "anonymous": false,
      "inputs": [
        {
          "indexed": true,
          "internalType": "bytes32",
          "name": "_id",
          "type": "bytes32"
        },
        {
          "indexed": true,
          "internalType": "address",
          "name": "_to",
          "type": "address"
        }
      ],
      "name": "RevertBurnRequest",
      "type": "event"
    },
    {
      "anonymous": false,
      "inputs": [
        {
          "indexed": true,
          "internalType": "bytes32",
          "name": "_id",
          "type": "bytes32"
        },
        {
          "indexed": true,
          "internalType": "address",
          "name": "_to",
          "type": "address"
        },
        {
          "indexed": false,
          "internalType": "uint256",
          "name": "_amount",
          "type": "uint256"
        },
        {
          "indexed": false,
          "internalType": "address",
          "name": "_token",
          "type": "address"
        }
      ],
      "name": "RevertSynthesizeCompleted",
      "type": "event"
    },
    {
      "anonymous": false,
      "inputs": [
        {
          "indexed": true,
          "internalType": "bytes32",
          "name": "_id",
          "type": "bytes32"
        },
        {
          "indexed": true,
          "internalType": "address",
          "name": "_from",
          "type": "address"
        },
        {
          "indexed": true,
          "internalType": "address",
          "name": "_to",
          "type": "address"
        },
        {
          "indexed": false,
          "internalType": "uint256",
          "name": "_amount",
          "type": "uint256"
        },
        {
          "indexed": false,
          "internalType": "address",
          "name": "_token",
          "type": "address"
        }
      ],
      "name": "SynthesizeRequest",
      "type": "event"
    },
    {
      "inputs": [
        {
          "internalType": "address",
          "name": "",
          "type": "address"
        }
      ],
      "name": "balanceOf",
      "outputs": [
        {
          "internalType": "uint256",
          "name": "",
          "type": "uint256"
        }
      ],
      "stateMutability": "view",
      "type": "function"
    },
    {
      "inputs": [],
      "name": "bridge",
      "outputs": [
        {
          "internalType": "address",
          "name": "",
          "type": "address"
        }
      ],
      "stateMutability": "view",
      "type": "function"
    },
    {
      "inputs": [
        {
          "internalType": "address",
          "name": "_bridge",
          "type": "address"
        }
      ],
      "name": "changeBridge",
      "outputs": [],
      "stateMutability": "nonpayable",
      "type": "function"
    },
    {
      "inputs": [
        {
          "internalType": "bytes32",
          "name": "_txID",
          "type": "bytes32"
        },
        {
          "internalType": "address",
          "name": "_receiveSide",
          "type": "address"
        },
        {
          "internalType": "address",
          "name": "_oppositeBridge",
          "type": "address"
        },
        {
          "internalType": "uint256",
          "name": "_chainId",
          "type": "uint256"
        }
      ],
      "name": "emergencyUnburnRequest",
      "outputs": [],
      "stateMutability": "nonpayable",
      "type": "function"
    },
    {
      "inputs": [
        {
          "internalType": "bytes32",
          "name": "_txID",
          "type": "bytes32"
        }
      ],
      "name": "emergencyUnsynthesize",
      "outputs": [],
      "stateMutability": "nonpayable",
      "type": "function"
    },
    {
      "inputs": [
        {
          "internalType": "address",
          "name": "_bridge",
          "type": "address"
        },
        {
          "internalType": "address",
          "name": "_trustedForwarder",
          "type": "address"
        }
      ],
      "name": "initialize",
      "outputs": [],
      "stateMutability": "nonpayable",
      "type": "function"
    },
    {
      "inputs": [
        {
          "internalType": "address",
          "name": "forwarder",
          "type": "address"
        }
      ],
      "name": "isTrustedForwarder",
      "outputs": [
        {
          "internalType": "bool",
          "name": "",
          "type": "bool"
        }
      ],
      "stateMutability": "view",
      "type": "function"
    },
    {
      "inputs": [],
      "name": "owner",
      "outputs": [
        {
          "internalType": "address",
          "name": "",
          "type": "address"
        }
      ],
      "stateMutability": "view",
      "type": "function"
    },
    {
      "inputs": [],
      "name": "pause",
      "outputs": [],
      "stateMutability": "nonpayable",
      "type": "function"
    },
    {
      "inputs": [],
      "name": "paused",
      "outputs": [
        {
          "internalType": "bool",
          "name": "",
          "type": "bool"
        }
      ],
      "stateMutability": "view",
      "type": "function"
    },
    {
      "inputs": [],
      "name": "renounceOwnership",
      "outputs": [],
      "stateMutability": "nonpayable",
      "type": "function"
    },
    {
      "inputs": [
        {
          "internalType": "bytes32",
          "name": "",
          "type": "bytes32"
        }
      ],
      "name": "requests",
      "outputs": [
        {
          "internalType": "address",
          "name": "recipient",
          "type": "address"
        },
        {
          "internalType": "address",
          "name": "chain2address",
          "type": "address"
        },
        {
          "internalType": "uint256",
          "name": "amount",
          "type": "uint256"
        },
        {
          "internalType": "address",
          "name": "rtoken",
          "type": "address"
        },
        {
          "internalType": "enum Portal.RequestState",
          "name": "state",
          "type": "uint8"
        }
      ],
      "stateMutability": "view",
      "type": "function"
    },
    {
      "inputs": [
        {
          "internalType": "address",
          "name": "_token",
          "type": "address"
        },
        {
          "internalType": "uint256",
          "name": "_amount",
          "type": "uint256"
        },
        {
          "internalType": "address",
          "name": "_chain2address",
          "type": "address"
        },
        {
          "internalType": "address",
          "name": "_receiveSide",
          "type": "address"
        },
        {
          "internalType": "address",
          "name": "_oppositeBridge",
          "type": "address"
        },
        {
          "internalType": "uint256",
          "name": "_chainID",
          "type": "uint256"
        }
      ],
      "name": "synthesize",
      "outputs": [
        {
          "internalType": "bytes32",
          "name": "txID",
          "type": "bytes32"
        }
      ],
      "stateMutability": "nonpayable",
      "type": "function"
    },
    {
      "inputs": [
        {
          "internalType": "bytes",
          "name": "_approvalData",
          "type": "bytes"
        },
        {
          "internalType": "address",
          "name": "_token",
          "type": "address"
        },
        {
          "internalType": "uint256",
          "name": "_amount",
          "type": "uint256"
        },
        {
          "internalType": "address",
          "name": "_chain2address",
          "type": "address"
        },
        {
          "internalType": "address",
          "name": "_receiveSide",
          "type": "address"
        },
        {
          "internalType": "address",
          "name": "_oppositeBridge",
          "type": "address"
        },
        {
          "internalType": "uint256",
          "name": "_chainID",
          "type": "uint256"
        }
      ],
      "name": "synthesizeWithPermit",
      "outputs": [
        {
          "internalType": "bytes32",
          "name": "txID",
          "type": "bytes32"
        }
      ],
      "stateMutability": "nonpayable",
      "type": "function"
    },
    {
      "inputs": [
        {
          "internalType": "address",
          "name": "newOwner",
          "type": "address"
        }
      ],
      "name": "transferOwnership",
      "outputs": [],
      "stateMutability": "nonpayable",
      "type": "function"
    },
    {
      "inputs": [],
      "name": "unpause",
      "outputs": [],
      "stateMutability": "nonpayable",
      "type": "function"
    },
    {
      "inputs": [
        {
          "internalType": "bytes32",
          "name": "_txID",
          "type": "bytes32"
        },
        {
          "internalType": "address",
          "name": "_token",
          "type": "address"
        },
        {
          "internalType": "uint256",
          "name": "_amount",
          "type": "uint256"
        },
        {
          "internalType": "address",
          "name": "_to",
          "type": "address"
        }
      ],
      "name": "unsynthesize",
      "outputs": [],
      "stateMutability": "nonpayable",
      "type": "function"
    },
    {
      "inputs": [
        {
          "internalType": "bytes32",
          "name": "",
          "type": "bytes32"
        }
      ],
      "name": "unsynthesizeStates",
      "outputs": [
        {
          "internalType": "enum Portal.UnsynthesizeState",
          "name": "",
          "type": "uint8"
        }
      ],
      "stateMutability": "view",
      "type": "function"
    },
    {
      "inputs": [],
      "name": "versionRecipient",
      "outputs": [
        {
          "internalType": "string",
          "name": "",
          "type": "string"
        }
      ],
      "stateMutability": "view",
      "type": "function"
    }
  ],
  "bytecode": "0x608060405234801561001057600080fd5b5061327b806100206000396000f3fe608060405234801561001057600080fd5b50600436106101215760003560e01c80637ac3a7ad116100ad578063a6037a2911610071578063a6037a29146102e6578063e78cea9214610302578063f2fde38b14610320578063fab928941461033c578063fc8958691461036c57610121565b80637ac3a7ad1461023e5780638456cb591461025a5780638da5cb5b146102645780639a1962fb146102825780639d866985146102b257610121565b8063572b6c05116100f4578063572b6c05146101865780635bb8809f146101b65780635c975abb146101e657806370a0823114610204578063715018a61461023457610121565b806308774410146101265780633f4ba83a14610142578063485cc9551461014c578063486ff0cd14610168575b600080fd5b610140600480360381019061013b9190612426565b610388565b005b61014a610448565b005b6101666004803603810190610161919061244f565b6104e1565b005b610170610606565b60405161017d9190612d8f565b60405180910390f35b6101a0600480360381019061019b9190612426565b610643565b6040516101ad9190612cad565b60405180910390f35b6101d060048036038101906101cb919061248b565b61069d565b6040516101dd9190612cc8565b60405180910390f35b6101ee610aab565b6040516101fb9190612cad565b60405180910390f35b61021e60048036038101906102199190612426565b610abe565b60405161022b9190612ed1565b60405180910390f35b61023c610ad6565b005b6102586004803603810190610253919061258f565b610c13565b005b610262610f18565b005b61026c610fb1565b6040516102799190612bdf565b60405180910390f35b61029c60048036038101906102979190612655565b610fdb565b6040516102a99190612cc8565b60405180910390f35b6102cc60048036038101906102c7919061253d565b61149b565b6040516102dd959493929190612c31565b60405180910390f35b61030060048036038101906102fb91906125f2565b61153e565b005b61030a6117d7565b6040516103179190612bdf565b60405180910390f35b61033a60048036038101906103359190612426565b6117fd565b005b6103566004803603810190610351919061253d565b6119a9565b6040516103639190612d74565b60405180910390f35b6103866004803603810190610381919061253d565b6119c9565b005b610390611c63565b73ffffffffffffffffffffffffffffffffffffffff166103ae610fb1565b73ffffffffffffffffffffffffffffffffffffffff1614610404576040517f08c379a00000000000000000000000000000000000000000000000000000000081526004016103fb90612e91565b60405180910390fd5b80606760006101000a81548173ffffffffffffffffffffffffffffffffffffffff021916908373ffffffffffffffffffffffffffffffffffffffff16021790555050565b610450611c63565b73ffffffffffffffffffffffffffffffffffffffff1661046e610fb1565b73ffffffffffffffffffffffffffffffffffffffff16146104c4576040517f08c379a00000000000000000000000000000000000000000000000000000000081526004016104bb90612e91565b60405180910390fd5b6000606960006101000a81548160ff021916908315150217905550565b600060019054906101000a900460ff1680610507575060008054906101000a900460ff16155b610546576040517f08c379a000000000000000000000000000000000000000000000000000000000815260040161053d90612e11565b60405180910390fd5b60008060019054906101000a900460ff161590508015610596576001600060016101000a81548160ff02191690831515021790555060016000806101000a81548160ff0219169083151502179055505b61059f82611c95565b82606760006101000a81548173ffffffffffffffffffffffffffffffffffffffff021916908373ffffffffffffffffffffffffffffffffffffffff16021790555080156106015760008060016101000a81548160ff0219169083151502179055505b505050565b60606040518060400160405280600581526020017f322e302e31000000000000000000000000000000000000000000000000000000815250905090565b6000606560009054906101000a900473ffffffffffffffffffffffffffffffffffffffff1673ffffffffffffffffffffffffffffffffffffffff168273ffffffffffffffffffffffffffffffffffffffff16149050919050565b6000606960009054906101000a900460ff16156106b957600080fd5b6106cc876106c5611c63565b3089611db8565b85606660008973ffffffffffffffffffffffffffffffffffffffff1673ffffffffffffffffffffffffffffffffffffffff168152602001908152602001600020546107179190612f58565b606660008973ffffffffffffffffffffffffffffffffffffffff1673ffffffffffffffffffffffffffffffffffffffff168152602001908152602001600020819055503060685460405160200161076f929190612bb3565b60405160208183030381529060405280519060200120905060006040518060600160405280603381526020016132136033913980519060200120828989896040516024016107c09493929190612ce3565b604051602081830303815290604052907bffffffffffffffffffffffffffffffffffffffffffffffffffffffff19166020820180517bffffffffffffffffffffffffffffffffffffffffffffffffffffffff83818316178352505050509050606760009054906101000a900473ffffffffffffffffffffffffffffffffffffffff1673ffffffffffffffffffffffffffffffffffffffff16636cebc9c2828787876040518563ffffffff1660e01b81526004016108809493929190612d28565b602060405180830381600087803b15801561089a57600080fd5b505af11580156108ae573d6000803e3d6000fd5b505050506040513d601f19601f820116820180604052508101906108d29190612566565b506000606a600084815260200190815260200160002090506108f2611c63565b8160000160006101000a81548173ffffffffffffffffffffffffffffffffffffffff021916908373ffffffffffffffffffffffffffffffffffffffff160217905550868160010160006101000a81548173ffffffffffffffffffffffffffffffffffffffff021916908373ffffffffffffffffffffffffffffffffffffffff160217905550888160030160006101000a81548173ffffffffffffffffffffffffffffffffffffffff021916908373ffffffffffffffffffffffffffffffffffffffff16021790555087816002018190555060018160030160146101000a81548160ff02191690836002811115610a11577f4e487b7100000000000000000000000000000000000000000000000000000000600052602160045260246000fd5b0217905550600160686000828254610a299190612f58565b925050819055508673ffffffffffffffffffffffffffffffffffffffff16610a4f611c63565b73ffffffffffffffffffffffffffffffffffffffff16847f79856ea8bc3d8f5d0a803c32f56f54884a196b09482b11134b6f2a6f6276a0b98b8d604051610a97929190612eec565b60405180910390a450509695505050505050565b606960009054906101000a900460ff1681565b60666020528060005260406000206000915090505481565b610ade611c63565b73ffffffffffffffffffffffffffffffffffffffff16610afc610fb1565b73ffffffffffffffffffffffffffffffffffffffff1614610b52576040517f08c379a0000000000000000000000000000000000000000000000000000000008152600401610b4990612e91565b60405180910390fd5b600073ffffffffffffffffffffffffffffffffffffffff16603360009054906101000a900473ffffffffffffffffffffffffffffffffffffffff1673ffffffffffffffffffffffffffffffffffffffff167f8be0079c531659141344cd1fd0a4f28419497f9722a3daafe3b4186f6b6457e060405160405180910390a36000603360006101000a81548173ffffffffffffffffffffffffffffffffffffffff021916908373ffffffffffffffffffffffffffffffffffffffff160217905550565b606960009054906101000a900460ff1615610c2d57600080fd5b60016002811115610c67577f4e487b7100000000000000000000000000000000000000000000000000000000600052602160045260246000fd5b606b600086815260200190815260200160002060009054906101000a900460ff166002811115610cc0577f4e487b7100000000000000000000000000000000000000000000000000000000600052602160045260246000fd5b1415610d01576040517f08c379a0000000000000000000000000000000000000000000000000000000008152600401610cf890612e71565b60405180910390fd5b6002606b600086815260200190815260200160002060006101000a81548160ff02191690836002811115610d5e577f4e487b7100000000000000000000000000000000000000000000000000000000600052602160045260246000fd5b021790555060006040518060400160405280601881526020017f656d657267656e6379556e6275726e28627974657333322900000000000000008152508051906020012085604051602401610db39190612cc8565b604051602081830303815290604052907bffffffffffffffffffffffffffffffffffffffffffffffffffffffff19166020820180517bffffffffffffffffffffffffffffffffffffffffffffffffffffffff83818316178352505050509050606760009054906101000a900473ffffffffffffffffffffffffffffffffffffffff1673ffffffffffffffffffffffffffffffffffffffff16636cebc9c2828686866040518563ffffffff1660e01b8152600401610e739493929190612d28565b602060405180830381600087803b158015610e8d57600080fd5b505af1158015610ea1573d6000803e3d6000fd5b505050506040513d601f19601f82011682018060405250810190610ec59190612566565b50610ece611c63565b73ffffffffffffffffffffffffffffffffffffffff16857f40590cc12db0488520ce425059f83f8caed91bdf98de5ff829dc57c63843161b60405160405180910390a35050505050565b610f20611c63565b73ffffffffffffffffffffffffffffffffffffffff16610f3e610fb1565b73ffffffffffffffffffffffffffffffffffffffff1614610f94576040517f08c379a0000000000000000000000000000000000000000000000000000000008152600401610f8b90612e91565b60405180910390fd5b6001606960006101000a81548160ff021916908315150217905550565b6000603360009054906101000a900473ffffffffffffffffffffffffffffffffffffffff16905090565b6000606960009054906101000a900460ff1615610ff757600080fd5b60008773ffffffffffffffffffffffffffffffffffffffff168a8a604051611020929190612b83565b6000604051808303816000865af19150503d806000811461105d576040519150601f19603f3d011682016040523d82523d6000602084013e611062565b606091505b50509050806110a6576040517f08c379a000000000000000000000000000000000000000000000000000000000815260040161109d90612df1565b60405180910390fd5b6110b9886110b2611c63565b308a611db8565b86606660008a73ffffffffffffffffffffffffffffffffffffffff1673ffffffffffffffffffffffffffffffffffffffff168152602001908152602001600020546111049190612f58565b606660008a73ffffffffffffffffffffffffffffffffffffffff1673ffffffffffffffffffffffffffffffffffffffff168152602001908152602001600020819055503060685460405160200161115c929190612bb3565b60405160208183030381529060405280519060200120915060006040518060600160405280603381526020016132136033913980519060200120838a8a8a6040516024016111ad9493929190612ce3565b604051602081830303815290604052907bffffffffffffffffffffffffffffffffffffffffffffffffffffffff19166020820180517bffffffffffffffffffffffffffffffffffffffffffffffffffffffff83818316178352505050509050606760009054906101000a900473ffffffffffffffffffffffffffffffffffffffff1673ffffffffffffffffffffffffffffffffffffffff16636cebc9c2828888886040518563ffffffff1660e01b815260040161126d9493929190612d28565b602060405180830381600087803b15801561128757600080fd5b505af115801561129b573d6000803e3d6000fd5b505050506040513d601f19601f820116820180604052508101906112bf9190612566565b506000606a600085815260200190815260200160002090506112df611c63565b8160000160006101000a81548173ffffffffffffffffffffffffffffffffffffffff021916908373ffffffffffffffffffffffffffffffffffffffff160217905550878160010160006101000a81548173ffffffffffffffffffffffffffffffffffffffff021916908373ffffffffffffffffffffffffffffffffffffffff160217905550898160030160006101000a81548173ffffffffffffffffffffffffffffffffffffffff021916908373ffffffffffffffffffffffffffffffffffffffff16021790555088816002018190555060018160030160146101000a81548160ff021916908360028111156113fe577f4e487b7100000000000000000000000000000000000000000000000000000000600052602160045260246000fd5b02179055506001606860008282546114169190612f58565b925050819055508773ffffffffffffffffffffffffffffffffffffffff1661143c611c63565b73ffffffffffffffffffffffffffffffffffffffff16857f79856ea8bc3d8f5d0a803c32f56f54884a196b09482b11134b6f2a6f6276a0b98c8e604051611484929190612eec565b60405180910390a450505098975050505050505050565b606a6020528060005260406000206000915090508060000160009054906101000a900473ffffffffffffffffffffffffffffffffffffffff16908060010160009054906101000a900473ffffffffffffffffffffffffffffffffffffffff16908060020154908060030160009054906101000a900473ffffffffffffffffffffffffffffffffffffffff16908060030160149054906101000a900460ff16905085565b3373ffffffffffffffffffffffffffffffffffffffff16606760009054906101000a900473ffffffffffffffffffffffffffffffffffffffff1673ffffffffffffffffffffffffffffffffffffffff161461159857600080fd5b606960009054906101000a900460ff16156115b257600080fd5b600060028111156115ec577f4e487b7100000000000000000000000000000000000000000000000000000000600052602160045260246000fd5b606b600086815260200190815260200160002060009054906101000a900460ff166002811115611645577f4e487b7100000000000000000000000000000000000000000000000000000000600052602160045260246000fd5b14611685576040517f08c379a000000000000000000000000000000000000000000000000000000000815260040161167c90612e31565b60405180910390fd5b611690838284611ef1565b81606660008573ffffffffffffffffffffffffffffffffffffffff1673ffffffffffffffffffffffffffffffffffffffff168152602001908152602001600020546116db9190612fae565b606660008573ffffffffffffffffffffffffffffffffffffffff1673ffffffffffffffffffffffffffffffffffffffff168152602001908152602001600020819055506001606b600086815260200190815260200160002060006101000a81548160ff0219169083600281111561177b577f4e487b7100000000000000000000000000000000000000000000000000000000600052602160045260246000fd5b02179055508073ffffffffffffffffffffffffffffffffffffffff16847f7d38b66fe45f4596a8e0f6d416747ea22ad1ef15891e9d7c8f848a044be974e084866040516117c9929190612eec565b60405180910390a350505050565b606760009054906101000a900473ffffffffffffffffffffffffffffffffffffffff1681565b611805611c63565b73ffffffffffffffffffffffffffffffffffffffff16611823610fb1565b73ffffffffffffffffffffffffffffffffffffffff1614611879576040517f08c379a000000000000000000000000000000000000000000000000000000000815260040161187090612e91565b60405180910390fd5b600073ffffffffffffffffffffffffffffffffffffffff168173ffffffffffffffffffffffffffffffffffffffff1614156118e9576040517f08c379a00000000000000000000000000000000000000000000000000000000081526004016118e090612dd1565b60405180910390fd5b8073ffffffffffffffffffffffffffffffffffffffff16603360009054906101000a900473ffffffffffffffffffffffffffffffffffffffff1673ffffffffffffffffffffffffffffffffffffffff167f8be0079c531659141344cd1fd0a4f28419497f9722a3daafe3b4186f6b6457e060405160405180910390a380603360006101000a81548173ffffffffffffffffffffffffffffffffffffffff021916908373ffffffffffffffffffffffffffffffffffffffff16021790555050565b606b6020528060005260406000206000915054906101000a900460ff1681565b3373ffffffffffffffffffffffffffffffffffffffff16606760009054906101000a900473ffffffffffffffffffffffffffffffffffffffff1673ffffffffffffffffffffffffffffffffffffffff1614611a2357600080fd5b606960009054906101000a900460ff1615611a3d57600080fd5b6000606a6000838152602001908152602001600020905060016002811115611a8e577f4e487b7100000000000000000000000000000000000000000000000000000000600052602160045260246000fd5b8160030160149054906101000a900460ff166002811115611ad8577f4e487b7100000000000000000000000000000000000000000000000000000000600052602160045260246000fd5b14611b18576040517f08c379a0000000000000000000000000000000000000000000000000000000008152600401611b0f90612e51565b60405180910390fd5b60028160030160146101000a81548160ff02191690836002811115611b66577f4e487b7100000000000000000000000000000000000000000000000000000000600052602160045260246000fd5b0217905550611bc28160030160009054906101000a900473ffffffffffffffffffffffffffffffffffffffff168260000160009054906101000a900473ffffffffffffffffffffffffffffffffffffffff168360020154611ef1565b8060000160009054906101000a900473ffffffffffffffffffffffffffffffffffffffff1673ffffffffffffffffffffffffffffffffffffffff16827f944f1d3ef1c50472b370611627295b06b64eca841d2de116bb7634a08a097ca983600201548460030160009054906101000a900473ffffffffffffffffffffffffffffffffffffffff16604051611c57929190612eec565b60405180910390a35050565b6000611c6e33610643565b15611c8257601436033560601c9050611c91565b611c8a612027565b9050611c92565b5b90565b600060019054906101000a900460ff1680611cbb575060008054906101000a900460ff16155b611cfa576040517f08c379a0000000000000000000000000000000000000000000000000000000008152600401611cf190612e11565b60405180910390fd5b60008060019054906101000a900460ff161590508015611d4a576001600060016101000a81548160ff02191690831515021790555060016000806101000a81548160ff0219169083151502179055505b611d5261202f565b81606560006101000a81548173ffffffffffffffffffffffffffffffffffffffff021916908373ffffffffffffffffffffffffffffffffffffffff1602179055508015611db45760008060016101000a81548160ff0219169083151502179055505b5050565b6000808573ffffffffffffffffffffffffffffffffffffffff166323b872dd868686604051602401611dec93929190612bfa565b6040516020818303038152906040529060e01b6020820180517bffffffffffffffffffffffffffffffffffffffffffffffffffffffff8381831617835250505050604051611e3a9190612b9c565b6000604051808303816000865af19150503d8060008114611e77576040519150601f19603f3d011682016040523d82523d6000602084013e611e7c565b606091505b5091509150818015611eaa5750600081511480611ea9575080806020019051810190611ea89190612514565b5b5b611ee9576040517f08c379a0000000000000000000000000000000000000000000000000000000008152600401611ee090612eb1565b60405180910390fd5b505050505050565b6000808473ffffffffffffffffffffffffffffffffffffffff1663a9059cbb8585604051602401611f23929190612c84565b6040516020818303038152906040529060e01b6020820180517bffffffffffffffffffffffffffffffffffffffffffffffffffffffff8381831617835250505050604051611f719190612b9c565b6000604051808303816000865af19150503d8060008114611fae576040519150601f19603f3d011682016040523d82523d6000602084013e611fb3565b606091505b5091509150818015611fe15750600081511480611fe0575080806020019051810190611fdf9190612514565b5b5b612020576040517f08c379a000000000000000000000000000000000000000000000000000000000815260040161201790612db1565b60405180910390fd5b5050505050565b600033905090565b600060019054906101000a900460ff1680612055575060008054906101000a900460ff16155b612094576040517f08c379a000000000000000000000000000000000000000000000000000000000815260040161208b90612e11565b60405180910390fd5b60008060019054906101000a900460ff1615905080156120e4576001600060016101000a81548160ff02191690831515021790555060016000806101000a81548160ff0219169083151502179055505b6120ec612118565b6120f46121f1565b80156121155760008060016101000a81548160ff0219169083151502179055505b50565b600060019054906101000a900460ff168061213e575060008054906101000a900460ff16155b61217d576040517f08c379a000000000000000000000000000000000000000000000000000000000815260040161217490612e11565b60405180910390fd5b60008060019054906101000a900460ff1615905080156121cd576001600060016101000a81548160ff02191690831515021790555060016000806101000a81548160ff0219169083151502179055505b80156121ee5760008060016101000a81548160ff0219169083151502179055505b50565b600060019054906101000a900460ff1680612217575060008054906101000a900460ff16155b612256576040517f08c379a000000000000000000000000000000000000000000000000000000000815260040161224d90612e11565b60405180910390fd5b60008060019054906101000a900460ff1615905080156122a6576001600060016101000a81548160ff02191690831515021790555060016000806101000a81548160ff0219169083151502179055505b60006122b0611c63565b905080603360006101000a81548173ffffffffffffffffffffffffffffffffffffffff021916908373ffffffffffffffffffffffffffffffffffffffff1602179055508073ffffffffffffffffffffffffffffffffffffffff16600073ffffffffffffffffffffffffffffffffffffffff167f8be0079c531659141344cd1fd0a4f28419497f9722a3daafe3b4186f6b6457e060405160405180910390a35080156123705760008060016101000a81548160ff0219169083151502179055505b50565b600081359050612382816131b6565b92915050565b600081519050612397816131cd565b92915050565b6000813590506123ac816131e4565b92915050565b6000815190506123c1816131e4565b92915050565b60008083601f8401126123d957600080fd5b8235905067ffffffffffffffff8111156123f257600080fd5b60208301915083600182028301111561240a57600080fd5b9250929050565b600081359050612420816131fb565b92915050565b60006020828403121561243857600080fd5b600061244684828501612373565b91505092915050565b6000806040838503121561246257600080fd5b600061247085828601612373565b925050602061248185828601612373565b9150509250929050565b60008060008060008060c087890312156124a457600080fd5b60006124b289828a01612373565b96505060206124c389828a01612411565b95505060406124d489828a01612373565b94505060606124e589828a01612373565b93505060806124f689828a01612373565b92505060a061250789828a01612411565b9150509295509295509295565b60006020828403121561252657600080fd5b600061253484828501612388565b91505092915050565b60006020828403121561254f57600080fd5b600061255d8482850161239d565b91505092915050565b60006020828403121561257857600080fd5b6000612586848285016123b2565b91505092915050565b600080600080608085870312156125a557600080fd5b60006125b38782880161239d565b94505060206125c487828801612373565b93505060406125d587828801612373565b92505060606125e687828801612411565b91505092959194509250565b6000806000806080858703121561260857600080fd5b60006126168782880161239d565b945050602061262787828801612373565b935050604061263887828801612411565b925050606061264987828801612373565b91505092959194509250565b60008060008060008060008060e0898b03121561267157600080fd5b600089013567ffffffffffffffff81111561268b57600080fd5b6126978b828c016123c7565b985098505060206126aa8b828c01612373565b96505060406126bb8b828c01612411565b95505060606126cc8b828c01612373565b94505060806126dd8b828c01612373565b93505060a06126ee8b828c01612373565b92505060c06126ff8b828c01612411565b9150509295985092959890939650565b61271881612fe2565b82525050565b61272781612ff4565b82525050565b61273681613000565b82525050565b60006127488385612f3c565b93506127558385846130a2565b82840190509392505050565b600061276c82612f15565b6127768185612f2b565b93506127868185602086016130b1565b61278f81613170565b840191505092915050565b60006127a582612f15565b6127af8185612f3c565b93506127bf8185602086016130b1565b80840191505092915050565b6127dc6127d78261305a565b6130e4565b82525050565b6127eb8161307e565b82525050565b6127fa81613090565b82525050565b600061280b82612f20565b6128158185612f47565b93506128258185602086016130b1565b61282e81613170565b840191505092915050565b6000612846601f83612f47565b91507f5472616e7366657248656c7065723a205452414e534645525f4641494c4544006000830152602082019050919050565b6000612886602683612f47565b91507f4f776e61626c653a206e6577206f776e657220697320746865207a65726f206160008301527f64647265737300000000000000000000000000000000000000000000000000006020830152604082019050919050565b60006128ec601383612f47565b91507f417070726f76652063616c6c206661696c6564000000000000000000000000006000830152602082019050919050565b600061292c602e83612f47565b91507f496e697469616c697a61626c653a20636f6e747261637420697320616c72656160008301527f647920696e697469616c697a65640000000000000000000000000000000000006020830152604082019050919050565b6000612992602783612f47565b91507f506f7274616c3a2073796e746174696320746f6b656e7320656d657267656e6360008301527f79556e6275726e000000000000000000000000000000000000000000000000006020830152604082019050919050565b60006129f8602a83612f47565b91507f506f7274616c3a7374617465206e6f74206f70656e206f7220747820646f657360008301527f206e6f74206578697374000000000000000000000000000000000000000000006020830152604082019050919050565b6000612a5e602683612f47565b91507f506f7274616c3a205265616c20746f6b656e7320616c7265616479207472616e60008301527f73666572656400000000000000000000000000000000000000000000000000006020830152604082019050919050565b6000612ac4602083612f47565b91507f4f776e61626c653a2063616c6c6572206973206e6f7420746865206f776e65726000830152602082019050919050565b6000612b04602483612f47565b91507f5472616e7366657248656c7065723a205452414e534645525f46524f4d5f464160008301527f494c4544000000000000000000000000000000000000000000000000000000006020830152604082019050919050565b612b6681613050565b82525050565b612b7d612b7882613050565b613108565b82525050565b6000612b9082848661273c565b91508190509392505050565b6000612ba8828461279a565b915081905092915050565b6000612bbf82856127cb565b601482019150612bcf8284612b6c565b6020820191508190509392505050565b6000602082019050612bf4600083018461270f565b92915050565b6000606082019050612c0f600083018661270f565b612c1c602083018561270f565b612c296040830184612b5d565b949350505050565b600060a082019050612c46600083018861270f565b612c53602083018761270f565b612c606040830186612b5d565b612c6d606083018561270f565b612c7a60808301846127e2565b9695505050505050565b6000604082019050612c99600083018561270f565b612ca66020830184612b5d565b9392505050565b6000602082019050612cc2600083018461271e565b92915050565b6000602082019050612cdd600083018461272d565b92915050565b6000608082019050612cf8600083018761272d565b612d05602083018661270f565b612d126040830185612b5d565b612d1f606083018461270f565b95945050505050565b60006080820190508181036000830152612d428187612761565b9050612d51602083018661270f565b612d5e604083018561270f565b612d6b6060830184612b5d565b95945050505050565b6000602082019050612d8960008301846127f1565b92915050565b60006020820190508181036000830152612da98184612800565b905092915050565b60006020820190508181036000830152612dca81612839565b9050919050565b60006020820190508181036000830152612dea81612879565b9050919050565b60006020820190508181036000830152612e0a816128df565b9050919050565b60006020820190508181036000830152612e2a8161291f565b9050919050565b60006020820190508181036000830152612e4a81612985565b9050919050565b60006020820190508181036000830152612e6a816129eb565b9050919050565b60006020820190508181036000830152612e8a81612a51565b9050919050565b60006020820190508181036000830152612eaa81612ab7565b9050919050565b60006020820190508181036000830152612eca81612af7565b9050919050565b6000602082019050612ee66000830184612b5d565b92915050565b6000604082019050612f016000830185612b5d565b612f0e602083018461270f565b9392505050565b600081519050919050565b600081519050919050565b600082825260208201905092915050565b600081905092915050565b600082825260208201905092915050565b6000612f6382613050565b9150612f6e83613050565b9250827fffffffffffffffffffffffffffffffffffffffffffffffffffffffffffffffff03821115612fa357612fa2613112565b5b828201905092915050565b6000612fb982613050565b9150612fc483613050565b925082821015612fd757612fd6613112565b5b828203905092915050565b6000612fed82613030565b9050919050565b60008115159050919050565b6000819050919050565b60008190506130188261318e565b919050565b600081905061302b826131a2565b919050565b600073ffffffffffffffffffffffffffffffffffffffff82169050919050565b6000819050919050565b60006130658261306c565b9050919050565b600061307782613030565b9050919050565b60006130898261300a565b9050919050565b600061309b8261301d565b9050919050565b82818337600083830152505050565b60005b838110156130cf5780820151818401526020810190506130b4565b838111156130de576000848401525b50505050565b60006130ef826130f6565b9050919050565b600061310182613181565b9050919050565b6000819050919050565b7f4e487b7100000000000000000000000000000000000000000000000000000000600052601160045260246000fd5b7f4e487b7100000000000000000000000000000000000000000000000000000000600052602160045260246000fd5b6000601f19601f8301169050919050565b60008160601b9050919050565b6003811061319f5761319e613141565b5b50565b600381106131b3576131b2613141565b5b50565b6131bf81612fe2565b81146131ca57600080fd5b50565b6131d681612ff4565b81146131e157600080fd5b50565b6131ed81613000565b81146131f857600080fd5b50565b61320481613050565b811461320f57600080fd5b5056fe6d696e7453796e746865746963546f6b656e28627974657333322c616464726573732c75696e743235362c6164647265737329a2646970667358221220c5988ea46e77491dcfcade4d85797598b168ac14ce0d1da88bbcd914bbb74c1d64736f6c63430008000033",
  "linkReferences": {},
  "deployedLinkReferences": {}
}