{
  "_format": "hh-sol-artifact-1",
  "contractName": "Portal",
  "sourceName": "contracts/Portal.sol",
  "abi": [
    {
      "anonymous": false,
      "inputs": [
        {
          "indexed": true,
          "internalType": "bytes32",
          "name": "_id",
          "type": "bytes32"
        },
        {
          "indexed": true,
          "internalType": "address",
          "name": "_to",
          "type": "address"
        },
        {
          "indexed": false,
          "internalType": "uint256",
          "name": "_amount",
          "type": "uint256"
        },
        {
          "indexed": false,
          "internalType": "address",
          "name": "_token",
          "type": "address"
        }
      ],
      "name": "BurnCompleted",
      "type": "event"
    },
    {
      "anonymous": false,
      "inputs": [
        {
          "indexed": true,
          "internalType": "address",
          "name": "previousOwner",
          "type": "address"
        },
        {
          "indexed": true,
          "internalType": "address",
          "name": "newOwner",
          "type": "address"
        }
      ],
      "name": "OwnershipTransferred",
      "type": "event"
    },
    {
      "anonymous": false,
      "inputs": [
        {
          "indexed": true,
          "internalType": "bytes32",
          "name": "_id",
          "type": "bytes32"
        },
        {
          "indexed": true,
          "internalType": "address",
          "name": "_to",
          "type": "address"
        }
      ],
      "name": "RevertBurnRequest",
      "type": "event"
    },
    {
      "anonymous": false,
      "inputs": [
        {
          "indexed": true,
          "internalType": "bytes32",
          "name": "_id",
          "type": "bytes32"
        },
        {
          "indexed": true,
          "internalType": "address",
          "name": "_to",
          "type": "address"
        },
        {
          "indexed": false,
          "internalType": "uint256",
          "name": "_amount",
          "type": "uint256"
        },
        {
          "indexed": false,
          "internalType": "address",
          "name": "_token",
          "type": "address"
        }
      ],
      "name": "RevertSynthesizeCompleted",
      "type": "event"
    },
    {
      "anonymous": false,
      "inputs": [
        {
          "indexed": true,
          "internalType": "bytes32",
          "name": "_id",
          "type": "bytes32"
        },
        {
          "indexed": true,
          "internalType": "address",
          "name": "_from",
          "type": "address"
        },
        {
          "indexed": true,
          "internalType": "address",
          "name": "_to",
          "type": "address"
        },
        {
          "indexed": false,
          "internalType": "uint256",
          "name": "_amount",
          "type": "uint256"
        },
        {
          "indexed": false,
          "internalType": "address",
          "name": "_token",
          "type": "address"
        }
      ],
      "name": "SynthesizeRequest",
      "type": "event"
    },
    {
      "inputs": [
        {
          "internalType": "address",
          "name": "",
          "type": "address"
        }
      ],
      "name": "balanceOf",
      "outputs": [
        {
          "internalType": "uint256",
          "name": "",
          "type": "uint256"
        }
      ],
      "stateMutability": "view",
      "type": "function"
    },
    {
      "inputs": [],
      "name": "bridge",
      "outputs": [
        {
          "internalType": "address",
          "name": "",
          "type": "address"
        }
      ],
      "stateMutability": "view",
      "type": "function"
    },
    {
      "inputs": [
        {
          "internalType": "address",
          "name": "_bridge",
          "type": "address"
        }
      ],
      "name": "changeBridge",
      "outputs": [],
      "stateMutability": "nonpayable",
      "type": "function"
    },
    {
      "inputs": [
        {
          "internalType": "bytes32",
          "name": "_txID",
          "type": "bytes32"
        },
        {
          "internalType": "address",
          "name": "_receiveSide",
          "type": "address"
        },
        {
          "internalType": "address",
          "name": "_oppositeBridge",
          "type": "address"
        },
        {
          "internalType": "uint256",
          "name": "_chainId",
          "type": "uint256"
        }
      ],
      "name": "emergencyUnburnRequest",
      "outputs": [],
      "stateMutability": "nonpayable",
      "type": "function"
    },
    {
      "inputs": [
        {
          "internalType": "bytes32",
          "name": "_txID",
          "type": "bytes32"
        }
      ],
      "name": "emergencyUnsynthesize",
      "outputs": [],
      "stateMutability": "nonpayable",
      "type": "function"
    },
    {
      "inputs": [
        {
          "internalType": "address",
          "name": "_bridge",
          "type": "address"
        },
        {
          "internalType": "address",
          "name": "_trustedForwarder",
          "type": "address"
        }
      ],
      "name": "initialize",
      "outputs": [],
      "stateMutability": "nonpayable",
      "type": "function"
    },
    {
      "inputs": [
        {
          "internalType": "address",
          "name": "forwarder",
          "type": "address"
        }
      ],
      "name": "isTrustedForwarder",
      "outputs": [
        {
          "internalType": "bool",
          "name": "",
          "type": "bool"
        }
      ],
      "stateMutability": "view",
      "type": "function"
    },
    {
      "inputs": [],
      "name": "owner",
      "outputs": [
        {
          "internalType": "address",
          "name": "",
          "type": "address"
        }
      ],
      "stateMutability": "view",
      "type": "function"
    },
    {
      "inputs": [],
      "name": "pause",
      "outputs": [],
      "stateMutability": "nonpayable",
      "type": "function"
    },
    {
      "inputs": [],
      "name": "paused",
      "outputs": [
        {
          "internalType": "bool",
          "name": "",
          "type": "bool"
        }
      ],
      "stateMutability": "view",
      "type": "function"
    },
    {
      "inputs": [],
      "name": "renounceOwnership",
      "outputs": [],
      "stateMutability": "nonpayable",
      "type": "function"
    },
    {
      "inputs": [
        {
          "internalType": "bytes32",
          "name": "",
          "type": "bytes32"
        }
      ],
      "name": "requests",
      "outputs": [
        {
          "internalType": "address",
          "name": "recipient",
          "type": "address"
        },
        {
          "internalType": "address",
          "name": "chain2address",
          "type": "address"
        },
        {
          "internalType": "uint256",
          "name": "amount",
          "type": "uint256"
        },
        {
          "internalType": "address",
          "name": "rtoken",
          "type": "address"
        },
        {
          "internalType": "enum Portal.RequestState",
          "name": "state",
          "type": "uint8"
        }
      ],
      "stateMutability": "view",
      "type": "function"
    },
    {
      "inputs": [
        {
          "internalType": "address",
          "name": "_token",
          "type": "address"
        },
        {
          "internalType": "uint256",
          "name": "_amount",
          "type": "uint256"
        },
        {
          "internalType": "address",
          "name": "_chain2address",
          "type": "address"
        },
        {
          "internalType": "address",
          "name": "_receiveSide",
          "type": "address"
        },
        {
          "internalType": "address",
          "name": "_oppositeBridge",
          "type": "address"
        },
        {
          "internalType": "uint256",
          "name": "_chainID",
          "type": "uint256"
        }
      ],
      "name": "synthesize",
      "outputs": [
        {
          "internalType": "bytes32",
          "name": "txID",
          "type": "bytes32"
        }
      ],
      "stateMutability": "nonpayable",
      "type": "function"
    },
    {
      "inputs": [
        {
          "internalType": "bytes",
          "name": "_approvalData",
          "type": "bytes"
        },
        {
          "internalType": "address",
          "name": "_token",
          "type": "address"
        },
        {
          "internalType": "uint256",
          "name": "_amount",
          "type": "uint256"
        },
        {
          "internalType": "address",
          "name": "_chain2address",
          "type": "address"
        },
        {
          "internalType": "address",
          "name": "_receiveSide",
          "type": "address"
        },
        {
          "internalType": "address",
          "name": "_oppositeBridge",
          "type": "address"
        },
        {
          "internalType": "uint256",
          "name": "_chainID",
          "type": "uint256"
        }
      ],
      "name": "synthesizeWithPermit",
      "outputs": [
        {
          "internalType": "bytes32",
          "name": "txID",
          "type": "bytes32"
        }
      ],
      "stateMutability": "nonpayable",
      "type": "function"
    },
    {
      "inputs": [
        {
          "internalType": "address",
          "name": "newOwner",
          "type": "address"
        }
      ],
      "name": "transferOwnership",
      "outputs": [],
      "stateMutability": "nonpayable",
      "type": "function"
    },
    {
      "inputs": [],
      "name": "unpause",
      "outputs": [],
      "stateMutability": "nonpayable",
      "type": "function"
    },
    {
      "inputs": [
        {
          "internalType": "bytes32",
          "name": "_txID",
          "type": "bytes32"
        },
        {
          "internalType": "address",
          "name": "_token",
          "type": "address"
        },
        {
          "internalType": "uint256",
          "name": "_amount",
          "type": "uint256"
        },
        {
          "internalType": "address",
          "name": "_to",
          "type": "address"
        }
      ],
      "name": "unsynthesize",
      "outputs": [],
      "stateMutability": "nonpayable",
      "type": "function"
    },
    {
      "inputs": [
        {
          "internalType": "bytes32",
          "name": "",
          "type": "bytes32"
        }
      ],
      "name": "unsynthesizeStates",
      "outputs": [
        {
          "internalType": "enum Portal.UnsynthesizeState",
          "name": "",
          "type": "uint8"
        }
      ],
      "stateMutability": "view",
      "type": "function"
    },
    {
      "inputs": [],
      "name": "versionRecipient",
      "outputs": [
        {
          "internalType": "string",
          "name": "",
          "type": "string"
        }
      ],
      "stateMutability": "view",
      "type": "function"
    }
  ],
  "bytecode": "0x608060405234801561001057600080fd5b50613292806100206000396000f3fe608060405234801561001057600080fd5b50600436106101215760003560e01c80637ac3a7ad116100ad578063a6037a2911610071578063a6037a29146102e6578063e78cea9214610302578063f2fde38b14610320578063fab928941461033c578063fc8958691461036c57610121565b80637ac3a7ad1461023e5780638456cb591461025a5780638da5cb5b146102645780639a1962fb146102825780639d866985146102b257610121565b8063572b6c05116100f4578063572b6c05146101865780635bb8809f146101b65780635c975abb146101e657806370a0823114610204578063715018a61461023457610121565b806308774410146101265780633f4ba83a14610142578063485cc9551461014c578063486ff0cd14610168575b600080fd5b610140600480360381019061013b919061242a565b610388565b005b61014a610448565b005b61016660048036038101906101619190612453565b6104e1565b005b610170610606565b60405161017d9190612da1565b60405180910390f35b6101a0600480360381019061019b919061242a565b610643565b6040516101ad9190612cb1565b60405180910390f35b6101d060048036038101906101cb919061248f565b61069d565b6040516101dd9190612ccc565b60405180910390f35b6101ee610aad565b6040516101fb9190612cb1565b60405180910390f35b61021e6004803603810190610219919061242a565b610ac0565b60405161022b9190612ee3565b60405180910390f35b61023c610ad8565b005b61025860048036038101906102539190612593565b610c15565b005b610262610f1a565b005b61026c610fb3565b6040516102799190612be3565b60405180910390f35b61029c60048036038101906102979190612659565b610fdd565b6040516102a99190612ccc565b60405180910390f35b6102cc60048036038101906102c79190612541565b61149f565b6040516102dd959493929190612c35565b60405180910390f35b61030060048036038101906102fb91906125f6565b611542565b005b61030a6117db565b6040516103179190612be3565b60405180910390f35b61033a6004803603810190610335919061242a565b611801565b005b61035660048036038101906103519190612541565b6119ad565b6040516103639190612d86565b60405180910390f35b61038660048036038101906103819190612541565b6119cd565b005b610390611c67565b73ffffffffffffffffffffffffffffffffffffffff166103ae610fb3565b73ffffffffffffffffffffffffffffffffffffffff1614610404576040517f08c379a00000000000000000000000000000000000000000000000000000000081526004016103fb90612ea3565b60405180910390fd5b80606760006101000a81548173ffffffffffffffffffffffffffffffffffffffff021916908373ffffffffffffffffffffffffffffffffffffffff16021790555050565b610450611c67565b73ffffffffffffffffffffffffffffffffffffffff1661046e610fb3565b73ffffffffffffffffffffffffffffffffffffffff16146104c4576040517f08c379a00000000000000000000000000000000000000000000000000000000081526004016104bb90612ea3565b60405180910390fd5b6000606960006101000a81548160ff021916908315150217905550565b600060019054906101000a900460ff1680610507575060008054906101000a900460ff16155b610546576040517f08c379a000000000000000000000000000000000000000000000000000000000815260040161053d90612e23565b60405180910390fd5b60008060019054906101000a900460ff161590508015610596576001600060016101000a81548160ff02191690831515021790555060016000806101000a81548160ff0219169083151502179055505b61059f82611c99565b82606760006101000a81548173ffffffffffffffffffffffffffffffffffffffff021916908373ffffffffffffffffffffffffffffffffffffffff16021790555080156106015760008060016101000a81548160ff0219169083151502179055505b505050565b60606040518060400160405280600581526020017f322e302e31000000000000000000000000000000000000000000000000000000815250905090565b6000606560009054906101000a900473ffffffffffffffffffffffffffffffffffffffff1673ffffffffffffffffffffffffffffffffffffffff168273ffffffffffffffffffffffffffffffffffffffff16149050919050565b6000606960009054906101000a900460ff16156106b957600080fd5b6106cc876106c5611c67565b3089611dbc565b85606660008973ffffffffffffffffffffffffffffffffffffffff1673ffffffffffffffffffffffffffffffffffffffff168152602001908152602001600020546107179190612f6a565b606660008973ffffffffffffffffffffffffffffffffffffffff1673ffffffffffffffffffffffffffffffffffffffff168152602001908152602001600020819055503060685460405160200161076f929190612bb7565b604051602081830303815290604052805190602001209050600060405180606001604052806038815260200161322560389139805190602001208289468a8a6040516024016107c2959493929190612ce7565b604051602081830303815290604052907bffffffffffffffffffffffffffffffffffffffffffffffffffffffff19166020820180517bffffffffffffffffffffffffffffffffffffffffffffffffffffffff83818316178352505050509050606760009054906101000a900473ffffffffffffffffffffffffffffffffffffffff1673ffffffffffffffffffffffffffffffffffffffff16636cebc9c2828787876040518563ffffffff1660e01b81526004016108829493929190612d3a565b602060405180830381600087803b15801561089c57600080fd5b505af11580156108b0573d6000803e3d6000fd5b505050506040513d601f19601f820116820180604052508101906108d4919061256a565b506000606a600084815260200190815260200160002090506108f4611c67565b8160000160006101000a81548173ffffffffffffffffffffffffffffffffffffffff021916908373ffffffffffffffffffffffffffffffffffffffff160217905550868160010160006101000a81548173ffffffffffffffffffffffffffffffffffffffff021916908373ffffffffffffffffffffffffffffffffffffffff160217905550888160030160006101000a81548173ffffffffffffffffffffffffffffffffffffffff021916908373ffffffffffffffffffffffffffffffffffffffff16021790555087816002018190555060018160030160146101000a81548160ff02191690836002811115610a13577f4e487b7100000000000000000000000000000000000000000000000000000000600052602160045260246000fd5b0217905550600160686000828254610a2b9190612f6a565b925050819055508673ffffffffffffffffffffffffffffffffffffffff16610a51611c67565b73ffffffffffffffffffffffffffffffffffffffff16847f79856ea8bc3d8f5d0a803c32f56f54884a196b09482b11134b6f2a6f6276a0b98b8d604051610a99929190612efe565b60405180910390a450509695505050505050565b606960009054906101000a900460ff1681565b60666020528060005260406000206000915090505481565b610ae0611c67565b73ffffffffffffffffffffffffffffffffffffffff16610afe610fb3565b73ffffffffffffffffffffffffffffffffffffffff1614610b54576040517f08c379a0000000000000000000000000000000000000000000000000000000008152600401610b4b90612ea3565b60405180910390fd5b600073ffffffffffffffffffffffffffffffffffffffff16603360009054906101000a900473ffffffffffffffffffffffffffffffffffffffff1673ffffffffffffffffffffffffffffffffffffffff167f8be0079c531659141344cd1fd0a4f28419497f9722a3daafe3b4186f6b6457e060405160405180910390a36000603360006101000a81548173ffffffffffffffffffffffffffffffffffffffff021916908373ffffffffffffffffffffffffffffffffffffffff160217905550565b606960009054906101000a900460ff1615610c2f57600080fd5b60016002811115610c69577f4e487b7100000000000000000000000000000000000000000000000000000000600052602160045260246000fd5b606b600086815260200190815260200160002060009054906101000a900460ff166002811115610cc2577f4e487b7100000000000000000000000000000000000000000000000000000000600052602160045260246000fd5b1415610d03576040517f08c379a0000000000000000000000000000000000000000000000000000000008152600401610cfa90612e83565b60405180910390fd5b6002606b600086815260200190815260200160002060006101000a81548160ff02191690836002811115610d60577f4e487b7100000000000000000000000000000000000000000000000000000000600052602160045260246000fd5b021790555060006040518060400160405280601881526020017f656d657267656e6379556e6275726e28627974657333322900000000000000008152508051906020012085604051602401610db59190612ccc565b604051602081830303815290604052907bffffffffffffffffffffffffffffffffffffffffffffffffffffffff19166020820180517bffffffffffffffffffffffffffffffffffffffffffffffffffffffff83818316178352505050509050606760009054906101000a900473ffffffffffffffffffffffffffffffffffffffff1673ffffffffffffffffffffffffffffffffffffffff16636cebc9c2828686866040518563ffffffff1660e01b8152600401610e759493929190612d3a565b602060405180830381600087803b158015610e8f57600080fd5b505af1158015610ea3573d6000803e3d6000fd5b505050506040513d601f19601f82011682018060405250810190610ec7919061256a565b50610ed0611c67565b73ffffffffffffffffffffffffffffffffffffffff16857f40590cc12db0488520ce425059f83f8caed91bdf98de5ff829dc57c63843161b60405160405180910390a35050505050565b610f22611c67565b73ffffffffffffffffffffffffffffffffffffffff16610f40610fb3565b73ffffffffffffffffffffffffffffffffffffffff1614610f96576040517f08c379a0000000000000000000000000000000000000000000000000000000008152600401610f8d90612ea3565b60405180910390fd5b6001606960006101000a81548160ff021916908315150217905550565b6000603360009054906101000a900473ffffffffffffffffffffffffffffffffffffffff16905090565b6000606960009054906101000a900460ff1615610ff957600080fd5b60008773ffffffffffffffffffffffffffffffffffffffff168a8a604051611022929190612b87565b6000604051808303816000865af19150503d806000811461105f576040519150601f19603f3d011682016040523d82523d6000602084013e611064565b606091505b50509050806110a8576040517f08c379a000000000000000000000000000000000000000000000000000000000815260040161109f90612e03565b60405180910390fd5b6110bb886110b4611c67565b308a611dbc565b86606660008a73ffffffffffffffffffffffffffffffffffffffff1673ffffffffffffffffffffffffffffffffffffffff168152602001908152602001600020546111069190612f6a565b606660008a73ffffffffffffffffffffffffffffffffffffffff1673ffffffffffffffffffffffffffffffffffffffff168152602001908152602001600020819055503060685460405160200161115e929190612bb7565b60405160208183030381529060405280519060200120915060006040518060600160405280603881526020016132256038913980519060200120838a468b8b6040516024016111b1959493929190612ce7565b604051602081830303815290604052907bffffffffffffffffffffffffffffffffffffffffffffffffffffffff19166020820180517bffffffffffffffffffffffffffffffffffffffffffffffffffffffff83818316178352505050509050606760009054906101000a900473ffffffffffffffffffffffffffffffffffffffff1673ffffffffffffffffffffffffffffffffffffffff16636cebc9c2828888886040518563ffffffff1660e01b81526004016112719493929190612d3a565b602060405180830381600087803b15801561128b57600080fd5b505af115801561129f573d6000803e3d6000fd5b505050506040513d601f19601f820116820180604052508101906112c3919061256a565b506000606a600085815260200190815260200160002090506112e3611c67565b8160000160006101000a81548173ffffffffffffffffffffffffffffffffffffffff021916908373ffffffffffffffffffffffffffffffffffffffff160217905550878160010160006101000a81548173ffffffffffffffffffffffffffffffffffffffff021916908373ffffffffffffffffffffffffffffffffffffffff160217905550898160030160006101000a81548173ffffffffffffffffffffffffffffffffffffffff021916908373ffffffffffffffffffffffffffffffffffffffff16021790555088816002018190555060018160030160146101000a81548160ff02191690836002811115611402577f4e487b7100000000000000000000000000000000000000000000000000000000600052602160045260246000fd5b021790555060016068600082825461141a9190612f6a565b925050819055508773ffffffffffffffffffffffffffffffffffffffff16611440611c67565b73ffffffffffffffffffffffffffffffffffffffff16857f79856ea8bc3d8f5d0a803c32f56f54884a196b09482b11134b6f2a6f6276a0b98c8e604051611488929190612efe565b60405180910390a450505098975050505050505050565b606a6020528060005260406000206000915090508060000160009054906101000a900473ffffffffffffffffffffffffffffffffffffffff16908060010160009054906101000a900473ffffffffffffffffffffffffffffffffffffffff16908060020154908060030160009054906101000a900473ffffffffffffffffffffffffffffffffffffffff16908060030160149054906101000a900460ff16905085565b3373ffffffffffffffffffffffffffffffffffffffff16606760009054906101000a900473ffffffffffffffffffffffffffffffffffffffff1673ffffffffffffffffffffffffffffffffffffffff161461159c57600080fd5b606960009054906101000a900460ff16156115b657600080fd5b600060028111156115f0577f4e487b7100000000000000000000000000000000000000000000000000000000600052602160045260246000fd5b606b600086815260200190815260200160002060009054906101000a900460ff166002811115611649577f4e487b7100000000000000000000000000000000000000000000000000000000600052602160045260246000fd5b14611689576040517f08c379a000000000000000000000000000000000000000000000000000000000815260040161168090612e43565b60405180910390fd5b611694838284611ef5565b81606660008573ffffffffffffffffffffffffffffffffffffffff1673ffffffffffffffffffffffffffffffffffffffff168152602001908152602001600020546116df9190612fc0565b606660008573ffffffffffffffffffffffffffffffffffffffff1673ffffffffffffffffffffffffffffffffffffffff168152602001908152602001600020819055506001606b600086815260200190815260200160002060006101000a81548160ff0219169083600281111561177f577f4e487b7100000000000000000000000000000000000000000000000000000000600052602160045260246000fd5b02179055508073ffffffffffffffffffffffffffffffffffffffff16847f7d38b66fe45f4596a8e0f6d416747ea22ad1ef15891e9d7c8f848a044be974e084866040516117cd929190612efe565b60405180910390a350505050565b606760009054906101000a900473ffffffffffffffffffffffffffffffffffffffff1681565b611809611c67565b73ffffffffffffffffffffffffffffffffffffffff16611827610fb3565b73ffffffffffffffffffffffffffffffffffffffff161461187d576040517f08c379a000000000000000000000000000000000000000000000000000000000815260040161187490612ea3565b60405180910390fd5b600073ffffffffffffffffffffffffffffffffffffffff168173ffffffffffffffffffffffffffffffffffffffff1614156118ed576040517f08c379a00000000000000000000000000000000000000000000000000000000081526004016118e490612de3565b60405180910390fd5b8073ffffffffffffffffffffffffffffffffffffffff16603360009054906101000a900473ffffffffffffffffffffffffffffffffffffffff1673ffffffffffffffffffffffffffffffffffffffff167f8be0079c531659141344cd1fd0a4f28419497f9722a3daafe3b4186f6b6457e060405160405180910390a380603360006101000a81548173ffffffffffffffffffffffffffffffffffffffff021916908373ffffffffffffffffffffffffffffffffffffffff16021790555050565b606b6020528060005260406000206000915054906101000a900460ff1681565b3373ffffffffffffffffffffffffffffffffffffffff16606760009054906101000a900473ffffffffffffffffffffffffffffffffffffffff1673ffffffffffffffffffffffffffffffffffffffff1614611a2757600080fd5b606960009054906101000a900460ff1615611a4157600080fd5b6000606a6000838152602001908152602001600020905060016002811115611a92577f4e487b7100000000000000000000000000000000000000000000000000000000600052602160045260246000fd5b8160030160149054906101000a900460ff166002811115611adc577f4e487b7100000000000000000000000000000000000000000000000000000000600052602160045260246000fd5b14611b1c576040517f08c379a0000000000000000000000000000000000000000000000000000000008152600401611b1390612e63565b60405180910390fd5b60028160030160146101000a81548160ff02191690836002811115611b6a577f4e487b7100000000000000000000000000000000000000000000000000000000600052602160045260246000fd5b0217905550611bc68160030160009054906101000a900473ffffffffffffffffffffffffffffffffffffffff168260000160009054906101000a900473ffffffffffffffffffffffffffffffffffffffff168360020154611ef5565b8060000160009054906101000a900473ffffffffffffffffffffffffffffffffffffffff1673ffffffffffffffffffffffffffffffffffffffff16827f944f1d3ef1c50472b370611627295b06b64eca841d2de116bb7634a08a097ca983600201548460030160009054906101000a900473ffffffffffffffffffffffffffffffffffffffff16604051611c5b929190612efe565b60405180910390a35050565b6000611c7233610643565b15611c8657601436033560601c9050611c95565b611c8e61202b565b9050611c96565b5b90565b600060019054906101000a900460ff1680611cbf575060008054906101000a900460ff16155b611cfe576040517f08c379a0000000000000000000000000000000000000000000000000000000008152600401611cf590612e23565b60405180910390fd5b60008060019054906101000a900460ff161590508015611d4e576001600060016101000a81548160ff02191690831515021790555060016000806101000a81548160ff0219169083151502179055505b611d56612033565b81606560006101000a81548173ffffffffffffffffffffffffffffffffffffffff021916908373ffffffffffffffffffffffffffffffffffffffff1602179055508015611db85760008060016101000a81548160ff0219169083151502179055505b5050565b6000808573ffffffffffffffffffffffffffffffffffffffff166323b872dd868686604051602401611df093929190612bfe565b6040516020818303038152906040529060e01b6020820180517bffffffffffffffffffffffffffffffffffffffffffffffffffffffff8381831617835250505050604051611e3e9190612ba0565b6000604051808303816000865af19150503d8060008114611e7b576040519150601f19603f3d011682016040523d82523d6000602084013e611e80565b606091505b5091509150818015611eae5750600081511480611ead575080806020019051810190611eac9190612518565b5b5b611eed576040517f08c379a0000000000000000000000000000000000000000000000000000000008152600401611ee490612ec3565b60405180910390fd5b505050505050565b6000808473ffffffffffffffffffffffffffffffffffffffff1663a9059cbb8585604051602401611f27929190612c88565b6040516020818303038152906040529060e01b6020820180517bffffffffffffffffffffffffffffffffffffffffffffffffffffffff8381831617835250505050604051611f759190612ba0565b6000604051808303816000865af19150503d8060008114611fb2576040519150601f19603f3d011682016040523d82523d6000602084013e611fb7565b606091505b5091509150818015611fe55750600081511480611fe4575080806020019051810190611fe39190612518565b5b5b612024576040517f08c379a000000000000000000000000000000000000000000000000000000000815260040161201b90612dc3565b60405180910390fd5b5050505050565b600033905090565b600060019054906101000a900460ff1680612059575060008054906101000a900460ff16155b612098576040517f08c379a000000000000000000000000000000000000000000000000000000000815260040161208f90612e23565b60405180910390fd5b60008060019054906101000a900460ff1615905080156120e8576001600060016101000a81548160ff02191690831515021790555060016000806101000a81548160ff0219169083151502179055505b6120f061211c565b6120f86121f5565b80156121195760008060016101000a81548160ff0219169083151502179055505b50565b600060019054906101000a900460ff1680612142575060008054906101000a900460ff16155b612181576040517f08c379a000000000000000000000000000000000000000000000000000000000815260040161217890612e23565b60405180910390fd5b60008060019054906101000a900460ff1615905080156121d1576001600060016101000a81548160ff02191690831515021790555060016000806101000a81548160ff0219169083151502179055505b80156121f25760008060016101000a81548160ff0219169083151502179055505b50565b600060019054906101000a900460ff168061221b575060008054906101000a900460ff16155b61225a576040517f08c379a000000000000000000000000000000000000000000000000000000000815260040161225190612e23565b60405180910390fd5b60008060019054906101000a900460ff1615905080156122aa576001600060016101000a81548160ff02191690831515021790555060016000806101000a81548160ff0219169083151502179055505b60006122b4611c67565b905080603360006101000a81548173ffffffffffffffffffffffffffffffffffffffff021916908373ffffffffffffffffffffffffffffffffffffffff1602179055508073ffffffffffffffffffffffffffffffffffffffff16600073ffffffffffffffffffffffffffffffffffffffff167f8be0079c531659141344cd1fd0a4f28419497f9722a3daafe3b4186f6b6457e060405160405180910390a35080156123745760008060016101000a81548160ff0219169083151502179055505b50565b600081359050612386816131c8565b92915050565b60008151905061239b816131df565b92915050565b6000813590506123b0816131f6565b92915050565b6000815190506123c5816131f6565b92915050565b60008083601f8401126123dd57600080fd5b8235905067ffffffffffffffff8111156123f657600080fd5b60208301915083600182028301111561240e57600080fd5b9250929050565b6000813590506124248161320d565b92915050565b60006020828403121561243c57600080fd5b600061244a84828501612377565b91505092915050565b6000806040838503121561246657600080fd5b600061247485828601612377565b925050602061248585828601612377565b9150509250929050565b60008060008060008060c087890312156124a857600080fd5b60006124b689828a01612377565b96505060206124c789828a01612415565b95505060406124d889828a01612377565b94505060606124e989828a01612377565b93505060806124fa89828a01612377565b92505060a061250b89828a01612415565b9150509295509295509295565b60006020828403121561252a57600080fd5b60006125388482850161238c565b91505092915050565b60006020828403121561255357600080fd5b6000612561848285016123a1565b91505092915050565b60006020828403121561257c57600080fd5b600061258a848285016123b6565b91505092915050565b600080600080608085870312156125a957600080fd5b60006125b7878288016123a1565b94505060206125c887828801612377565b93505060406125d987828801612377565b92505060606125ea87828801612415565b91505092959194509250565b6000806000806080858703121561260c57600080fd5b600061261a878288016123a1565b945050602061262b87828801612377565b935050604061263c87828801612415565b925050606061264d87828801612377565b91505092959194509250565b60008060008060008060008060e0898b03121561267557600080fd5b600089013567ffffffffffffffff81111561268f57600080fd5b61269b8b828c016123cb565b985098505060206126ae8b828c01612377565b96505060406126bf8b828c01612415565b95505060606126d08b828c01612377565b94505060806126e18b828c01612377565b93505060a06126f28b828c01612377565b92505060c06127038b828c01612415565b9150509295985092959890939650565b61271c81612ff4565b82525050565b61272b81613006565b82525050565b61273a81613012565b82525050565b600061274c8385612f4e565b93506127598385846130b4565b82840190509392505050565b600061277082612f27565b61277a8185612f3d565b935061278a8185602086016130c3565b61279381613182565b840191505092915050565b60006127a982612f27565b6127b38185612f4e565b93506127c38185602086016130c3565b80840191505092915050565b6127e06127db8261306c565b6130f6565b82525050565b6127ef81613090565b82525050565b6127fe816130a2565b82525050565b600061280f82612f32565b6128198185612f59565b93506128298185602086016130c3565b61283281613182565b840191505092915050565b600061284a601f83612f59565b91507f5472616e7366657248656c7065723a205452414e534645525f4641494c4544006000830152602082019050919050565b600061288a602683612f59565b91507f4f776e61626c653a206e6577206f776e657220697320746865207a65726f206160008301527f64647265737300000000000000000000000000000000000000000000000000006020830152604082019050919050565b60006128f0601383612f59565b91507f417070726f76652063616c6c206661696c6564000000000000000000000000006000830152602082019050919050565b6000612930602e83612f59565b91507f496e697469616c697a61626c653a20636f6e747261637420697320616c72656160008301527f647920696e697469616c697a65640000000000000000000000000000000000006020830152604082019050919050565b6000612996602783612f59565b91507f506f7274616c3a2073796e746174696320746f6b656e7320656d657267656e6360008301527f79556e6275726e000000000000000000000000000000000000000000000000006020830152604082019050919050565b60006129fc602a83612f59565b91507f506f7274616c3a7374617465206e6f74206f70656e206f7220747820646f657360008301527f206e6f74206578697374000000000000000000000000000000000000000000006020830152604082019050919050565b6000612a62602683612f59565b91507f506f7274616c3a205265616c20746f6b656e7320616c7265616479207472616e60008301527f73666572656400000000000000000000000000000000000000000000000000006020830152604082019050919050565b6000612ac8602083612f59565b91507f4f776e61626c653a2063616c6c6572206973206e6f7420746865206f776e65726000830152602082019050919050565b6000612b08602483612f59565b91507f5472616e7366657248656c7065723a205452414e534645525f46524f4d5f464160008301527f494c4544000000000000000000000000000000000000000000000000000000006020830152604082019050919050565b612b6a81613062565b82525050565b612b81612b7c82613062565b61311a565b82525050565b6000612b94828486612740565b91508190509392505050565b6000612bac828461279e565b915081905092915050565b6000612bc382856127cf565b601482019150612bd38284612b70565b6020820191508190509392505050565b6000602082019050612bf86000830184612713565b92915050565b6000606082019050612c136000830186612713565b612c206020830185612713565b612c2d6040830184612b61565b949350505050565b600060a082019050612c4a6000830188612713565b612c576020830187612713565b612c646040830186612b61565b612c716060830185612713565b612c7e60808301846127e6565b9695505050505050565b6000604082019050612c9d6000830185612713565b612caa6020830184612b61565b9392505050565b6000602082019050612cc66000830184612722565b92915050565b6000602082019050612ce16000830184612731565b92915050565b600060a082019050612cfc6000830188612731565b612d096020830187612713565b612d166040830186612b61565b612d236060830185612b61565b612d306080830184612713565b9695505050505050565b60006080820190508181036000830152612d548187612765565b9050612d636020830186612713565b612d706040830185612713565b612d7d6060830184612b61565b95945050505050565b6000602082019050612d9b60008301846127f5565b92915050565b60006020820190508181036000830152612dbb8184612804565b905092915050565b60006020820190508181036000830152612ddc8161283d565b9050919050565b60006020820190508181036000830152612dfc8161287d565b9050919050565b60006020820190508181036000830152612e1c816128e3565b9050919050565b60006020820190508181036000830152612e3c81612923565b9050919050565b60006020820190508181036000830152612e5c81612989565b9050919050565b60006020820190508181036000830152612e7c816129ef565b9050919050565b60006020820190508181036000830152612e9c81612a55565b9050919050565b60006020820190508181036000830152612ebc81612abb565b9050919050565b60006020820190508181036000830152612edc81612afb565b9050919050565b6000602082019050612ef86000830184612b61565b92915050565b6000604082019050612f136000830185612b61565b612f206020830184612713565b9392505050565b600081519050919050565b600081519050919050565b600082825260208201905092915050565b600081905092915050565b600082825260208201905092915050565b6000612f7582613062565b9150612f8083613062565b9250827fffffffffffffffffffffffffffffffffffffffffffffffffffffffffffffffff03821115612fb557612fb4613124565b5b828201905092915050565b6000612fcb82613062565b9150612fd683613062565b925082821015612fe957612fe8613124565b5b828203905092915050565b6000612fff82613042565b9050919050565b60008115159050919050565b6000819050919050565b600081905061302a826131a0565b919050565b600081905061303d826131b4565b919050565b600073ffffffffffffffffffffffffffffffffffffffff82169050919050565b6000819050919050565b60006130778261307e565b9050919050565b600061308982613042565b9050919050565b600061309b8261301c565b9050919050565b60006130ad8261302f565b9050919050565b82818337600083830152505050565b60005b838110156130e15780820151818401526020810190506130c6565b838111156130f0576000848401525b50505050565b600061310182613108565b9050919050565b600061311382613193565b9050919050565b6000819050919050565b7f4e487b7100000000000000000000000000000000000000000000000000000000600052601160045260246000fd5b7f4e487b7100000000000000000000000000000000000000000000000000000000600052602160045260246000fd5b6000601f19601f8301169050919050565b60008160601b9050919050565b600381106131b1576131b0613153565b5b50565b600381106131c5576131c4613153565b5b50565b6131d181612ff4565b81146131dc57600080fd5b50565b6131e881613006565b81146131f357600080fd5b50565b6131ff81613012565b811461320a57600080fd5b50565b61321681613062565b811461322157600080fd5b5056fe6d696e7453796e746865746963546f6b656e28627974657333322c616464726573732c75696e742c75696e743235362c6164647265737329a26469706673582212201963d1e0e50c176b470f121f88329d626b484ad691da4ffc0703582feaa06de264736f6c63430008000033",
  "linkReferences": {},
  "deployedLinkReferences": {}
}