{
  "_format": "hh-sol-artifact-1",
  "contractName": "Portal",
  "sourceName": "contracts/Portal.sol",
  "abi": [
    {
      "inputs": [
        {
          "internalType": "address",
          "name": "bridgeAdr_",
          "type": "address"
        },
        {
          "internalType": "address",
          "name": "trustedForwarder",
          "type": "address"
        }
      ],
      "stateMutability": "nonpayable",
      "type": "constructor"
    },
    {
      "anonymous": false,
      "inputs": [
        {
          "indexed": true,
          "internalType": "bytes32",
          "name": "_id",
          "type": "bytes32"
        },
        {
          "indexed": true,
          "internalType": "address",
          "name": "_to",
          "type": "address"
        },
        {
          "indexed": false,
          "internalType": "uint256",
          "name": "_amount",
          "type": "uint256"
        },
        {
          "indexed": false,
          "internalType": "address",
          "name": "_token",
          "type": "address"
        }
      ],
      "name": "BurnCompleted",
      "type": "event"
    },
    {
      "anonymous": false,
      "inputs": [
        {
          "indexed": true,
          "internalType": "address",
          "name": "previousOwner",
          "type": "address"
        },
        {
          "indexed": true,
          "internalType": "address",
          "name": "newOwner",
          "type": "address"
        }
      ],
      "name": "OwnershipTransferred",
      "type": "event"
    },
    {
      "anonymous": false,
      "inputs": [
        {
          "indexed": true,
          "internalType": "bytes32",
          "name": "_id",
          "type": "bytes32"
        },
        {
          "indexed": true,
          "internalType": "address",
          "name": "_to",
          "type": "address"
        }
      ],
      "name": "RevertBurnRequest",
      "type": "event"
    },
    {
      "anonymous": false,
      "inputs": [
        {
          "indexed": true,
          "internalType": "bytes32",
          "name": "_id",
          "type": "bytes32"
        },
        {
          "indexed": true,
          "internalType": "address",
          "name": "_to",
          "type": "address"
        },
        {
          "indexed": false,
          "internalType": "uint256",
          "name": "_amount",
          "type": "uint256"
        },
        {
          "indexed": false,
          "internalType": "address",
          "name": "_token",
          "type": "address"
        }
      ],
      "name": "RevertSynthesizeCompleted",
      "type": "event"
    },
    {
      "anonymous": false,
      "inputs": [
        {
          "indexed": true,
          "internalType": "bytes32",
          "name": "_id",
          "type": "bytes32"
        },
        {
          "indexed": true,
          "internalType": "address",
          "name": "_from",
          "type": "address"
        },
        {
          "indexed": true,
          "internalType": "address",
          "name": "_to",
          "type": "address"
        },
        {
          "indexed": false,
          "internalType": "uint256",
          "name": "_amount",
          "type": "uint256"
        },
        {
          "indexed": false,
          "internalType": "address",
          "name": "_token",
          "type": "address"
        }
      ],
      "name": "SynthesizeRequest",
      "type": "event"
    },
    {
      "inputs": [
        {
          "internalType": "address",
          "name": "",
          "type": "address"
        }
      ],
      "name": "balanceOf",
      "outputs": [
        {
          "internalType": "uint256",
          "name": "",
          "type": "uint256"
        }
      ],
      "stateMutability": "view",
      "type": "function"
    },
    {
      "inputs": [],
      "name": "bridge",
      "outputs": [
        {
          "internalType": "address",
          "name": "",
          "type": "address"
        }
      ],
      "stateMutability": "view",
      "type": "function"
    },
    {
      "inputs": [
        {
          "internalType": "bytes32",
          "name": "_txID",
          "type": "bytes32"
        }
      ],
      "name": "emergencyUnburnRequest",
      "outputs": [],
      "stateMutability": "nonpayable",
      "type": "function"
    },
    {
      "inputs": [
        {
          "internalType": "bytes32",
          "name": "_txID",
          "type": "bytes32"
        }
      ],
      "name": "emergencyUnsynthesize",
      "outputs": [],
      "stateMutability": "nonpayable",
      "type": "function"
    },
    {
      "inputs": [
        {
          "internalType": "address",
          "name": "forwarder",
          "type": "address"
        }
      ],
      "name": "isTrustedForwarder",
      "outputs": [
        {
          "internalType": "bool",
          "name": "",
          "type": "bool"
        }
      ],
      "stateMutability": "view",
      "type": "function"
    },
    {
      "inputs": [],
      "name": "owner",
      "outputs": [
        {
          "internalType": "address",
          "name": "",
          "type": "address"
        }
      ],
      "stateMutability": "view",
      "type": "function"
    },
    {
      "inputs": [],
      "name": "renounceOwnership",
      "outputs": [],
      "stateMutability": "nonpayable",
      "type": "function"
    },
    {
      "inputs": [
        {
          "internalType": "bytes32",
          "name": "",
          "type": "bytes32"
        }
      ],
      "name": "requests",
      "outputs": [
        {
          "internalType": "address",
          "name": "recipient",
          "type": "address"
        },
        {
          "internalType": "address",
          "name": "chain2address",
          "type": "address"
        },
        {
          "internalType": "uint256",
          "name": "amount",
          "type": "uint256"
        },
        {
          "internalType": "address",
          "name": "rtoken",
          "type": "address"
        },
        {
          "internalType": "enum Portal.RequestState",
          "name": "state",
          "type": "uint8"
        }
      ],
      "stateMutability": "view",
      "type": "function"
    },
    {
      "inputs": [
        {
          "internalType": "address",
          "name": "_adr",
          "type": "address"
        }
      ],
      "name": "setBridge",
      "outputs": [],
      "stateMutability": "nonpayable",
      "type": "function"
    },
    {
      "inputs": [
        {
          "internalType": "address",
          "name": "_adr",
          "type": "address"
        }
      ],
      "name": "setSynthesis",
      "outputs": [],
      "stateMutability": "nonpayable",
      "type": "function"
    },
    {
      "inputs": [],
      "name": "synthesis",
      "outputs": [
        {
          "internalType": "address",
          "name": "",
          "type": "address"
        }
      ],
      "stateMutability": "view",
      "type": "function"
    },
    {
      "inputs": [
        {
          "internalType": "address",
          "name": "_token",
          "type": "address"
        },
        {
          "internalType": "uint256",
          "name": "_amount",
          "type": "uint256"
        },
        {
          "internalType": "address",
          "name": "_chain2address",
          "type": "address"
        }
      ],
      "name": "synthesize",
      "outputs": [
        {
          "internalType": "bytes32",
          "name": "txID",
          "type": "bytes32"
        }
      ],
      "stateMutability": "nonpayable",
      "type": "function"
    },
    {
      "inputs": [
        {
          "internalType": "bytes",
          "name": "_approvalData",
          "type": "bytes"
        },
        {
          "internalType": "address",
          "name": "_token",
          "type": "address"
        },
        {
          "internalType": "uint256",
          "name": "_amount",
          "type": "uint256"
        },
        {
          "internalType": "address",
          "name": "_chain2address",
          "type": "address"
        }
      ],
      "name": "synthesizeWithPermit",
      "outputs": [
        {
          "internalType": "bytes32",
          "name": "txID",
          "type": "bytes32"
        }
      ],
      "stateMutability": "nonpayable",
      "type": "function"
    },
    {
      "inputs": [
        {
          "internalType": "address",
          "name": "newOwner",
          "type": "address"
        }
      ],
      "name": "transferOwnership",
      "outputs": [],
      "stateMutability": "nonpayable",
      "type": "function"
    },
    {
      "inputs": [
        {
          "internalType": "bytes32",
          "name": "_txID",
          "type": "bytes32"
        },
        {
          "internalType": "address",
          "name": "_token",
          "type": "address"
        },
        {
          "internalType": "uint256",
          "name": "_amount",
          "type": "uint256"
        },
        {
          "internalType": "address",
          "name": "_to",
          "type": "address"
        }
      ],
      "name": "unsynthesize",
      "outputs": [],
      "stateMutability": "nonpayable",
      "type": "function"
    },
    {
      "inputs": [
        {
          "internalType": "bytes32",
          "name": "",
          "type": "bytes32"
        }
      ],
      "name": "unsynthesizeStates",
      "outputs": [
        {
          "internalType": "enum Portal.UnsynthesizeState",
          "name": "",
          "type": "uint8"
        }
      ],
      "stateMutability": "view",
      "type": "function"
    },
    {
      "inputs": [],
      "name": "versionRecipient",
      "outputs": [
        {
          "internalType": "string",
          "name": "",
          "type": "string"
        }
      ],
      "stateMutability": "view",
      "type": "function"
    }
  ],
  "bytecode": "0x608060405260016005553480156200001657600080fd5b5060405162002da138038062002da183398181016040528101906200003c91906200023b565b8060006200004f6200017860201b60201c565b9050806000806101000a81548173ffffffffffffffffffffffffffffffffffffffff021916908373ffffffffffffffffffffffffffffffffffffffff1602179055508073ffffffffffffffffffffffffffffffffffffffff16600073ffffffffffffffffffffffffffffffffffffffff167f8be0079c531659141344cd1fd0a4f28419497f9722a3daafe3b4186f6b6457e060405160405180910390a35080600160006101000a81548173ffffffffffffffffffffffffffffffffffffffff021916908373ffffffffffffffffffffffffffffffffffffffff1602179055505081600260006101000a81548173ffffffffffffffffffffffffffffffffffffffff021916908373ffffffffffffffffffffffffffffffffffffffff1602179055505050620002ca565b60006200018b33620001c260201b60201c565b15620001a157601436033560601c9050620001be565b620001b66200021c60201b62001a9f1760201c565b9050620001bf565b5b90565b6000600160009054906101000a900473ffffffffffffffffffffffffffffffffffffffff1673ffffffffffffffffffffffffffffffffffffffff168273ffffffffffffffffffffffffffffffffffffffff16149050919050565b600033905090565b6000815190506200023581620002b0565b92915050565b600080604083850312156200024f57600080fd5b60006200025f8582860162000224565b9250506020620002728582860162000224565b9150509250929050565b6000620002898262000290565b9050919050565b600073ffffffffffffffffffffffffffffffffffffffff82169050919050565b620002bb816200027c565b8114620002c757600080fd5b50565b612ac780620002da6000396000f3fe608060405234801561001057600080fd5b506004361061010b5760003560e01c80638dd14802116100a2578063e78cea9211610071578063e78cea92146102bc578063ec7bc109146102da578063f2fde38b146102f6578063fab9289414610312578063fc895869146103425761010b565b80638dd14802146102205780639d8669851461023c578063a6037a2914610270578063e49029fc1461028c5761010b565b8063572b6c05116100de578063572b6c051461019857806370a08231146101c8578063715018a6146101f85780638da5cb5b146102025761010b565b80632af896fb14610110578063466095e91461012e578063486ff0cd1461015e5780634ff7f93f1461017c575b600080fd5b61011861035e565b6040516101259190612467565b60405180910390f35b61014860048036038101906101439190611f7d565b610384565b6040516101559190612550565b60405180910390f35b61016661084b565b60405161017391906125fb565b60405180910390f35b61019660048036038101906101919190611e27565b610888565b005b6101b260048036038101906101ad9190611e27565b610948565b6040516101bf9190612535565b60405180910390f35b6101e260048036038101906101dd9190611e27565b6109a2565b6040516101ef919061271d565b60405180910390f35b6102006109ba565b005b61020a610af4565b6040516102179190612467565b60405180910390f35b61023a60048036038101906102359190611e27565b610b1d565b005b61025660048036038101906102519190611ec8565b610bdd565b6040516102679594939291906124b9565b60405180910390f35b61028a60048036038101906102859190611f1a565b610c80565b005b6102a660048036038101906102a19190611e50565b610f0d565b6040516102b39190612550565b60405180910390f35b6102c4611323565b6040516102d19190612467565b60405180910390f35b6102f460048036038101906102ef9190611ec8565b611349565b005b610310600480360381019061030b9190611e27565b61164f565b005b61032c60048036038101906103279190611ec8565b6117f8565b60405161033991906125e0565b60405180910390f35b61035c60048036038101906103579190611ec8565b611818565b005b600460009054906101000a900473ffffffffffffffffffffffffffffffffffffffff1681565b6000808473ffffffffffffffffffffffffffffffffffffffff1687876040516103ae92919061240b565b6000604051808303816000865af19150503d80600081146103eb576040519150601f19603f3d011682016040523d82523d6000602084013e6103f0565b606091505b5050905080610434576040517f08c379a000000000000000000000000000000000000000000000000000000000815260040161042b9061265d565b60405180910390fd5b61044785610440611aa7565b3087611ad9565b61049984600360008873ffffffffffffffffffffffffffffffffffffffff1673ffffffffffffffffffffffffffffffffffffffff16815260200190815260200160002054611c1290919063ffffffff16565b600360008773ffffffffffffffffffffffffffffffffffffffff1673ffffffffffffffffffffffffffffffffffffffff16815260200190815260200160002081905550306005546040516020016104f192919061243b565b6040516020818303038152906040528051906020012091506000604051806060016040528060338152602001612a5f603391398051906020012083878787604051602401610542949392919061256b565b604051602081830303815290604052907bffffffffffffffffffffffffffffffffffffffffffffffffffffffff19166020820180517bffffffffffffffffffffffffffffffffffffffffffffffffffffffff83818316178352505050509050600260009054906101000a900473ffffffffffffffffffffffffffffffffffffffff1673ffffffffffffffffffffffffffffffffffffffff166372198f5582600460009054906101000a900473ffffffffffffffffffffffffffffffffffffffff166040518363ffffffff1660e01b81526004016106209291906125b0565b602060405180830381600087803b15801561063a57600080fd5b505af115801561064e573d6000803e3d6000fd5b505050506040513d601f19601f820116820180604052508101906106729190611ef1565b506000600660008581526020019081526020016000209050610692611aa7565b8160000160006101000a81548173ffffffffffffffffffffffffffffffffffffffff021916908373ffffffffffffffffffffffffffffffffffffffff160217905550848160010160006101000a81548173ffffffffffffffffffffffffffffffffffffffff021916908373ffffffffffffffffffffffffffffffffffffffff160217905550868160030160006101000a81548173ffffffffffffffffffffffffffffffffffffffff021916908373ffffffffffffffffffffffffffffffffffffffff16021790555085816002018190555060018160030160146101000a81548160ff021916908360028111156107b1577f4e487b7100000000000000000000000000000000000000000000000000000000600052602160045260246000fd5b02179055506001600560008282546107c991906127a4565b925050819055508473ffffffffffffffffffffffffffffffffffffffff166107ef611aa7565b73ffffffffffffffffffffffffffffffffffffffff16857f79856ea8bc3d8f5d0a803c32f56f54884a196b09482b11134b6f2a6f6276a0b9898b604051610837929190612738565b60405180910390a450505095945050505050565b60606040518060400160405280600581526020017f322e302e31000000000000000000000000000000000000000000000000000000815250905090565b610890611aa7565b73ffffffffffffffffffffffffffffffffffffffff166108ae610af4565b73ffffffffffffffffffffffffffffffffffffffff1614610904576040517f08c379a00000000000000000000000000000000000000000000000000000000081526004016108fb906126dd565b60405180910390fd5b80600460006101000a81548173ffffffffffffffffffffffffffffffffffffffff021916908373ffffffffffffffffffffffffffffffffffffffff16021790555050565b6000600160009054906101000a900473ffffffffffffffffffffffffffffffffffffffff1673ffffffffffffffffffffffffffffffffffffffff168273ffffffffffffffffffffffffffffffffffffffff16149050919050565b60036020528060005260406000206000915090505481565b6109c2611aa7565b73ffffffffffffffffffffffffffffffffffffffff166109e0610af4565b73ffffffffffffffffffffffffffffffffffffffff1614610a36576040517f08c379a0000000000000000000000000000000000000000000000000000000008152600401610a2d906126dd565b60405180910390fd5b600073ffffffffffffffffffffffffffffffffffffffff1660008054906101000a900473ffffffffffffffffffffffffffffffffffffffff1673ffffffffffffffffffffffffffffffffffffffff167f8be0079c531659141344cd1fd0a4f28419497f9722a3daafe3b4186f6b6457e060405160405180910390a360008060006101000a81548173ffffffffffffffffffffffffffffffffffffffff021916908373ffffffffffffffffffffffffffffffffffffffff160217905550565b60008060009054906101000a900473ffffffffffffffffffffffffffffffffffffffff16905090565b610b25611aa7565b73ffffffffffffffffffffffffffffffffffffffff16610b43610af4565b73ffffffffffffffffffffffffffffffffffffffff1614610b99576040517f08c379a0000000000000000000000000000000000000000000000000000000008152600401610b90906126dd565b60405180910390fd5b80600260006101000a81548173ffffffffffffffffffffffffffffffffffffffff021916908373ffffffffffffffffffffffffffffffffffffffff16021790555050565b60066020528060005260406000206000915090508060000160009054906101000a900473ffffffffffffffffffffffffffffffffffffffff16908060010160009054906101000a900473ffffffffffffffffffffffffffffffffffffffff16908060020154908060030160009054906101000a900473ffffffffffffffffffffffffffffffffffffffff16908060030160149054906101000a900460ff16905085565b600260009054906101000a900473ffffffffffffffffffffffffffffffffffffffff1673ffffffffffffffffffffffffffffffffffffffff16610cc1611aa7565b73ffffffffffffffffffffffffffffffffffffffff1614610ce157600080fd5b60006002811115610d1b577f4e487b7100000000000000000000000000000000000000000000000000000000600052602160045260246000fd5b6007600086815260200190815260200160002060009054906101000a900460ff166002811115610d74577f4e487b7100000000000000000000000000000000000000000000000000000000600052602160045260246000fd5b14610db4576040517f08c379a0000000000000000000000000000000000000000000000000000000008152600401610dab9061267d565b60405180910390fd5b610dbf838284611c28565b610e1182600360008673ffffffffffffffffffffffffffffffffffffffff1673ffffffffffffffffffffffffffffffffffffffff16815260200190815260200160002054611d5e90919063ffffffff16565b600360008573ffffffffffffffffffffffffffffffffffffffff1673ffffffffffffffffffffffffffffffffffffffff1681526020019081526020016000208190555060016007600086815260200190815260200160002060006101000a81548160ff02191690836002811115610eb1577f4e487b7100000000000000000000000000000000000000000000000000000000600052602160045260246000fd5b02179055508073ffffffffffffffffffffffffffffffffffffffff16847f7d38b66fe45f4596a8e0f6d416747ea22ad1ef15891e9d7c8f848a044be974e08486604051610eff929190612738565b60405180910390a350505050565b6000610f2284610f1b611aa7565b3086611ad9565b610f7483600360008773ffffffffffffffffffffffffffffffffffffffff1673ffffffffffffffffffffffffffffffffffffffff16815260200190815260200160002054611c1290919063ffffffff16565b600360008673ffffffffffffffffffffffffffffffffffffffff1673ffffffffffffffffffffffffffffffffffffffff1681526020019081526020016000208190555030600554604051602001610fcc92919061243b565b6040516020818303038152906040528051906020012090506000604051806060016040528060338152602001612a5f60339139805190602001208286868660405160240161101d949392919061256b565b604051602081830303815290604052907bffffffffffffffffffffffffffffffffffffffffffffffffffffffff19166020820180517bffffffffffffffffffffffffffffffffffffffffffffffffffffffff83818316178352505050509050600260009054906101000a900473ffffffffffffffffffffffffffffffffffffffff1673ffffffffffffffffffffffffffffffffffffffff166372198f5582600460009054906101000a900473ffffffffffffffffffffffffffffffffffffffff166040518363ffffffff1660e01b81526004016110fb9291906125b0565b602060405180830381600087803b15801561111557600080fd5b505af1158015611129573d6000803e3d6000fd5b505050506040513d601f19601f8201168201806040525081019061114d9190611ef1565b50600060066000848152602001908152602001600020905061116d611aa7565b8160000160006101000a81548173ffffffffffffffffffffffffffffffffffffffff021916908373ffffffffffffffffffffffffffffffffffffffff160217905550838160010160006101000a81548173ffffffffffffffffffffffffffffffffffffffff021916908373ffffffffffffffffffffffffffffffffffffffff160217905550858160030160006101000a81548173ffffffffffffffffffffffffffffffffffffffff021916908373ffffffffffffffffffffffffffffffffffffffff16021790555084816002018190555060018160030160146101000a81548160ff0219169083600281111561128c577f4e487b7100000000000000000000000000000000000000000000000000000000600052602160045260246000fd5b02179055506001600560008282546112a491906127a4565b925050819055508373ffffffffffffffffffffffffffffffffffffffff166112ca611aa7565b73ffffffffffffffffffffffffffffffffffffffff16847f79856ea8bc3d8f5d0a803c32f56f54884a196b09482b11134b6f2a6f6276a0b9888a604051611312929190612738565b60405180910390a450509392505050565b600260009054906101000a900473ffffffffffffffffffffffffffffffffffffffff1681565b60016002811115611383577f4e487b7100000000000000000000000000000000000000000000000000000000600052602160045260246000fd5b6007600083815260200190815260200160002060009054906101000a900460ff1660028111156113dc577f4e487b7100000000000000000000000000000000000000000000000000000000600052602160045260246000fd5b141561141d576040517f08c379a0000000000000000000000000000000000000000000000000000000008152600401611414906126bd565b60405180910390fd5b60026007600083815260200190815260200160002060006101000a81548160ff0219169083600281111561147a577f4e487b7100000000000000000000000000000000000000000000000000000000600052602160045260246000fd5b021790555060006040518060400160405280601881526020017f656d657267656e6379556e6275726e286279746573333229000000000000000081525080519060200120826040516024016114cf9190612550565b604051602081830303815290604052907bffffffffffffffffffffffffffffffffffffffffffffffffffffffff19166020820180517bffffffffffffffffffffffffffffffffffffffffffffffffffffffff83818316178352505050509050600260009054906101000a900473ffffffffffffffffffffffffffffffffffffffff1673ffffffffffffffffffffffffffffffffffffffff166372198f5582600460009054906101000a900473ffffffffffffffffffffffffffffffffffffffff166040518363ffffffff1660e01b81526004016115ad9291906125b0565b602060405180830381600087803b1580156115c757600080fd5b505af11580156115db573d6000803e3d6000fd5b505050506040513d601f19601f820116820180604052508101906115ff9190611ef1565b50611608611aa7565b73ffffffffffffffffffffffffffffffffffffffff16827f40590cc12db0488520ce425059f83f8caed91bdf98de5ff829dc57c63843161b60405160405180910390a35050565b611657611aa7565b73ffffffffffffffffffffffffffffffffffffffff16611675610af4565b73ffffffffffffffffffffffffffffffffffffffff16146116cb576040517f08c379a00000000000000000000000000000000000000000000000000000000081526004016116c2906126dd565b60405180910390fd5b600073ffffffffffffffffffffffffffffffffffffffff168173ffffffffffffffffffffffffffffffffffffffff16141561173b576040517f08c379a00000000000000000000000000000000000000000000000000000000081526004016117329061263d565b60405180910390fd5b8073ffffffffffffffffffffffffffffffffffffffff1660008054906101000a900473ffffffffffffffffffffffffffffffffffffffff1673ffffffffffffffffffffffffffffffffffffffff167f8be0079c531659141344cd1fd0a4f28419497f9722a3daafe3b4186f6b6457e060405160405180910390a3806000806101000a81548173ffffffffffffffffffffffffffffffffffffffff021916908373ffffffffffffffffffffffffffffffffffffffff16021790555050565b60076020528060005260406000206000915054906101000a900460ff1681565b600260009054906101000a900473ffffffffffffffffffffffffffffffffffffffff1673ffffffffffffffffffffffffffffffffffffffff16611859611aa7565b73ffffffffffffffffffffffffffffffffffffffff161461187957600080fd5b6000600660008381526020019081526020016000209050600160028111156118ca577f4e487b7100000000000000000000000000000000000000000000000000000000600052602160045260246000fd5b8160030160149054906101000a900460ff166002811115611914577f4e487b7100000000000000000000000000000000000000000000000000000000600052602160045260246000fd5b14611954576040517f08c379a000000000000000000000000000000000000000000000000000000000815260040161194b9061269d565b60405180910390fd5b60028160030160146101000a81548160ff021916908360028111156119a2577f4e487b7100000000000000000000000000000000000000000000000000000000600052602160045260246000fd5b02179055506119fe8160030160009054906101000a900473ffffffffffffffffffffffffffffffffffffffff168260000160009054906101000a900473ffffffffffffffffffffffffffffffffffffffff168360020154611c28565b8060000160009054906101000a900473ffffffffffffffffffffffffffffffffffffffff1673ffffffffffffffffffffffffffffffffffffffff16827f944f1d3ef1c50472b370611627295b06b64eca841d2de116bb7634a08a097ca983600201548460030160009054906101000a900473ffffffffffffffffffffffffffffffffffffffff16604051611a93929190612738565b60405180910390a35050565b600033905090565b6000611ab233610948565b15611ac657601436033560601c9050611ad5565b611ace611a9f565b9050611ad6565b5b90565b6000808573ffffffffffffffffffffffffffffffffffffffff166323b872dd868686604051602401611b0d93929190612482565b6040516020818303038152906040529060e01b6020820180517bffffffffffffffffffffffffffffffffffffffffffffffffffffffff8381831617835250505050604051611b5b9190612424565b6000604051808303816000865af19150503d8060008114611b98576040519150601f19603f3d011682016040523d82523d6000602084013e611b9d565b606091505b5091509150818015611bcb5750600081511480611bca575080806020019051810190611bc99190611e9f565b5b5b611c0a576040517f08c379a0000000000000000000000000000000000000000000000000000000008152600401611c01906126fd565b60405180910390fd5b505050505050565b60008183611c2091906127a4565b905092915050565b6000808473ffffffffffffffffffffffffffffffffffffffff1663a9059cbb8585604051602401611c5a92919061250c565b6040516020818303038152906040529060e01b6020820180517bffffffffffffffffffffffffffffffffffffffffffffffffffffffff8381831617835250505050604051611ca89190612424565b6000604051808303816000865af19150503d8060008114611ce5576040519150601f19603f3d011682016040523d82523d6000602084013e611cea565b606091505b5091509150818015611d185750600081511480611d17575080806020019051810190611d169190611e9f565b5b5b611d57576040517f08c379a0000000000000000000000000000000000000000000000000000000008152600401611d4e9061261d565b60405180910390fd5b5050505050565b60008183611d6c91906127fa565b905092915050565b600081359050611d8381612a02565b92915050565b600081519050611d9881612a19565b92915050565b600081359050611dad81612a30565b92915050565b600081519050611dc281612a30565b92915050565b60008083601f840112611dda57600080fd5b8235905067ffffffffffffffff811115611df357600080fd5b602083019150836001820283011115611e0b57600080fd5b9250929050565b600081359050611e2181612a47565b92915050565b600060208284031215611e3957600080fd5b6000611e4784828501611d74565b91505092915050565b600080600060608486031215611e6557600080fd5b6000611e7386828701611d74565b9350506020611e8486828701611e12565b9250506040611e9586828701611d74565b9150509250925092565b600060208284031215611eb157600080fd5b6000611ebf84828501611d89565b91505092915050565b600060208284031215611eda57600080fd5b6000611ee884828501611d9e565b91505092915050565b600060208284031215611f0357600080fd5b6000611f1184828501611db3565b91505092915050565b60008060008060808587031215611f3057600080fd5b6000611f3e87828801611d9e565b9450506020611f4f87828801611d74565b9350506040611f6087828801611e12565b9250506060611f7187828801611d74565b91505092959194509250565b600080600080600060808688031215611f9557600080fd5b600086013567ffffffffffffffff811115611faf57600080fd5b611fbb88828901611dc8565b95509550506020611fce88828901611d74565b9350506040611fdf88828901611e12565b9250506060611ff088828901611d74565b9150509295509295909350565b6120068161282e565b82525050565b61201581612840565b82525050565b6120248161284c565b82525050565b60006120368385612788565b93506120438385846128ee565b82840190509392505050565b600061205a82612761565b6120648185612777565b93506120748185602086016128fd565b61207d816129bc565b840191505092915050565b600061209382612761565b61209d8185612788565b93506120ad8185602086016128fd565b80840191505092915050565b6120ca6120c5826128a6565b612930565b82525050565b6120d9816128ca565b82525050565b6120e8816128dc565b82525050565b60006120f98261276c565b6121038185612793565b93506121138185602086016128fd565b61211c816129bc565b840191505092915050565b6000612134601f83612793565b91507f5472616e7366657248656c7065723a205452414e534645525f4641494c4544006000830152602082019050919050565b6000612174602683612793565b91507f4f776e61626c653a206e6577206f776e657220697320746865207a65726f206160008301527f64647265737300000000000000000000000000000000000000000000000000006020830152604082019050919050565b60006121da601383612793565b91507f417070726f76652063616c6c206661696c6564000000000000000000000000006000830152602082019050919050565b600061221a602783612793565b91507f506f7274616c3a2073796e746174696320746f6b656e7320656d657267656e6360008301527f79556e6275726e000000000000000000000000000000000000000000000000006020830152604082019050919050565b6000612280602a83612793565b91507f506f7274616c3a7374617465206e6f74206f70656e206f7220747820646f657360008301527f206e6f74206578697374000000000000000000000000000000000000000000006020830152604082019050919050565b60006122e6602683612793565b91507f506f7274616c3a205265616c20746f6b656e7320616c7265616479207472616e60008301527f73666572656400000000000000000000000000000000000000000000000000006020830152604082019050919050565b600061234c602083612793565b91507f4f776e61626c653a2063616c6c6572206973206e6f7420746865206f776e65726000830152602082019050919050565b600061238c602483612793565b91507f5472616e7366657248656c7065723a205452414e534645525f46524f4d5f464160008301527f494c4544000000000000000000000000000000000000000000000000000000006020830152604082019050919050565b6123ee8161289c565b82525050565b6124056124008261289c565b612954565b82525050565b600061241882848661202a565b91508190509392505050565b60006124308284612088565b915081905092915050565b600061244782856120b9565b60148201915061245782846123f4565b6020820191508190509392505050565b600060208201905061247c6000830184611ffd565b92915050565b60006060820190506124976000830186611ffd565b6124a46020830185611ffd565b6124b160408301846123e5565b949350505050565b600060a0820190506124ce6000830188611ffd565b6124db6020830187611ffd565b6124e860408301866123e5565b6124f56060830185611ffd565b61250260808301846120d0565b9695505050505050565b60006040820190506125216000830185611ffd565b61252e60208301846123e5565b9392505050565b600060208201905061254a600083018461200c565b92915050565b6000602082019050612565600083018461201b565b92915050565b6000608082019050612580600083018761201b565b61258d6020830186611ffd565b61259a60408301856123e5565b6125a76060830184611ffd565b95945050505050565b600060408201905081810360008301526125ca818561204f565b90506125d96020830184611ffd565b9392505050565b60006020820190506125f560008301846120df565b92915050565b6000602082019050818103600083015261261581846120ee565b905092915050565b6000602082019050818103600083015261263681612127565b9050919050565b6000602082019050818103600083015261265681612167565b9050919050565b60006020820190508181036000830152612676816121cd565b9050919050565b600060208201905081810360008301526126968161220d565b9050919050565b600060208201905081810360008301526126b681612273565b9050919050565b600060208201905081810360008301526126d6816122d9565b9050919050565b600060208201905081810360008301526126f68161233f565b9050919050565b600060208201905081810360008301526127168161237f565b9050919050565b600060208201905061273260008301846123e5565b92915050565b600060408201905061274d60008301856123e5565b61275a6020830184611ffd565b9392505050565b600081519050919050565b600081519050919050565b600082825260208201905092915050565b600081905092915050565b600082825260208201905092915050565b60006127af8261289c565b91506127ba8361289c565b9250827fffffffffffffffffffffffffffffffffffffffffffffffffffffffffffffffff038211156127ef576127ee61295e565b5b828201905092915050565b60006128058261289c565b91506128108361289c565b9250828210156128235761282261295e565b5b828203905092915050565b60006128398261287c565b9050919050565b60008115159050919050565b6000819050919050565b6000819050612864826129da565b919050565b6000819050612877826129ee565b919050565b600073ffffffffffffffffffffffffffffffffffffffff82169050919050565b6000819050919050565b60006128b1826128b8565b9050919050565b60006128c38261287c565b9050919050565b60006128d582612856565b9050919050565b60006128e782612869565b9050919050565b82818337600083830152505050565b60005b8381101561291b578082015181840152602081019050612900565b8381111561292a576000848401525b50505050565b600061293b82612942565b9050919050565b600061294d826129cd565b9050919050565b6000819050919050565b7f4e487b7100000000000000000000000000000000000000000000000000000000600052601160045260246000fd5b7f4e487b7100000000000000000000000000000000000000000000000000000000600052602160045260246000fd5b6000601f19601f8301169050919050565b60008160601b9050919050565b600381106129eb576129ea61298d565b5b50565b600381106129ff576129fe61298d565b5b50565b612a0b8161282e565b8114612a1657600080fd5b50565b612a2281612840565b8114612a2d57600080fd5b50565b612a398161284c565b8114612a4457600080fd5b50565b612a508161289c565b8114612a5b57600080fd5b5056fe6d696e7453796e746865746963546f6b656e28627974657333322c616464726573732c75696e743235362c6164647265737329a26469706673582212207c9dcd351ae25005e80c3355674fd13f288a8fe09c54699083c99fde8a195b9364736f6c63430008000033",
  "linkReferences": {},
  "deployedLinkReferences": {}
}