{
  "_format": "hh-sol-artifact-1",
  "contractName": "Portal",
  "sourceName": "contracts/Portal.sol",
  "abi": [
    {
      "inputs": [
        {
          "internalType": "address",
          "name": "_bridge",
          "type": "address"
        },
        {
          "internalType": "address",
          "name": "_trustedForwarder",
          "type": "address"
        }
      ],
      "stateMutability": "nonpayable",
      "type": "constructor"
    },
    {
      "anonymous": false,
      "inputs": [
        {
          "indexed": true,
          "internalType": "bytes32",
          "name": "_id",
          "type": "bytes32"
        },
        {
          "indexed": true,
          "internalType": "address",
          "name": "_to",
          "type": "address"
        },
        {
          "indexed": false,
          "internalType": "uint256",
          "name": "_amount",
          "type": "uint256"
        },
        {
          "indexed": false,
          "internalType": "address",
          "name": "_token",
          "type": "address"
        }
      ],
      "name": "BurnCompleted",
      "type": "event"
    },
    {
      "anonymous": false,
      "inputs": [
        {
          "indexed": true,
          "internalType": "address",
          "name": "previousOwner",
          "type": "address"
        },
        {
          "indexed": true,
          "internalType": "address",
          "name": "newOwner",
          "type": "address"
        }
      ],
      "name": "OwnershipTransferred",
      "type": "event"
    },
    {
      "anonymous": false,
      "inputs": [
        {
          "indexed": true,
          "internalType": "bytes32",
          "name": "_id",
          "type": "bytes32"
        },
        {
          "indexed": true,
          "internalType": "address",
          "name": "_to",
          "type": "address"
        }
      ],
      "name": "RevertBurnRequest",
      "type": "event"
    },
    {
      "anonymous": false,
      "inputs": [
        {
          "indexed": true,
          "internalType": "bytes32",
          "name": "_id",
          "type": "bytes32"
        },
        {
          "indexed": true,
          "internalType": "address",
          "name": "_to",
          "type": "address"
        },
        {
          "indexed": false,
          "internalType": "uint256",
          "name": "_amount",
          "type": "uint256"
        },
        {
          "indexed": false,
          "internalType": "address",
          "name": "_token",
          "type": "address"
        }
      ],
      "name": "RevertSynthesizeCompleted",
      "type": "event"
    },
    {
      "anonymous": false,
      "inputs": [
        {
          "indexed": true,
          "internalType": "bytes32",
          "name": "_id",
          "type": "bytes32"
        },
        {
          "indexed": true,
          "internalType": "address",
          "name": "_from",
          "type": "address"
        },
        {
          "indexed": true,
          "internalType": "address",
          "name": "_to",
          "type": "address"
        },
        {
          "indexed": false,
          "internalType": "uint256",
          "name": "_amount",
          "type": "uint256"
        },
        {
          "indexed": false,
          "internalType": "address",
          "name": "_token",
          "type": "address"
        }
      ],
      "name": "SynthesizeRequest",
      "type": "event"
    },
    {
      "inputs": [
        {
          "internalType": "address",
          "name": "",
          "type": "address"
        }
      ],
      "name": "balanceOf",
      "outputs": [
        {
          "internalType": "uint256",
          "name": "",
          "type": "uint256"
        }
      ],
      "stateMutability": "view",
      "type": "function"
    },
    {
      "inputs": [],
      "name": "bridge",
      "outputs": [
        {
          "internalType": "address",
          "name": "",
          "type": "address"
        }
      ],
      "stateMutability": "view",
      "type": "function"
    },
    {
      "inputs": [
        {
          "internalType": "address",
          "name": "_bridge",
          "type": "address"
        }
      ],
      "name": "changeBridge",
      "outputs": [],
      "stateMutability": "nonpayable",
      "type": "function"
    },
    {
      "inputs": [
        {
          "internalType": "bytes32",
          "name": "_txID",
          "type": "bytes32"
        },
        {
          "internalType": "address",
          "name": "_bridge",
          "type": "address"
        },
        {
          "internalType": "address",
          "name": "_receiveSide",
          "type": "address"
        },
        {
          "internalType": "address",
          "name": "_oppositeBridge",
          "type": "address"
        },
        {
          "internalType": "uint256",
          "name": "_chainId",
          "type": "uint256"
        }
      ],
      "name": "emergencyUnburnRequest",
      "outputs": [],
      "stateMutability": "nonpayable",
      "type": "function"
    },
    {
      "inputs": [
        {
          "internalType": "bytes32",
          "name": "_txID",
          "type": "bytes32"
        }
      ],
      "name": "emergencyUnsynthesize",
      "outputs": [],
      "stateMutability": "nonpayable",
      "type": "function"
    },
    {
      "inputs": [
        {
          "internalType": "address",
          "name": "forwarder",
          "type": "address"
        }
      ],
      "name": "isTrustedForwarder",
      "outputs": [
        {
          "internalType": "bool",
          "name": "",
          "type": "bool"
        }
      ],
      "stateMutability": "view",
      "type": "function"
    },
    {
      "inputs": [],
      "name": "owner",
      "outputs": [
        {
          "internalType": "address",
          "name": "",
          "type": "address"
        }
      ],
      "stateMutability": "view",
      "type": "function"
    },
    {
      "inputs": [],
      "name": "renounceOwnership",
      "outputs": [],
      "stateMutability": "nonpayable",
      "type": "function"
    },
    {
      "inputs": [
        {
          "internalType": "bytes32",
          "name": "",
          "type": "bytes32"
        }
      ],
      "name": "requests",
      "outputs": [
        {
          "internalType": "address",
          "name": "recipient",
          "type": "address"
        },
        {
          "internalType": "address",
          "name": "chain2address",
          "type": "address"
        },
        {
          "internalType": "uint256",
          "name": "amount",
          "type": "uint256"
        },
        {
          "internalType": "address",
          "name": "rtoken",
          "type": "address"
        },
        {
          "internalType": "enum Portal.RequestState",
          "name": "state",
          "type": "uint8"
        }
      ],
      "stateMutability": "view",
      "type": "function"
    },
    {
      "inputs": [
        {
          "internalType": "address",
          "name": "_token",
          "type": "address"
        },
        {
          "internalType": "uint256",
          "name": "_amount",
          "type": "uint256"
        },
        {
          "internalType": "address",
          "name": "_chain2address",
          "type": "address"
        },
        {
          "internalType": "address",
          "name": "_bridge",
          "type": "address"
        },
        {
          "internalType": "address",
          "name": "_receiveSide",
          "type": "address"
        },
        {
          "internalType": "address",
          "name": "_oppositeBridge",
          "type": "address"
        },
        {
          "internalType": "uint256",
          "name": "_chainID",
          "type": "uint256"
        }
      ],
      "name": "synthesize",
      "outputs": [
        {
          "internalType": "bytes32",
          "name": "txID",
          "type": "bytes32"
        }
      ],
      "stateMutability": "nonpayable",
      "type": "function"
    },
    {
      "inputs": [
        {
          "internalType": "bytes",
          "name": "_approvalData",
          "type": "bytes"
        },
        {
          "internalType": "address",
          "name": "_token",
          "type": "address"
        },
        {
          "internalType": "uint256",
          "name": "_amount",
          "type": "uint256"
        },
        {
          "internalType": "address",
          "name": "_chain2address",
          "type": "address"
        },
        {
          "internalType": "address",
          "name": "_bridge",
          "type": "address"
        },
        {
          "internalType": "address",
          "name": "_receiveSide",
          "type": "address"
        },
        {
          "internalType": "address",
          "name": "_oppositeBridge",
          "type": "address"
        },
        {
          "internalType": "uint256",
          "name": "_chainID",
          "type": "uint256"
        }
      ],
      "name": "synthesizeWithPermit",
      "outputs": [
        {
          "internalType": "bytes32",
          "name": "txID",
          "type": "bytes32"
        }
      ],
      "stateMutability": "nonpayable",
      "type": "function"
    },
    {
      "inputs": [
        {
          "internalType": "address",
          "name": "newOwner",
          "type": "address"
        }
      ],
      "name": "transferOwnership",
      "outputs": [],
      "stateMutability": "nonpayable",
      "type": "function"
    },
    {
      "inputs": [
        {
          "internalType": "bytes32",
          "name": "_txID",
          "type": "bytes32"
        },
        {
          "internalType": "address",
          "name": "_token",
          "type": "address"
        },
        {
          "internalType": "uint256",
          "name": "_amount",
          "type": "uint256"
        },
        {
          "internalType": "address",
          "name": "_to",
          "type": "address"
        }
      ],
      "name": "unsynthesize",
      "outputs": [],
      "stateMutability": "nonpayable",
      "type": "function"
    },
    {
      "inputs": [
        {
          "internalType": "bytes32",
          "name": "",
          "type": "bytes32"
        }
      ],
      "name": "unsynthesizeStates",
      "outputs": [
        {
          "internalType": "enum Portal.UnsynthesizeState",
          "name": "",
          "type": "uint8"
        }
      ],
      "stateMutability": "view",
      "type": "function"
    },
    {
      "inputs": [],
      "name": "versionRecipient",
      "outputs": [
        {
          "internalType": "string",
          "name": "",
          "type": "string"
        }
      ],
      "stateMutability": "view",
      "type": "function"
    }
  ],
  "bytecode": "0x608060405260016004553480156200001657600080fd5b5060405162002cd938038062002cd983398181016040528101906200003c91906200023b565b8060006200004f6200017860201b60201c565b9050806000806101000a81548173ffffffffffffffffffffffffffffffffffffffff021916908373ffffffffffffffffffffffffffffffffffffffff1602179055508073ffffffffffffffffffffffffffffffffffffffff16600073ffffffffffffffffffffffffffffffffffffffff167f8be0079c531659141344cd1fd0a4f28419497f9722a3daafe3b4186f6b6457e060405160405180910390a35080600160006101000a81548173ffffffffffffffffffffffffffffffffffffffff021916908373ffffffffffffffffffffffffffffffffffffffff1602179055505081600360006101000a81548173ffffffffffffffffffffffffffffffffffffffff021916908373ffffffffffffffffffffffffffffffffffffffff1602179055505050620002ca565b60006200018b33620001c260201b60201c565b15620001a157601436033560601c9050620001be565b620001b66200021c60201b620018a71760201c565b9050620001bf565b5b90565b6000600160009054906101000a900473ffffffffffffffffffffffffffffffffffffffff1673ffffffffffffffffffffffffffffffffffffffff168273ffffffffffffffffffffffffffffffffffffffff16149050919050565b600033905090565b6000815190506200023581620002b0565b92915050565b600080604083850312156200024f57600080fd5b60006200025f8582860162000224565b9250506020620002728582860162000224565b9150509250929050565b6000620002898262000290565b9050919050565b600073ffffffffffffffffffffffffffffffffffffffff82169050919050565b620002bb816200027c565b8114620002c757600080fd5b50565b6129ff80620002da6000396000f3fe608060405234801561001057600080fd5b50600436106100f55760003560e01c80638da5cb5b11610097578063e78cea9211610066578063e78cea9214610288578063f2fde38b146102a6578063fab92894146102c2578063fc895869146102f2576100f5565b80638da5cb5b146101ea5780639d86698514610208578063a6037a291461023c578063b4e6810414610258576100f5565b8063486ff0cd116100d3578063486ff0cd14610162578063572b6c051461018057806370a08231146101b0578063715018a6146101e0576100f5565b806308774410146100fa5780630a14c01d146101165780631502239414610146575b600080fd5b610114600480360381019061010f9190611c2f565b61030e565b005b610130600480360381019061012b9190611c58565b6103ce565b60405161013d919061246c565b60405180910390f35b610160600480360381019061015b9190611d71565b6107a8565b005b61016a610a72565b6040516101779190612533565b60405180910390f35b61019a60048036038101906101959190611c2f565b610aaf565b6040516101a79190612451565b60405180910390f35b6101ca60048036038101906101c59190611c2f565b610b09565b6040516101d79190612655565b60405180910390f35b6101e8610b21565b005b6101f2610c5b565b6040516101ff9190612383565b60405180910390f35b610222600480360381019061021d9190611d1f565b610c84565b6040516102339594939291906123d5565b60405180910390f35b61025660048036038101906102519190611de8565b610d27565b005b610272600480360381019061026d9190611e4b565b610fad565b60405161027f919061246c565b60405180910390f35b610290611438565b60405161029d9190612383565b60405180910390f35b6102c060048036038101906102bb9190611c2f565b61145e565b005b6102dc60048036038101906102d79190611d1f565b611607565b6040516102e99190612518565b60405180910390f35b61030c60048036038101906103079190611d1f565b611627565b005b6103166118af565b73ffffffffffffffffffffffffffffffffffffffff16610334610c5b565b73ffffffffffffffffffffffffffffffffffffffff161461038a576040517f08c379a000000000000000000000000000000000000000000000000000000000815260040161038190612615565b60405180910390fd5b80600360006101000a81548173ffffffffffffffffffffffffffffffffffffffff021916908373ffffffffffffffffffffffffffffffffffffffff16021790555050565b60006103e3886103dc6118af565b308a6118e1565b61043587600260008b73ffffffffffffffffffffffffffffffffffffffff1673ffffffffffffffffffffffffffffffffffffffff16815260200190815260200160002054611a1a90919063ffffffff16565b600260008a73ffffffffffffffffffffffffffffffffffffffff1673ffffffffffffffffffffffffffffffffffffffff168152602001908152602001600020819055503060045460405160200161048d929190612357565b60405160208183030381529060405280519060200120905060006040518060600160405280603381526020016129976033913980519060200120828a8a8a6040516024016104de9493929190612487565b604051602081830303815290604052907bffffffffffffffffffffffffffffffffffffffffffffffffffffffff19166020820180517bffffffffffffffffffffffffffffffffffffffffffffffffffffffff838183161783525050505090508573ffffffffffffffffffffffffffffffffffffffff16636cebc9c2828787876040518563ffffffff1660e01b815260040161057c94939291906124cc565b602060405180830381600087803b15801561059657600080fd5b505af11580156105aa573d6000803e3d6000fd5b505050506040513d601f19601f820116820180604052508101906105ce9190611d48565b5060006005600084815260200190815260200160002090506105ee6118af565b8160000160006101000a81548173ffffffffffffffffffffffffffffffffffffffff021916908373ffffffffffffffffffffffffffffffffffffffff160217905550878160010160006101000a81548173ffffffffffffffffffffffffffffffffffffffff021916908373ffffffffffffffffffffffffffffffffffffffff160217905550898160030160006101000a81548173ffffffffffffffffffffffffffffffffffffffff021916908373ffffffffffffffffffffffffffffffffffffffff16021790555088816002018190555060018160030160146101000a81548160ff0219169083600281111561070d577f4e487b7100000000000000000000000000000000000000000000000000000000600052602160045260246000fd5b021790555060016004600082825461072591906126dc565b925050819055508773ffffffffffffffffffffffffffffffffffffffff1661074b6118af565b73ffffffffffffffffffffffffffffffffffffffff16847f79856ea8bc3d8f5d0a803c32f56f54884a196b09482b11134b6f2a6f6276a0b98c8e604051610793929190612670565b60405180910390a45050979650505050505050565b600160028111156107e2577f4e487b7100000000000000000000000000000000000000000000000000000000600052602160045260246000fd5b6006600087815260200190815260200160002060009054906101000a900460ff16600281111561083b577f4e487b7100000000000000000000000000000000000000000000000000000000600052602160045260246000fd5b141561087c576040517f08c379a0000000000000000000000000000000000000000000000000000000008152600401610873906125f5565b60405180910390fd5b60026006600087815260200190815260200160002060006101000a81548160ff021916908360028111156108d9577f4e487b7100000000000000000000000000000000000000000000000000000000600052602160045260246000fd5b021790555060006040518060400160405280601881526020017f656d657267656e6379556e6275726e2862797465733332290000000000000000815250805190602001208660405160240161092e919061246c565b604051602081830303815290604052907bffffffffffffffffffffffffffffffffffffffffffffffffffffffff19166020820180517bffffffffffffffffffffffffffffffffffffffffffffffffffffffff838183161783525050505090508473ffffffffffffffffffffffffffffffffffffffff16636cebc9c2828686866040518563ffffffff1660e01b81526004016109cc94939291906124cc565b602060405180830381600087803b1580156109e657600080fd5b505af11580156109fa573d6000803e3d6000fd5b505050506040513d601f19601f82011682018060405250810190610a1e9190611d48565b50610a276118af565b73ffffffffffffffffffffffffffffffffffffffff16867f40590cc12db0488520ce425059f83f8caed91bdf98de5ff829dc57c63843161b60405160405180910390a3505050505050565b60606040518060400160405280600581526020017f322e302e31000000000000000000000000000000000000000000000000000000815250905090565b6000600160009054906101000a900473ffffffffffffffffffffffffffffffffffffffff1673ffffffffffffffffffffffffffffffffffffffff168273ffffffffffffffffffffffffffffffffffffffff16149050919050565b60026020528060005260406000206000915090505481565b610b296118af565b73ffffffffffffffffffffffffffffffffffffffff16610b47610c5b565b73ffffffffffffffffffffffffffffffffffffffff1614610b9d576040517f08c379a0000000000000000000000000000000000000000000000000000000008152600401610b9490612615565b60405180910390fd5b600073ffffffffffffffffffffffffffffffffffffffff1660008054906101000a900473ffffffffffffffffffffffffffffffffffffffff1673ffffffffffffffffffffffffffffffffffffffff167f8be0079c531659141344cd1fd0a4f28419497f9722a3daafe3b4186f6b6457e060405160405180910390a360008060006101000a81548173ffffffffffffffffffffffffffffffffffffffff021916908373ffffffffffffffffffffffffffffffffffffffff160217905550565b60008060009054906101000a900473ffffffffffffffffffffffffffffffffffffffff16905090565b60056020528060005260406000206000915090508060000160009054906101000a900473ffffffffffffffffffffffffffffffffffffffff16908060010160009054906101000a900473ffffffffffffffffffffffffffffffffffffffff16908060020154908060030160009054906101000a900473ffffffffffffffffffffffffffffffffffffffff16908060030160149054906101000a900460ff16905085565b3373ffffffffffffffffffffffffffffffffffffffff16600360009054906101000a900473ffffffffffffffffffffffffffffffffffffffff1673ffffffffffffffffffffffffffffffffffffffff1614610d8157600080fd5b60006002811115610dbb577f4e487b7100000000000000000000000000000000000000000000000000000000600052602160045260246000fd5b6006600086815260200190815260200160002060009054906101000a900460ff166002811115610e14577f4e487b7100000000000000000000000000000000000000000000000000000000600052602160045260246000fd5b14610e54576040517f08c379a0000000000000000000000000000000000000000000000000000000008152600401610e4b906125b5565b60405180910390fd5b610e5f838284611a30565b610eb182600260008673ffffffffffffffffffffffffffffffffffffffff1673ffffffffffffffffffffffffffffffffffffffff16815260200190815260200160002054611b6690919063ffffffff16565b600260008573ffffffffffffffffffffffffffffffffffffffff1673ffffffffffffffffffffffffffffffffffffffff1681526020019081526020016000208190555060016006600086815260200190815260200160002060006101000a81548160ff02191690836002811115610f51577f4e487b7100000000000000000000000000000000000000000000000000000000600052602160045260246000fd5b02179055508073ffffffffffffffffffffffffffffffffffffffff16847f7d38b66fe45f4596a8e0f6d416747ea22ad1ef15891e9d7c8f848a044be974e08486604051610f9f929190612670565b60405180910390a350505050565b6000808873ffffffffffffffffffffffffffffffffffffffff168b8b604051610fd7929190612327565b6000604051808303816000865af19150503d8060008114611014576040519150601f19603f3d011682016040523d82523d6000602084013e611019565b606091505b505090508061105d576040517f08c379a000000000000000000000000000000000000000000000000000000000815260040161105490612595565b60405180910390fd5b611070896110696118af565b308b6118e1565b6110c288600260008c73ffffffffffffffffffffffffffffffffffffffff1673ffffffffffffffffffffffffffffffffffffffff16815260200190815260200160002054611a1a90919063ffffffff16565b600260008b73ffffffffffffffffffffffffffffffffffffffff1673ffffffffffffffffffffffffffffffffffffffff168152602001908152602001600020819055503060045460405160200161111a929190612357565b60405160208183030381529060405280519060200120915060006040518060600160405280603381526020016129976033913980519060200120838b8b8b60405160240161116b9493929190612487565b604051602081830303815290604052907bffffffffffffffffffffffffffffffffffffffffffffffffffffffff19166020820180517bffffffffffffffffffffffffffffffffffffffffffffffffffffffff838183161783525050505090508673ffffffffffffffffffffffffffffffffffffffff16636cebc9c2828888886040518563ffffffff1660e01b815260040161120994939291906124cc565b602060405180830381600087803b15801561122357600080fd5b505af1158015611237573d6000803e3d6000fd5b505050506040513d601f19601f8201168201806040525081019061125b9190611d48565b50600060056000858152602001908152602001600020905061127b6118af565b8160000160006101000a81548173ffffffffffffffffffffffffffffffffffffffff021916908373ffffffffffffffffffffffffffffffffffffffff160217905550888160010160006101000a81548173ffffffffffffffffffffffffffffffffffffffff021916908373ffffffffffffffffffffffffffffffffffffffff1602179055508a8160030160006101000a81548173ffffffffffffffffffffffffffffffffffffffff021916908373ffffffffffffffffffffffffffffffffffffffff16021790555089816002018190555060018160030160146101000a81548160ff0219169083600281111561139a577f4e487b7100000000000000000000000000000000000000000000000000000000600052602160045260246000fd5b02179055506001600460008282546113b291906126dc565b925050819055508873ffffffffffffffffffffffffffffffffffffffff166113d86118af565b73ffffffffffffffffffffffffffffffffffffffff16857f79856ea8bc3d8f5d0a803c32f56f54884a196b09482b11134b6f2a6f6276a0b98d8f604051611420929190612670565b60405180910390a45050509998505050505050505050565b600360009054906101000a900473ffffffffffffffffffffffffffffffffffffffff1681565b6114666118af565b73ffffffffffffffffffffffffffffffffffffffff16611484610c5b565b73ffffffffffffffffffffffffffffffffffffffff16146114da576040517f08c379a00000000000000000000000000000000000000000000000000000000081526004016114d190612615565b60405180910390fd5b600073ffffffffffffffffffffffffffffffffffffffff168173ffffffffffffffffffffffffffffffffffffffff16141561154a576040517f08c379a000000000000000000000000000000000000000000000000000000000815260040161154190612575565b60405180910390fd5b8073ffffffffffffffffffffffffffffffffffffffff1660008054906101000a900473ffffffffffffffffffffffffffffffffffffffff1673ffffffffffffffffffffffffffffffffffffffff167f8be0079c531659141344cd1fd0a4f28419497f9722a3daafe3b4186f6b6457e060405160405180910390a3806000806101000a81548173ffffffffffffffffffffffffffffffffffffffff021916908373ffffffffffffffffffffffffffffffffffffffff16021790555050565b60066020528060005260406000206000915054906101000a900460ff1681565b3373ffffffffffffffffffffffffffffffffffffffff16600360009054906101000a900473ffffffffffffffffffffffffffffffffffffffff1673ffffffffffffffffffffffffffffffffffffffff161461168157600080fd5b6000600560008381526020019081526020016000209050600160028111156116d2577f4e487b7100000000000000000000000000000000000000000000000000000000600052602160045260246000fd5b8160030160149054906101000a900460ff16600281111561171c577f4e487b7100000000000000000000000000000000000000000000000000000000600052602160045260246000fd5b1461175c576040517f08c379a0000000000000000000000000000000000000000000000000000000008152600401611753906125d5565b60405180910390fd5b60028160030160146101000a81548160ff021916908360028111156117aa577f4e487b7100000000000000000000000000000000000000000000000000000000600052602160045260246000fd5b02179055506118068160030160009054906101000a900473ffffffffffffffffffffffffffffffffffffffff168260000160009054906101000a900473ffffffffffffffffffffffffffffffffffffffff168360020154611a30565b8060000160009054906101000a900473ffffffffffffffffffffffffffffffffffffffff1673ffffffffffffffffffffffffffffffffffffffff16827f944f1d3ef1c50472b370611627295b06b64eca841d2de116bb7634a08a097ca983600201548460030160009054906101000a900473ffffffffffffffffffffffffffffffffffffffff1660405161189b929190612670565b60405180910390a35050565b600033905090565b60006118ba33610aaf565b156118ce57601436033560601c90506118dd565b6118d66118a7565b90506118de565b5b90565b6000808573ffffffffffffffffffffffffffffffffffffffff166323b872dd8686866040516024016119159392919061239e565b6040516020818303038152906040529060e01b6020820180517bffffffffffffffffffffffffffffffffffffffffffffffffffffffff83818316178352505050506040516119639190612340565b6000604051808303816000865af19150503d80600081146119a0576040519150601f19603f3d011682016040523d82523d6000602084013e6119a5565b606091505b50915091508180156119d357506000815114806119d25750808060200190518101906119d19190611cf6565b5b5b611a12576040517f08c379a0000000000000000000000000000000000000000000000000000000008152600401611a0990612635565b60405180910390fd5b505050505050565b60008183611a2891906126dc565b905092915050565b6000808473ffffffffffffffffffffffffffffffffffffffff1663a9059cbb8585604051602401611a62929190612428565b6040516020818303038152906040529060e01b6020820180517bffffffffffffffffffffffffffffffffffffffffffffffffffffffff8381831617835250505050604051611ab09190612340565b6000604051808303816000865af19150503d8060008114611aed576040519150601f19603f3d011682016040523d82523d6000602084013e611af2565b606091505b5091509150818015611b205750600081511480611b1f575080806020019051810190611b1e9190611cf6565b5b5b611b5f576040517f08c379a0000000000000000000000000000000000000000000000000000000008152600401611b5690612555565b60405180910390fd5b5050505050565b60008183611b749190612732565b905092915050565b600081359050611b8b8161293a565b92915050565b600081519050611ba081612951565b92915050565b600081359050611bb581612968565b92915050565b600081519050611bca81612968565b92915050565b60008083601f840112611be257600080fd5b8235905067ffffffffffffffff811115611bfb57600080fd5b602083019150836001820283011115611c1357600080fd5b9250929050565b600081359050611c298161297f565b92915050565b600060208284031215611c4157600080fd5b6000611c4f84828501611b7c565b91505092915050565b600080600080600080600060e0888a031215611c7357600080fd5b6000611c818a828b01611b7c565b9750506020611c928a828b01611c1a565b9650506040611ca38a828b01611b7c565b9550506060611cb48a828b01611b7c565b9450506080611cc58a828b01611b7c565b93505060a0611cd68a828b01611b7c565b92505060c0611ce78a828b01611c1a565b91505092959891949750929550565b600060208284031215611d0857600080fd5b6000611d1684828501611b91565b91505092915050565b600060208284031215611d3157600080fd5b6000611d3f84828501611ba6565b91505092915050565b600060208284031215611d5a57600080fd5b6000611d6884828501611bbb565b91505092915050565b600080600080600060a08688031215611d8957600080fd5b6000611d9788828901611ba6565b9550506020611da888828901611b7c565b9450506040611db988828901611b7c565b9350506060611dca88828901611b7c565b9250506080611ddb88828901611c1a565b9150509295509295909350565b60008060008060808587031215611dfe57600080fd5b6000611e0c87828801611ba6565b9450506020611e1d87828801611b7c565b9350506040611e2e87828801611c1a565b9250506060611e3f87828801611b7c565b91505092959194509250565b60008060008060008060008060006101008a8c031215611e6a57600080fd5b60008a013567ffffffffffffffff811115611e8457600080fd5b611e908c828d01611bd0565b99509950506020611ea38c828d01611b7c565b9750506040611eb48c828d01611c1a565b9650506060611ec58c828d01611b7c565b9550506080611ed68c828d01611b7c565b94505060a0611ee78c828d01611b7c565b93505060c0611ef88c828d01611b7c565b92505060e0611f098c828d01611c1a565b9150509295985092959850929598565b611f2281612766565b82525050565b611f3181612778565b82525050565b611f4081612784565b82525050565b6000611f5283856126c0565b9350611f5f838584612826565b82840190509392505050565b6000611f7682612699565b611f8081856126af565b9350611f90818560208601612835565b611f99816128f4565b840191505092915050565b6000611faf82612699565b611fb981856126c0565b9350611fc9818560208601612835565b80840191505092915050565b611fe6611fe1826127de565b612868565b82525050565b611ff581612802565b82525050565b61200481612814565b82525050565b6000612015826126a4565b61201f81856126cb565b935061202f818560208601612835565b612038816128f4565b840191505092915050565b6000612050601f836126cb565b91507f5472616e7366657248656c7065723a205452414e534645525f4641494c4544006000830152602082019050919050565b60006120906026836126cb565b91507f4f776e61626c653a206e6577206f776e657220697320746865207a65726f206160008301527f64647265737300000000000000000000000000000000000000000000000000006020830152604082019050919050565b60006120f66013836126cb565b91507f417070726f76652063616c6c206661696c6564000000000000000000000000006000830152602082019050919050565b60006121366027836126cb565b91507f506f7274616c3a2073796e746174696320746f6b656e7320656d657267656e6360008301527f79556e6275726e000000000000000000000000000000000000000000000000006020830152604082019050919050565b600061219c602a836126cb565b91507f506f7274616c3a7374617465206e6f74206f70656e206f7220747820646f657360008301527f206e6f74206578697374000000000000000000000000000000000000000000006020830152604082019050919050565b60006122026026836126cb565b91507f506f7274616c3a205265616c20746f6b656e7320616c7265616479207472616e60008301527f73666572656400000000000000000000000000000000000000000000000000006020830152604082019050919050565b60006122686020836126cb565b91507f4f776e61626c653a2063616c6c6572206973206e6f7420746865206f776e65726000830152602082019050919050565b60006122a86024836126cb565b91507f5472616e7366657248656c7065723a205452414e534645525f46524f4d5f464160008301527f494c4544000000000000000000000000000000000000000000000000000000006020830152604082019050919050565b61230a816127d4565b82525050565b61232161231c826127d4565b61288c565b82525050565b6000612334828486611f46565b91508190509392505050565b600061234c8284611fa4565b915081905092915050565b60006123638285611fd5565b6014820191506123738284612310565b6020820191508190509392505050565b60006020820190506123986000830184611f19565b92915050565b60006060820190506123b36000830186611f19565b6123c06020830185611f19565b6123cd6040830184612301565b949350505050565b600060a0820190506123ea6000830188611f19565b6123f76020830187611f19565b6124046040830186612301565b6124116060830185611f19565b61241e6080830184611fec565b9695505050505050565b600060408201905061243d6000830185611f19565b61244a6020830184612301565b9392505050565b60006020820190506124666000830184611f28565b92915050565b60006020820190506124816000830184611f37565b92915050565b600060808201905061249c6000830187611f37565b6124a96020830186611f19565b6124b66040830185612301565b6124c36060830184611f19565b95945050505050565b600060808201905081810360008301526124e68187611f6b565b90506124f56020830186611f19565b6125026040830185611f19565b61250f6060830184612301565b95945050505050565b600060208201905061252d6000830184611ffb565b92915050565b6000602082019050818103600083015261254d818461200a565b905092915050565b6000602082019050818103600083015261256e81612043565b9050919050565b6000602082019050818103600083015261258e81612083565b9050919050565b600060208201905081810360008301526125ae816120e9565b9050919050565b600060208201905081810360008301526125ce81612129565b9050919050565b600060208201905081810360008301526125ee8161218f565b9050919050565b6000602082019050818103600083015261260e816121f5565b9050919050565b6000602082019050818103600083015261262e8161225b565b9050919050565b6000602082019050818103600083015261264e8161229b565b9050919050565b600060208201905061266a6000830184612301565b92915050565b60006040820190506126856000830185612301565b6126926020830184611f19565b9392505050565b600081519050919050565b600081519050919050565b600082825260208201905092915050565b600081905092915050565b600082825260208201905092915050565b60006126e7826127d4565b91506126f2836127d4565b9250827fffffffffffffffffffffffffffffffffffffffffffffffffffffffffffffffff0382111561272757612726612896565b5b828201905092915050565b600061273d826127d4565b9150612748836127d4565b92508282101561275b5761275a612896565b5b828203905092915050565b6000612771826127b4565b9050919050565b60008115159050919050565b6000819050919050565b600081905061279c82612912565b919050565b60008190506127af82612926565b919050565b600073ffffffffffffffffffffffffffffffffffffffff82169050919050565b6000819050919050565b60006127e9826127f0565b9050919050565b60006127fb826127b4565b9050919050565b600061280d8261278e565b9050919050565b600061281f826127a1565b9050919050565b82818337600083830152505050565b60005b83811015612853578082015181840152602081019050612838565b83811115612862576000848401525b50505050565b60006128738261287a565b9050919050565b600061288582612905565b9050919050565b6000819050919050565b7f4e487b7100000000000000000000000000000000000000000000000000000000600052601160045260246000fd5b7f4e487b7100000000000000000000000000000000000000000000000000000000600052602160045260246000fd5b6000601f19601f8301169050919050565b60008160601b9050919050565b60038110612923576129226128c5565b5b50565b60038110612937576129366128c5565b5b50565b61294381612766565b811461294e57600080fd5b50565b61295a81612778565b811461296557600080fd5b50565b61297181612784565b811461297c57600080fd5b50565b612988816127d4565b811461299357600080fd5b5056fe6d696e7453796e746865746963546f6b656e28627974657333322c616464726573732c75696e743235362c6164647265737329a26469706673582212200bc2e10bd89b946f153ff5131dacd4c14a1bab7c16eac2d24da1c9561a24228b64736f6c63430008000033",
  "linkReferences": {},
  "deployedLinkReferences": {}
}