{
  "_format": "hh-sol-artifact-1",
  "contractName": "Portal",
  "sourceName": "contracts/Portal.sol",
  "abi": [
    {
      "inputs": [
        {
          "internalType": "address",
          "name": "_bridge",
          "type": "address"
        },
        {
          "internalType": "address",
          "name": "_trustedForwarder",
          "type": "address"
        }
      ],
      "stateMutability": "nonpayable",
      "type": "constructor"
    },
    {
      "anonymous": false,
      "inputs": [
        {
          "indexed": true,
          "internalType": "bytes32",
          "name": "_id",
          "type": "bytes32"
        },
        {
          "indexed": true,
          "internalType": "address",
          "name": "_to",
          "type": "address"
        },
        {
          "indexed": false,
          "internalType": "uint256",
          "name": "_amount",
          "type": "uint256"
        },
        {
          "indexed": false,
          "internalType": "address",
          "name": "_token",
          "type": "address"
        }
      ],
      "name": "BurnCompleted",
      "type": "event"
    },
    {
      "anonymous": false,
      "inputs": [
        {
          "indexed": true,
          "internalType": "address",
          "name": "previousOwner",
          "type": "address"
        },
        {
          "indexed": true,
          "internalType": "address",
          "name": "newOwner",
          "type": "address"
        }
      ],
      "name": "OwnershipTransferred",
      "type": "event"
    },
    {
      "anonymous": false,
      "inputs": [
        {
          "indexed": true,
          "internalType": "bytes32",
          "name": "_id",
          "type": "bytes32"
        },
        {
          "indexed": true,
          "internalType": "address",
          "name": "_to",
          "type": "address"
        }
      ],
      "name": "RevertBurnRequest",
      "type": "event"
    },
    {
      "anonymous": false,
      "inputs": [
        {
          "indexed": true,
          "internalType": "bytes32",
          "name": "_id",
          "type": "bytes32"
        },
        {
          "indexed": true,
          "internalType": "address",
          "name": "_to",
          "type": "address"
        },
        {
          "indexed": false,
          "internalType": "uint256",
          "name": "_amount",
          "type": "uint256"
        },
        {
          "indexed": false,
          "internalType": "address",
          "name": "_token",
          "type": "address"
        }
      ],
      "name": "RevertSynthesizeCompleted",
      "type": "event"
    },
    {
      "anonymous": false,
      "inputs": [
        {
          "indexed": true,
          "internalType": "bytes32",
          "name": "_id",
          "type": "bytes32"
        },
        {
          "indexed": true,
          "internalType": "address",
          "name": "_from",
          "type": "address"
        },
        {
          "indexed": true,
          "internalType": "address",
          "name": "_to",
          "type": "address"
        },
        {
          "indexed": false,
          "internalType": "uint256",
          "name": "_amount",
          "type": "uint256"
        },
        {
          "indexed": false,
          "internalType": "address",
          "name": "_token",
          "type": "address"
        }
      ],
      "name": "SynthesizeRequest",
      "type": "event"
    },
    {
      "inputs": [
        {
          "internalType": "address",
          "name": "",
          "type": "address"
        }
      ],
      "name": "balanceOf",
      "outputs": [
        {
          "internalType": "uint256",
          "name": "",
          "type": "uint256"
        }
      ],
      "stateMutability": "view",
      "type": "function"
    },
    {
      "inputs": [],
      "name": "bridge",
      "outputs": [
        {
          "internalType": "address",
          "name": "",
          "type": "address"
        }
      ],
      "stateMutability": "view",
      "type": "function"
    },
    {
      "inputs": [
        {
          "internalType": "address",
          "name": "_bridge",
          "type": "address"
        }
      ],
      "name": "changeBridge",
      "outputs": [],
      "stateMutability": "nonpayable",
      "type": "function"
    },
    {
      "inputs": [
        {
          "internalType": "bytes32",
          "name": "_txID",
          "type": "bytes32"
        },
        {
          "internalType": "address",
          "name": "_receiveSide",
          "type": "address"
        },
        {
          "internalType": "address",
          "name": "_oppositeBridge",
          "type": "address"
        },
        {
          "internalType": "uint256",
          "name": "_chainId",
          "type": "uint256"
        }
      ],
      "name": "emergencyUnburnRequest",
      "outputs": [],
      "stateMutability": "nonpayable",
      "type": "function"
    },
    {
      "inputs": [
        {
          "internalType": "bytes32",
          "name": "_txID",
          "type": "bytes32"
        }
      ],
      "name": "emergencyUnsynthesize",
      "outputs": [],
      "stateMutability": "nonpayable",
      "type": "function"
    },
    {
      "inputs": [
        {
          "internalType": "address",
          "name": "forwarder",
          "type": "address"
        }
      ],
      "name": "isTrustedForwarder",
      "outputs": [
        {
          "internalType": "bool",
          "name": "",
          "type": "bool"
        }
      ],
      "stateMutability": "view",
      "type": "function"
    },
    {
      "inputs": [],
      "name": "owner",
      "outputs": [
        {
          "internalType": "address",
          "name": "",
          "type": "address"
        }
      ],
      "stateMutability": "view",
      "type": "function"
    },
    {
      "inputs": [],
      "name": "renounceOwnership",
      "outputs": [],
      "stateMutability": "nonpayable",
      "type": "function"
    },
    {
      "inputs": [
        {
          "internalType": "bytes32",
          "name": "",
          "type": "bytes32"
        }
      ],
      "name": "requests",
      "outputs": [
        {
          "internalType": "address",
          "name": "recipient",
          "type": "address"
        },
        {
          "internalType": "address",
          "name": "chain2address",
          "type": "address"
        },
        {
          "internalType": "uint256",
          "name": "amount",
          "type": "uint256"
        },
        {
          "internalType": "address",
          "name": "rtoken",
          "type": "address"
        },
        {
          "internalType": "enum Portal.RequestState",
          "name": "state",
          "type": "uint8"
        }
      ],
      "stateMutability": "view",
      "type": "function"
    },
    {
      "inputs": [
        {
          "internalType": "address",
          "name": "_token",
          "type": "address"
        },
        {
          "internalType": "uint256",
          "name": "_amount",
          "type": "uint256"
        },
        {
          "internalType": "address",
          "name": "_chain2address",
          "type": "address"
        },
        {
          "internalType": "address",
          "name": "_receiveSide",
          "type": "address"
        },
        {
          "internalType": "address",
          "name": "_oppositeBridge",
          "type": "address"
        },
        {
          "internalType": "uint256",
          "name": "_chainID",
          "type": "uint256"
        }
      ],
      "name": "synthesize",
      "outputs": [
        {
          "internalType": "bytes32",
          "name": "txID",
          "type": "bytes32"
        }
      ],
      "stateMutability": "nonpayable",
      "type": "function"
    },
    {
      "inputs": [
        {
          "internalType": "bytes",
          "name": "_approvalData",
          "type": "bytes"
        },
        {
          "internalType": "address",
          "name": "_token",
          "type": "address"
        },
        {
          "internalType": "uint256",
          "name": "_amount",
          "type": "uint256"
        },
        {
          "internalType": "address",
          "name": "_chain2address",
          "type": "address"
        },
        {
          "internalType": "address",
          "name": "_receiveSide",
          "type": "address"
        },
        {
          "internalType": "address",
          "name": "_oppositeBridge",
          "type": "address"
        },
        {
          "internalType": "uint256",
          "name": "_chainID",
          "type": "uint256"
        }
      ],
      "name": "synthesizeWithPermit",
      "outputs": [
        {
          "internalType": "bytes32",
          "name": "txID",
          "type": "bytes32"
        }
      ],
      "stateMutability": "nonpayable",
      "type": "function"
    },
    {
      "inputs": [
        {
          "internalType": "address",
          "name": "newOwner",
          "type": "address"
        }
      ],
      "name": "transferOwnership",
      "outputs": [],
      "stateMutability": "nonpayable",
      "type": "function"
    },
    {
      "inputs": [
        {
          "internalType": "bytes32",
          "name": "_txID",
          "type": "bytes32"
        },
        {
          "internalType": "address",
          "name": "_token",
          "type": "address"
        },
        {
          "internalType": "uint256",
          "name": "_amount",
          "type": "uint256"
        },
        {
          "internalType": "address",
          "name": "_to",
          "type": "address"
        }
      ],
      "name": "unsynthesize",
      "outputs": [],
      "stateMutability": "nonpayable",
      "type": "function"
    },
    {
      "inputs": [
        {
          "internalType": "bytes32",
          "name": "",
          "type": "bytes32"
        }
      ],
      "name": "unsynthesizeStates",
      "outputs": [
        {
          "internalType": "enum Portal.UnsynthesizeState",
          "name": "",
          "type": "uint8"
        }
      ],
      "stateMutability": "view",
      "type": "function"
    },
    {
      "inputs": [],
      "name": "versionRecipient",
      "outputs": [
        {
          "internalType": "string",
          "name": "",
          "type": "string"
        }
      ],
      "stateMutability": "view",
      "type": "function"
    }
  ],
  "bytecode": "0x608060405260016004553480156200001657600080fd5b5060405162002cff38038062002cff83398181016040528101906200003c91906200023b565b8060006200004f6200017860201b60201c565b9050806000806101000a81548173ffffffffffffffffffffffffffffffffffffffff021916908373ffffffffffffffffffffffffffffffffffffffff1602179055508073ffffffffffffffffffffffffffffffffffffffff16600073ffffffffffffffffffffffffffffffffffffffff167f8be0079c531659141344cd1fd0a4f28419497f9722a3daafe3b4186f6b6457e060405160405180910390a35080600160006101000a81548173ffffffffffffffffffffffffffffffffffffffff021916908373ffffffffffffffffffffffffffffffffffffffff1602179055505081600360006101000a81548173ffffffffffffffffffffffffffffffffffffffff021916908373ffffffffffffffffffffffffffffffffffffffff1602179055505050620002ca565b60006200018b33620001c260201b60201c565b15620001a157601436033560601c9050620001be565b620001b66200021c60201b6200190a1760201c565b9050620001bf565b5b90565b6000600160009054906101000a900473ffffffffffffffffffffffffffffffffffffffff1673ffffffffffffffffffffffffffffffffffffffff168273ffffffffffffffffffffffffffffffffffffffff16149050919050565b600033905090565b6000815190506200023581620002b0565b92915050565b600080604083850312156200024f57600080fd5b60006200025f8582860162000224565b9250506020620002728582860162000224565b9150509250929050565b6000620002898262000290565b9050919050565b600073ffffffffffffffffffffffffffffffffffffffff82169050919050565b620002bb816200027c565b8114620002c757600080fd5b50565b612a2580620002da6000396000f3fe608060405234801561001057600080fd5b50600436106100f55760003560e01c80638da5cb5b11610097578063e78cea9211610066578063e78cea9214610288578063f2fde38b146102a6578063fab92894146102c2578063fc895869146102f2576100f5565b80638da5cb5b146101ea5780639a1962fb146102085780639d86698514610238578063a6037a291461026c576100f5565b80635bb8809f116100d35780635bb8809f1461016457806370a0823114610194578063715018a6146101c45780637ac3a7ad146101ce576100f5565b806308774410146100fa578063486ff0cd14610116578063572b6c0514610134575b600080fd5b610114600480360381019061010f9190611c92565b61030e565b005b61011e6103ce565b60405161012b9190612559565b60405180910390f35b61014e60048036038101906101499190611c92565b61040b565b60405161015b9190612477565b60405180910390f35b61017e60048036038101906101799190611cbb565b610465565b60405161018b9190612492565b60405180910390f35b6101ae60048036038101906101a99190611c92565b610860565b6040516101bb919061267b565b60405180910390f35b6101cc610878565b005b6101e860048036038101906101e39190611dbf565b6109b2565b005b6101f2610c9d565b6040516101ff91906123a9565b60405180910390f35b610222600480360381019061021d9190611e85565b610cc6565b60405161022f9190612492565b60405180910390f35b610252600480360381019061024d9190611d6d565b611172565b6040516102639594939291906123fb565b60405180910390f35b61028660048036038101906102819190611e22565b611215565b005b61029061149b565b60405161029d91906123a9565b60405180910390f35b6102c060048036038101906102bb9190611c92565b6114c1565b005b6102dc60048036038101906102d79190611d6d565b61166a565b6040516102e9919061253e565b60405180910390f35b61030c60048036038101906103079190611d6d565b61168a565b005b610316611912565b73ffffffffffffffffffffffffffffffffffffffff16610334610c9d565b73ffffffffffffffffffffffffffffffffffffffff161461038a576040517f08c379a00000000000000000000000000000000000000000000000000000000081526004016103819061263b565b60405180910390fd5b80600360006101000a81548173ffffffffffffffffffffffffffffffffffffffff021916908373ffffffffffffffffffffffffffffffffffffffff16021790555050565b60606040518060400160405280600581526020017f322e302e31000000000000000000000000000000000000000000000000000000815250905090565b6000600160009054906101000a900473ffffffffffffffffffffffffffffffffffffffff1673ffffffffffffffffffffffffffffffffffffffff168273ffffffffffffffffffffffffffffffffffffffff16149050919050565b600061047a87610473611912565b3089611944565b6104cc86600260008a73ffffffffffffffffffffffffffffffffffffffff1673ffffffffffffffffffffffffffffffffffffffff16815260200190815260200160002054611a7d90919063ffffffff16565b600260008973ffffffffffffffffffffffffffffffffffffffff1673ffffffffffffffffffffffffffffffffffffffff168152602001908152602001600020819055503060045460405160200161052492919061237d565b60405160208183030381529060405280519060200120905060006040518060600160405280603381526020016129bd60339139805190602001208289898960405160240161057594939291906124ad565b604051602081830303815290604052907bffffffffffffffffffffffffffffffffffffffffffffffffffffffff19166020820180517bffffffffffffffffffffffffffffffffffffffffffffffffffffffff83818316178352505050509050600360009054906101000a900473ffffffffffffffffffffffffffffffffffffffff1673ffffffffffffffffffffffffffffffffffffffff16636cebc9c2828787876040518563ffffffff1660e01b815260040161063594939291906124f2565b602060405180830381600087803b15801561064f57600080fd5b505af1158015610663573d6000803e3d6000fd5b505050506040513d601f19601f820116820180604052508101906106879190611d96565b5060006005600084815260200190815260200160002090506106a7611912565b8160000160006101000a81548173ffffffffffffffffffffffffffffffffffffffff021916908373ffffffffffffffffffffffffffffffffffffffff160217905550868160010160006101000a81548173ffffffffffffffffffffffffffffffffffffffff021916908373ffffffffffffffffffffffffffffffffffffffff160217905550888160030160006101000a81548173ffffffffffffffffffffffffffffffffffffffff021916908373ffffffffffffffffffffffffffffffffffffffff16021790555087816002018190555060018160030160146101000a81548160ff021916908360028111156107c6577f4e487b7100000000000000000000000000000000000000000000000000000000600052602160045260246000fd5b02179055506001600460008282546107de9190612702565b925050819055508673ffffffffffffffffffffffffffffffffffffffff16610804611912565b73ffffffffffffffffffffffffffffffffffffffff16847f79856ea8bc3d8f5d0a803c32f56f54884a196b09482b11134b6f2a6f6276a0b98b8d60405161084c929190612696565b60405180910390a450509695505050505050565b60026020528060005260406000206000915090505481565b610880611912565b73ffffffffffffffffffffffffffffffffffffffff1661089e610c9d565b73ffffffffffffffffffffffffffffffffffffffff16146108f4576040517f08c379a00000000000000000000000000000000000000000000000000000000081526004016108eb9061263b565b60405180910390fd5b600073ffffffffffffffffffffffffffffffffffffffff1660008054906101000a900473ffffffffffffffffffffffffffffffffffffffff1673ffffffffffffffffffffffffffffffffffffffff167f8be0079c531659141344cd1fd0a4f28419497f9722a3daafe3b4186f6b6457e060405160405180910390a360008060006101000a81548173ffffffffffffffffffffffffffffffffffffffff021916908373ffffffffffffffffffffffffffffffffffffffff160217905550565b600160028111156109ec577f4e487b7100000000000000000000000000000000000000000000000000000000600052602160045260246000fd5b6006600086815260200190815260200160002060009054906101000a900460ff166002811115610a45577f4e487b7100000000000000000000000000000000000000000000000000000000600052602160045260246000fd5b1415610a86576040517f08c379a0000000000000000000000000000000000000000000000000000000008152600401610a7d9061261b565b60405180910390fd5b60026006600086815260200190815260200160002060006101000a81548160ff02191690836002811115610ae3577f4e487b7100000000000000000000000000000000000000000000000000000000600052602160045260246000fd5b021790555060006040518060400160405280601881526020017f656d657267656e6379556e6275726e28627974657333322900000000000000008152508051906020012085604051602401610b389190612492565b604051602081830303815290604052907bffffffffffffffffffffffffffffffffffffffffffffffffffffffff19166020820180517bffffffffffffffffffffffffffffffffffffffffffffffffffffffff83818316178352505050509050600360009054906101000a900473ffffffffffffffffffffffffffffffffffffffff1673ffffffffffffffffffffffffffffffffffffffff16636cebc9c2828686866040518563ffffffff1660e01b8152600401610bf894939291906124f2565b602060405180830381600087803b158015610c1257600080fd5b505af1158015610c26573d6000803e3d6000fd5b505050506040513d601f19601f82011682018060405250810190610c4a9190611d96565b50610c53611912565b73ffffffffffffffffffffffffffffffffffffffff16857f40590cc12db0488520ce425059f83f8caed91bdf98de5ff829dc57c63843161b60405160405180910390a35050505050565b60008060009054906101000a900473ffffffffffffffffffffffffffffffffffffffff16905090565b6000808773ffffffffffffffffffffffffffffffffffffffff168a8a604051610cf092919061234d565b6000604051808303816000865af19150503d8060008114610d2d576040519150601f19603f3d011682016040523d82523d6000602084013e610d32565b606091505b5050905080610d76576040517f08c379a0000000000000000000000000000000000000000000000000000000008152600401610d6d906125bb565b60405180910390fd5b610d8988610d82611912565b308a611944565b610ddb87600260008b73ffffffffffffffffffffffffffffffffffffffff1673ffffffffffffffffffffffffffffffffffffffff16815260200190815260200160002054611a7d90919063ffffffff16565b600260008a73ffffffffffffffffffffffffffffffffffffffff1673ffffffffffffffffffffffffffffffffffffffff1681526020019081526020016000208190555030600454604051602001610e3392919061237d565b60405160208183030381529060405280519060200120915060006040518060600160405280603381526020016129bd6033913980519060200120838a8a8a604051602401610e8494939291906124ad565b604051602081830303815290604052907bffffffffffffffffffffffffffffffffffffffffffffffffffffffff19166020820180517bffffffffffffffffffffffffffffffffffffffffffffffffffffffff83818316178352505050509050600360009054906101000a900473ffffffffffffffffffffffffffffffffffffffff1673ffffffffffffffffffffffffffffffffffffffff16636cebc9c2828888886040518563ffffffff1660e01b8152600401610f4494939291906124f2565b602060405180830381600087803b158015610f5e57600080fd5b505af1158015610f72573d6000803e3d6000fd5b505050506040513d601f19601f82011682018060405250810190610f969190611d96565b506000600560008581526020019081526020016000209050610fb6611912565b8160000160006101000a81548173ffffffffffffffffffffffffffffffffffffffff021916908373ffffffffffffffffffffffffffffffffffffffff160217905550878160010160006101000a81548173ffffffffffffffffffffffffffffffffffffffff021916908373ffffffffffffffffffffffffffffffffffffffff160217905550898160030160006101000a81548173ffffffffffffffffffffffffffffffffffffffff021916908373ffffffffffffffffffffffffffffffffffffffff16021790555088816002018190555060018160030160146101000a81548160ff021916908360028111156110d5577f4e487b7100000000000000000000000000000000000000000000000000000000600052602160045260246000fd5b02179055506001600460008282546110ed9190612702565b925050819055508773ffffffffffffffffffffffffffffffffffffffff16611113611912565b73ffffffffffffffffffffffffffffffffffffffff16857f79856ea8bc3d8f5d0a803c32f56f54884a196b09482b11134b6f2a6f6276a0b98c8e60405161115b929190612696565b60405180910390a450505098975050505050505050565b60056020528060005260406000206000915090508060000160009054906101000a900473ffffffffffffffffffffffffffffffffffffffff16908060010160009054906101000a900473ffffffffffffffffffffffffffffffffffffffff16908060020154908060030160009054906101000a900473ffffffffffffffffffffffffffffffffffffffff16908060030160149054906101000a900460ff16905085565b3373ffffffffffffffffffffffffffffffffffffffff16600360009054906101000a900473ffffffffffffffffffffffffffffffffffffffff1673ffffffffffffffffffffffffffffffffffffffff161461126f57600080fd5b600060028111156112a9577f4e487b7100000000000000000000000000000000000000000000000000000000600052602160045260246000fd5b6006600086815260200190815260200160002060009054906101000a900460ff166002811115611302577f4e487b7100000000000000000000000000000000000000000000000000000000600052602160045260246000fd5b14611342576040517f08c379a0000000000000000000000000000000000000000000000000000000008152600401611339906125db565b60405180910390fd5b61134d838284611a93565b61139f82600260008673ffffffffffffffffffffffffffffffffffffffff1673ffffffffffffffffffffffffffffffffffffffff16815260200190815260200160002054611bc990919063ffffffff16565b600260008573ffffffffffffffffffffffffffffffffffffffff1673ffffffffffffffffffffffffffffffffffffffff1681526020019081526020016000208190555060016006600086815260200190815260200160002060006101000a81548160ff0219169083600281111561143f577f4e487b7100000000000000000000000000000000000000000000000000000000600052602160045260246000fd5b02179055508073ffffffffffffffffffffffffffffffffffffffff16847f7d38b66fe45f4596a8e0f6d416747ea22ad1ef15891e9d7c8f848a044be974e0848660405161148d929190612696565b60405180910390a350505050565b600360009054906101000a900473ffffffffffffffffffffffffffffffffffffffff1681565b6114c9611912565b73ffffffffffffffffffffffffffffffffffffffff166114e7610c9d565b73ffffffffffffffffffffffffffffffffffffffff161461153d576040517f08c379a00000000000000000000000000000000000000000000000000000000081526004016115349061263b565b60405180910390fd5b600073ffffffffffffffffffffffffffffffffffffffff168173ffffffffffffffffffffffffffffffffffffffff1614156115ad576040517f08c379a00000000000000000000000000000000000000000000000000000000081526004016115a49061259b565b60405180910390fd5b8073ffffffffffffffffffffffffffffffffffffffff1660008054906101000a900473ffffffffffffffffffffffffffffffffffffffff1673ffffffffffffffffffffffffffffffffffffffff167f8be0079c531659141344cd1fd0a4f28419497f9722a3daafe3b4186f6b6457e060405160405180910390a3806000806101000a81548173ffffffffffffffffffffffffffffffffffffffff021916908373ffffffffffffffffffffffffffffffffffffffff16021790555050565b60066020528060005260406000206000915054906101000a900460ff1681565b3373ffffffffffffffffffffffffffffffffffffffff16600360009054906101000a900473ffffffffffffffffffffffffffffffffffffffff1673ffffffffffffffffffffffffffffffffffffffff16146116e457600080fd5b600060056000838152602001908152602001600020905060016002811115611735577f4e487b7100000000000000000000000000000000000000000000000000000000600052602160045260246000fd5b8160030160149054906101000a900460ff16600281111561177f577f4e487b7100000000000000000000000000000000000000000000000000000000600052602160045260246000fd5b146117bf576040517f08c379a00000000000000000000000000000000000000000000000000000000081526004016117b6906125fb565b60405180910390fd5b60028160030160146101000a81548160ff0219169083600281111561180d577f4e487b7100000000000000000000000000000000000000000000000000000000600052602160045260246000fd5b02179055506118698160030160009054906101000a900473ffffffffffffffffffffffffffffffffffffffff168260000160009054906101000a900473ffffffffffffffffffffffffffffffffffffffff168360020154611a93565b8060000160009054906101000a900473ffffffffffffffffffffffffffffffffffffffff1673ffffffffffffffffffffffffffffffffffffffff16827f944f1d3ef1c50472b370611627295b06b64eca841d2de116bb7634a08a097ca983600201548460030160009054906101000a900473ffffffffffffffffffffffffffffffffffffffff166040516118fe929190612696565b60405180910390a35050565b600033905090565b600061191d3361040b565b1561193157601436033560601c9050611940565b61193961190a565b9050611941565b5b90565b6000808573ffffffffffffffffffffffffffffffffffffffff166323b872dd868686604051602401611978939291906123c4565b6040516020818303038152906040529060e01b6020820180517bffffffffffffffffffffffffffffffffffffffffffffffffffffffff83818316178352505050506040516119c69190612366565b6000604051808303816000865af19150503d8060008114611a03576040519150601f19603f3d011682016040523d82523d6000602084013e611a08565b606091505b5091509150818015611a365750600081511480611a35575080806020019051810190611a349190611d44565b5b5b611a75576040517f08c379a0000000000000000000000000000000000000000000000000000000008152600401611a6c9061265b565b60405180910390fd5b505050505050565b60008183611a8b9190612702565b905092915050565b6000808473ffffffffffffffffffffffffffffffffffffffff1663a9059cbb8585604051602401611ac592919061244e565b6040516020818303038152906040529060e01b6020820180517bffffffffffffffffffffffffffffffffffffffffffffffffffffffff8381831617835250505050604051611b139190612366565b6000604051808303816000865af19150503d8060008114611b50576040519150601f19603f3d011682016040523d82523d6000602084013e611b55565b606091505b5091509150818015611b835750600081511480611b82575080806020019051810190611b819190611d44565b5b5b611bc2576040517f08c379a0000000000000000000000000000000000000000000000000000000008152600401611bb99061257b565b60405180910390fd5b5050505050565b60008183611bd79190612758565b905092915050565b600081359050611bee81612960565b92915050565b600081519050611c0381612977565b92915050565b600081359050611c188161298e565b92915050565b600081519050611c2d8161298e565b92915050565b60008083601f840112611c4557600080fd5b8235905067ffffffffffffffff811115611c5e57600080fd5b602083019150836001820283011115611c7657600080fd5b9250929050565b600081359050611c8c816129a5565b92915050565b600060208284031215611ca457600080fd5b6000611cb284828501611bdf565b91505092915050565b60008060008060008060c08789031215611cd457600080fd5b6000611ce289828a01611bdf565b9650506020611cf389828a01611c7d565b9550506040611d0489828a01611bdf565b9450506060611d1589828a01611bdf565b9350506080611d2689828a01611bdf565b92505060a0611d3789828a01611c7d565b9150509295509295509295565b600060208284031215611d5657600080fd5b6000611d6484828501611bf4565b91505092915050565b600060208284031215611d7f57600080fd5b6000611d8d84828501611c09565b91505092915050565b600060208284031215611da857600080fd5b6000611db684828501611c1e565b91505092915050565b60008060008060808587031215611dd557600080fd5b6000611de387828801611c09565b9450506020611df487828801611bdf565b9350506040611e0587828801611bdf565b9250506060611e1687828801611c7d565b91505092959194509250565b60008060008060808587031215611e3857600080fd5b6000611e4687828801611c09565b9450506020611e5787828801611bdf565b9350506040611e6887828801611c7d565b9250506060611e7987828801611bdf565b91505092959194509250565b60008060008060008060008060e0898b031215611ea157600080fd5b600089013567ffffffffffffffff811115611ebb57600080fd5b611ec78b828c01611c33565b98509850506020611eda8b828c01611bdf565b9650506040611eeb8b828c01611c7d565b9550506060611efc8b828c01611bdf565b9450506080611f0d8b828c01611bdf565b93505060a0611f1e8b828c01611bdf565b92505060c0611f2f8b828c01611c7d565b9150509295985092959890939650565b611f488161278c565b82525050565b611f578161279e565b82525050565b611f66816127aa565b82525050565b6000611f7883856126e6565b9350611f8583858461284c565b82840190509392505050565b6000611f9c826126bf565b611fa681856126d5565b9350611fb681856020860161285b565b611fbf8161291a565b840191505092915050565b6000611fd5826126bf565b611fdf81856126e6565b9350611fef81856020860161285b565b80840191505092915050565b61200c61200782612804565b61288e565b82525050565b61201b81612828565b82525050565b61202a8161283a565b82525050565b600061203b826126ca565b61204581856126f1565b935061205581856020860161285b565b61205e8161291a565b840191505092915050565b6000612076601f836126f1565b91507f5472616e7366657248656c7065723a205452414e534645525f4641494c4544006000830152602082019050919050565b60006120b66026836126f1565b91507f4f776e61626c653a206e6577206f776e657220697320746865207a65726f206160008301527f64647265737300000000000000000000000000000000000000000000000000006020830152604082019050919050565b600061211c6013836126f1565b91507f417070726f76652063616c6c206661696c6564000000000000000000000000006000830152602082019050919050565b600061215c6027836126f1565b91507f506f7274616c3a2073796e746174696320746f6b656e7320656d657267656e6360008301527f79556e6275726e000000000000000000000000000000000000000000000000006020830152604082019050919050565b60006121c2602a836126f1565b91507f506f7274616c3a7374617465206e6f74206f70656e206f7220747820646f657360008301527f206e6f74206578697374000000000000000000000000000000000000000000006020830152604082019050919050565b60006122286026836126f1565b91507f506f7274616c3a205265616c20746f6b656e7320616c7265616479207472616e60008301527f73666572656400000000000000000000000000000000000000000000000000006020830152604082019050919050565b600061228e6020836126f1565b91507f4f776e61626c653a2063616c6c6572206973206e6f7420746865206f776e65726000830152602082019050919050565b60006122ce6024836126f1565b91507f5472616e7366657248656c7065723a205452414e534645525f46524f4d5f464160008301527f494c4544000000000000000000000000000000000000000000000000000000006020830152604082019050919050565b612330816127fa565b82525050565b612347612342826127fa565b6128b2565b82525050565b600061235a828486611f6c565b91508190509392505050565b60006123728284611fca565b915081905092915050565b60006123898285611ffb565b6014820191506123998284612336565b6020820191508190509392505050565b60006020820190506123be6000830184611f3f565b92915050565b60006060820190506123d96000830186611f3f565b6123e66020830185611f3f565b6123f36040830184612327565b949350505050565b600060a0820190506124106000830188611f3f565b61241d6020830187611f3f565b61242a6040830186612327565b6124376060830185611f3f565b6124446080830184612012565b9695505050505050565b60006040820190506124636000830185611f3f565b6124706020830184612327565b9392505050565b600060208201905061248c6000830184611f4e565b92915050565b60006020820190506124a76000830184611f5d565b92915050565b60006080820190506124c26000830187611f5d565b6124cf6020830186611f3f565b6124dc6040830185612327565b6124e96060830184611f3f565b95945050505050565b6000608082019050818103600083015261250c8187611f91565b905061251b6020830186611f3f565b6125286040830185611f3f565b6125356060830184612327565b95945050505050565b60006020820190506125536000830184612021565b92915050565b600060208201905081810360008301526125738184612030565b905092915050565b6000602082019050818103600083015261259481612069565b9050919050565b600060208201905081810360008301526125b4816120a9565b9050919050565b600060208201905081810360008301526125d48161210f565b9050919050565b600060208201905081810360008301526125f48161214f565b9050919050565b60006020820190508181036000830152612614816121b5565b9050919050565b600060208201905081810360008301526126348161221b565b9050919050565b6000602082019050818103600083015261265481612281565b9050919050565b60006020820190508181036000830152612674816122c1565b9050919050565b60006020820190506126906000830184612327565b92915050565b60006040820190506126ab6000830185612327565b6126b86020830184611f3f565b9392505050565b600081519050919050565b600081519050919050565b600082825260208201905092915050565b600081905092915050565b600082825260208201905092915050565b600061270d826127fa565b9150612718836127fa565b9250827fffffffffffffffffffffffffffffffffffffffffffffffffffffffffffffffff0382111561274d5761274c6128bc565b5b828201905092915050565b6000612763826127fa565b915061276e836127fa565b925082821015612781576127806128bc565b5b828203905092915050565b6000612797826127da565b9050919050565b60008115159050919050565b6000819050919050565b60008190506127c282612938565b919050565b60008190506127d58261294c565b919050565b600073ffffffffffffffffffffffffffffffffffffffff82169050919050565b6000819050919050565b600061280f82612816565b9050919050565b6000612821826127da565b9050919050565b6000612833826127b4565b9050919050565b6000612845826127c7565b9050919050565b82818337600083830152505050565b60005b8381101561287957808201518184015260208101905061285e565b83811115612888576000848401525b50505050565b6000612899826128a0565b9050919050565b60006128ab8261292b565b9050919050565b6000819050919050565b7f4e487b7100000000000000000000000000000000000000000000000000000000600052601160045260246000fd5b7f4e487b7100000000000000000000000000000000000000000000000000000000600052602160045260246000fd5b6000601f19601f8301169050919050565b60008160601b9050919050565b60038110612949576129486128eb565b5b50565b6003811061295d5761295c6128eb565b5b50565b6129698161278c565b811461297457600080fd5b50565b6129808161279e565b811461298b57600080fd5b50565b612997816127aa565b81146129a257600080fd5b50565b6129ae816127fa565b81146129b957600080fd5b5056fe6d696e7453796e746865746963546f6b656e28627974657333322c616464726573732c75696e743235362c6164647265737329a2646970667358221220225144d7c54faab5cb0fe200a2900131837153970f6c78b030e586420ebdc25064736f6c63430008000033",
  "linkReferences": {},
  "deployedLinkReferences": {}
}