{
  "_format": "hh-sol-artifact-1",
  "contractName": "SyntERC20",
  "sourceName": "contracts/SyntERC20.sol",
  "abi": [
    {
      "inputs": [
        {
          "internalType": "string",
          "name": "name_",
          "type": "string"
        },
        {
          "internalType": "string",
          "name": "symbol_",
          "type": "string"
        }
      ],
      "stateMutability": "nonpayable",
      "type": "constructor"
    },
    {
      "anonymous": false,
      "inputs": [
        {
          "indexed": true,
          "internalType": "address",
          "name": "owner",
          "type": "address"
        },
        {
          "indexed": true,
          "internalType": "address",
          "name": "spender",
          "type": "address"
        },
        {
          "indexed": false,
          "internalType": "uint256",
          "name": "value",
          "type": "uint256"
        }
      ],
      "name": "Approval",
      "type": "event"
    },
    {
      "anonymous": false,
      "inputs": [
        {
          "indexed": true,
          "internalType": "address",
          "name": "previousOwner",
          "type": "address"
        },
        {
          "indexed": true,
          "internalType": "address",
          "name": "newOwner",
          "type": "address"
        }
      ],
      "name": "OwnershipTransferred",
      "type": "event"
    },
    {
      "anonymous": false,
      "inputs": [
        {
          "indexed": true,
          "internalType": "address",
          "name": "from",
          "type": "address"
        },
        {
          "indexed": true,
          "internalType": "address",
          "name": "to",
          "type": "address"
        },
        {
          "indexed": false,
          "internalType": "uint256",
          "name": "value",
          "type": "uint256"
        }
      ],
      "name": "Transfer",
      "type": "event"
    },
    {
      "inputs": [],
      "name": "DOMAIN_SEPARATOR",
      "outputs": [
        {
          "internalType": "bytes32",
          "name": "",
          "type": "bytes32"
        }
      ],
      "stateMutability": "view",
      "type": "function"
    },
    {
      "inputs": [
        {
          "internalType": "address",
          "name": "owner",
          "type": "address"
        },
        {
          "internalType": "address",
          "name": "spender",
          "type": "address"
        }
      ],
      "name": "allowance",
      "outputs": [
        {
          "internalType": "uint256",
          "name": "",
          "type": "uint256"
        }
      ],
      "stateMutability": "view",
      "type": "function"
    },
    {
      "inputs": [
        {
          "internalType": "address",
          "name": "spender",
          "type": "address"
        },
        {
          "internalType": "uint256",
          "name": "amount",
          "type": "uint256"
        }
      ],
      "name": "approve",
      "outputs": [
        {
          "internalType": "bool",
          "name": "",
          "type": "bool"
        }
      ],
      "stateMutability": "nonpayable",
      "type": "function"
    },
    {
      "inputs": [
        {
          "internalType": "address",
          "name": "account",
          "type": "address"
        }
      ],
      "name": "balanceOf",
      "outputs": [
        {
          "internalType": "uint256",
          "name": "",
          "type": "uint256"
        }
      ],
      "stateMutability": "view",
      "type": "function"
    },
    {
      "inputs": [
        {
          "internalType": "address",
          "name": "account",
          "type": "address"
        },
        {
          "internalType": "uint256",
          "name": "amount",
          "type": "uint256"
        }
      ],
      "name": "burn",
      "outputs": [],
      "stateMutability": "nonpayable",
      "type": "function"
    },
    {
      "inputs": [],
      "name": "decimals",
      "outputs": [
        {
          "internalType": "uint8",
          "name": "",
          "type": "uint8"
        }
      ],
      "stateMutability": "view",
      "type": "function"
    },
    {
      "inputs": [
        {
          "internalType": "address",
          "name": "spender",
          "type": "address"
        },
        {
          "internalType": "uint256",
          "name": "subtractedValue",
          "type": "uint256"
        }
      ],
      "name": "decreaseAllowance",
      "outputs": [
        {
          "internalType": "bool",
          "name": "",
          "type": "bool"
        }
      ],
      "stateMutability": "nonpayable",
      "type": "function"
    },
    {
      "inputs": [
        {
          "internalType": "address",
          "name": "spender",
          "type": "address"
        },
        {
          "internalType": "uint256",
          "name": "addedValue",
          "type": "uint256"
        }
      ],
      "name": "increaseAllowance",
      "outputs": [
        {
          "internalType": "bool",
          "name": "",
          "type": "bool"
        }
      ],
      "stateMutability": "nonpayable",
      "type": "function"
    },
    {
      "inputs": [
        {
          "internalType": "address",
          "name": "account",
          "type": "address"
        },
        {
          "internalType": "uint256",
          "name": "amount",
          "type": "uint256"
        }
      ],
      "name": "mint",
      "outputs": [],
      "stateMutability": "nonpayable",
      "type": "function"
    },
    {
      "inputs": [],
      "name": "name",
      "outputs": [
        {
          "internalType": "string",
          "name": "",
          "type": "string"
        }
      ],
      "stateMutability": "view",
      "type": "function"
    },
    {
      "inputs": [
        {
          "internalType": "address",
          "name": "owner",
          "type": "address"
        }
      ],
      "name": "nonces",
      "outputs": [
        {
          "internalType": "uint256",
          "name": "",
          "type": "uint256"
        }
      ],
      "stateMutability": "view",
      "type": "function"
    },
    {
      "inputs": [],
      "name": "owner",
      "outputs": [
        {
          "internalType": "address",
          "name": "",
          "type": "address"
        }
      ],
      "stateMutability": "view",
      "type": "function"
    },
    {
      "inputs": [
        {
          "internalType": "address",
          "name": "owner",
          "type": "address"
        },
        {
          "internalType": "address",
          "name": "spender",
          "type": "address"
        },
        {
          "internalType": "uint256",
          "name": "value",
          "type": "uint256"
        },
        {
          "internalType": "uint256",
          "name": "deadline",
          "type": "uint256"
        },
        {
          "internalType": "uint8",
          "name": "v",
          "type": "uint8"
        },
        {
          "internalType": "bytes32",
          "name": "r",
          "type": "bytes32"
        },
        {
          "internalType": "bytes32",
          "name": "s",
          "type": "bytes32"
        }
      ],
      "name": "permit",
      "outputs": [],
      "stateMutability": "nonpayable",
      "type": "function"
    },
    {
      "inputs": [],
      "name": "renounceOwnership",
      "outputs": [],
      "stateMutability": "nonpayable",
      "type": "function"
    },
    {
      "inputs": [],
      "name": "symbol",
      "outputs": [
        {
          "internalType": "string",
          "name": "",
          "type": "string"
        }
      ],
      "stateMutability": "view",
      "type": "function"
    },
    {
      "inputs": [],
      "name": "totalSupply",
      "outputs": [
        {
          "internalType": "uint256",
          "name": "",
          "type": "uint256"
        }
      ],
      "stateMutability": "view",
      "type": "function"
    },
    {
      "inputs": [
        {
          "internalType": "address",
          "name": "recipient",
          "type": "address"
        },
        {
          "internalType": "uint256",
          "name": "amount",
          "type": "uint256"
        }
      ],
      "name": "transfer",
      "outputs": [
        {
          "internalType": "bool",
          "name": "",
          "type": "bool"
        }
      ],
      "stateMutability": "nonpayable",
      "type": "function"
    },
    {
      "inputs": [
        {
          "internalType": "address",
          "name": "sender",
          "type": "address"
        },
        {
          "internalType": "address",
          "name": "recipient",
          "type": "address"
        },
        {
          "internalType": "uint256",
          "name": "amount",
          "type": "uint256"
        }
      ],
      "name": "transferFrom",
      "outputs": [
        {
          "internalType": "bool",
          "name": "",
          "type": "bool"
        }
      ],
      "stateMutability": "nonpayable",
      "type": "function"
    },
    {
      "inputs": [
        {
          "internalType": "address",
          "name": "newOwner",
          "type": "address"
        }
      ],
      "name": "transferOwnership",
      "outputs": [],
      "stateMutability": "nonpayable",
      "type": "function"
    }
  ],
  "bytecode": "0x6101406040527f6e71edae12b1b97f4d1f60370fef10105fa2faae0126114a169c64845d6126c9610120908152503480156200003a57600080fd5b5060405162002efe38038062002efe83398181016040528101906200006091906200039f565b6040518060400160405280600c81526020017f53796d62696f73697347534e0000000000000000000000000000000000000000815250806040518060400160405280600181526020017f310000000000000000000000000000000000000000000000000000000000000081525084846000620000e16200023960201b60201c565b9050806000806101000a81548173ffffffffffffffffffffffffffffffffffffffff021916908373ffffffffffffffffffffffffffffffffffffffff1602179055508073ffffffffffffffffffffffffffffffffffffffff16600073ffffffffffffffffffffffffffffffffffffffff167f8be0079c531659141344cd1fd0a4f28419497f9722a3daafe3b4186f6b6457e060405160405180910390a3508160049080519060200190620001979291906200027d565b508060059080519060200190620001b09291906200027d565b50505060008280519060200120905060008280519060200120905060007f8b73c3c69bb8fe3d512ecc4cf759cc79239f7b179b0ffacaa9a75d522b39400f90508260c081815250508160e081815250504660a081815250506200021b8184846200024160201b60201c565b6080818152505080610100818152505050505050505050506200061b565b600033905090565b600083838346306040516020016200025e95949392919062000445565b6040516020818303038152906040528051906020012090509392505050565b8280546200028b9062000587565b90600052602060002090601f016020900481019282620002af5760008555620002fb565b82601f10620002ca57805160ff1916838001178555620002fb565b82800160010185558215620002fb579182015b82811115620002fa578251825591602001919060010190620002dd565b5b5090506200030a91906200030e565b5090565b5b80821115620003295760008160009055506001016200030f565b5090565b6000620003446200033e84620004d6565b620004a2565b9050828152602081018484840111156200035d57600080fd5b6200036a84828562000551565b509392505050565b600082601f8301126200038457600080fd5b8151620003968482602086016200032d565b91505092915050565b60008060408385031215620003b357600080fd5b600083015167ffffffffffffffff811115620003ce57600080fd5b620003dc8582860162000372565b925050602083015167ffffffffffffffff811115620003fa57600080fd5b620004088582860162000372565b9150509250929050565b6200041d8162000509565b82525050565b6200042e816200051d565b82525050565b6200043f8162000547565b82525050565b600060a0820190506200045c600083018862000423565b6200046b602083018762000423565b6200047a604083018662000423565b62000489606083018562000434565b62000498608083018462000412565b9695505050505050565b6000604051905081810181811067ffffffffffffffff82111715620004cc57620004cb620005ec565b5b8060405250919050565b600067ffffffffffffffff821115620004f457620004f3620005ec565b5b601f19601f8301169050602081019050919050565b6000620005168262000527565b9050919050565b6000819050919050565b600073ffffffffffffffffffffffffffffffffffffffff82169050919050565b6000819050919050565b60005b838110156200057157808201518184015260208101905062000554565b8381111562000581576000848401525b50505050565b60006002820490506001821680620005a057607f821691505b60208210811415620005b757620005b6620005bd565b5b50919050565b7f4e487b7100000000000000000000000000000000000000000000000000000000600052602260045260246000fd5b7f4e487b7100000000000000000000000000000000000000000000000000000000600052604160045260246000fd5b60805160a05160c05160e05161010051610120516128936200066b6000396000610b4e015260006113250152600061136701526000611346015260006112d2015260006112fa01526128936000f3fe608060405234801561001057600080fd5b50600436106101215760003560e01c8063715018a6116100ad578063a457c2d711610071578063a457c2d71461030c578063a9059cbb1461033c578063d505accf1461036c578063dd62ed3e14610388578063f2fde38b146103b857610121565b8063715018a61461027a5780637ecebe00146102845780638da5cb5b146102b457806395d89b41146102d25780639dc29fac146102f057610121565b8063313ce567116100f4578063313ce567146101c25780633644e515146101e057806339509351146101fe57806340c10f191461022e57806370a082311461024a57610121565b806306fdde0314610126578063095ea7b31461014457806318160ddd1461017457806323b872dd14610192575b600080fd5b61012e6103d4565b60405161013b919061239b565b60405180910390f35b61015e60048036038101906101599190611afb565b610466565b60405161016b919061226c565b60405180910390f35b61017c610484565b60405161018991906125dd565b60405180910390f35b6101ac60048036038101906101a79190611a0e565b61048e565b6040516101b9919061226c565b60405180910390f35b6101ca61058f565b6040516101d791906125f8565b60405180910390f35b6101e8610598565b6040516101f59190612287565b60405180910390f35b61021860048036038101906102139190611afb565b6105a7565b604051610225919061226c565b60405180910390f35b61024860048036038101906102439190611afb565b610653565b005b610264600480360381019061025f91906119a9565b6106dd565b60405161027191906125dd565b60405180910390f35b610282610726565b005b61029e600480360381019061029991906119a9565b610860565b6040516102ab91906125dd565b60405180910390f35b6102bc6108b0565b6040516102c99190612251565b60405180910390f35b6102da6108d9565b6040516102e7919061239b565b60405180910390f35b61030a60048036038101906103059190611afb565b61096b565b005b61032660048036038101906103219190611afb565b6109f5565b604051610333919061226c565b60405180910390f35b61035660048036038101906103519190611afb565b610ae9565b604051610363919061226c565b60405180910390f35b61038660048036038101906103819190611a5d565b610b07565b005b6103a2600480360381019061039d91906119d2565b610c49565b6040516103af91906125dd565b60405180910390f35b6103d260048036038101906103cd91906119a9565b610cd0565b005b6060600480546103e390612756565b80601f016020809104026020016040519081016040528092919081815260200182805461040f90612756565b801561045c5780601f106104315761010080835404028352916020019161045c565b820191906000526020600020905b81548152906001019060200180831161043f57829003601f168201915b5050505050905090565b600061047a610473610e79565b8484610e81565b6001905092915050565b6000600354905090565b600061049b84848461104c565b6000600260008673ffffffffffffffffffffffffffffffffffffffff1673ffffffffffffffffffffffffffffffffffffffff16815260200190815260200160002060006104e6610e79565b73ffffffffffffffffffffffffffffffffffffffff1673ffffffffffffffffffffffffffffffffffffffff16815260200190815260200160002054905082811015610566576040517f08c379a000000000000000000000000000000000000000000000000000000000815260040161055d906124fd565b60405180910390fd5b61058385610572610e79565b858461057e9190612690565b610e81565b60019150509392505050565b60006012905090565b60006105a26112ce565b905090565b60006106496105b4610e79565b8484600260006105c2610e79565b73ffffffffffffffffffffffffffffffffffffffff1673ffffffffffffffffffffffffffffffffffffffff16815260200190815260200160002060008873ffffffffffffffffffffffffffffffffffffffff1673ffffffffffffffffffffffffffffffffffffffff16815260200190815260200160002054610644919061263a565b610e81565b6001905092915050565b61065b610e79565b73ffffffffffffffffffffffffffffffffffffffff166106796108b0565b73ffffffffffffffffffffffffffffffffffffffff16146106cf576040517f08c379a00000000000000000000000000000000000000000000000000000000081526004016106c69061251d565b60405180910390fd5b6106d98282611391565b5050565b6000600160008373ffffffffffffffffffffffffffffffffffffffff1673ffffffffffffffffffffffffffffffffffffffff168152602001908152602001600020549050919050565b61072e610e79565b73ffffffffffffffffffffffffffffffffffffffff1661074c6108b0565b73ffffffffffffffffffffffffffffffffffffffff16146107a2576040517f08c379a00000000000000000000000000000000000000000000000000000000081526004016107999061251d565b60405180910390fd5b600073ffffffffffffffffffffffffffffffffffffffff1660008054906101000a900473ffffffffffffffffffffffffffffffffffffffff1673ffffffffffffffffffffffffffffffffffffffff167f8be0079c531659141344cd1fd0a4f28419497f9722a3daafe3b4186f6b6457e060405160405180910390a360008060006101000a81548173ffffffffffffffffffffffffffffffffffffffff021916908373ffffffffffffffffffffffffffffffffffffffff160217905550565b60006108a9600660008473ffffffffffffffffffffffffffffffffffffffff1673ffffffffffffffffffffffffffffffffffffffff1681526020019081526020016000206114e6565b9050919050565b60008060009054906101000a900473ffffffffffffffffffffffffffffffffffffffff16905090565b6060600580546108e890612756565b80601f016020809104026020016040519081016040528092919081815260200182805461091490612756565b80156109615780601f1061093657610100808354040283529160200191610961565b820191906000526020600020905b81548152906001019060200180831161094457829003601f168201915b5050505050905090565b610973610e79565b73ffffffffffffffffffffffffffffffffffffffff166109916108b0565b73ffffffffffffffffffffffffffffffffffffffff16146109e7576040517f08c379a00000000000000000000000000000000000000000000000000000000081526004016109de9061251d565b60405180910390fd5b6109f182826114f4565b5050565b60008060026000610a04610e79565b73ffffffffffffffffffffffffffffffffffffffff1673ffffffffffffffffffffffffffffffffffffffff16815260200190815260200160002060008573ffffffffffffffffffffffffffffffffffffffff1673ffffffffffffffffffffffffffffffffffffffff16815260200190815260200160002054905082811015610ac1576040517f08c379a0000000000000000000000000000000000000000000000000000000008152600401610ab89061259d565b60405180910390fd5b610ade610acc610e79565b858584610ad99190612690565b610e81565b600191505092915050565b6000610afd610af6610e79565b848461104c565b6001905092915050565b83421115610b4a576040517f08c379a0000000000000000000000000000000000000000000000000000000008152600401610b419061245d565b60405180910390fd5b60007f0000000000000000000000000000000000000000000000000000000000000000888888610b798c6116ca565b89604051602001610b8f969594939291906122a2565b6040516020818303038152906040528051906020012090506000610bb282611728565b90506000610bc282878787611742565b90508973ffffffffffffffffffffffffffffffffffffffff168173ffffffffffffffffffffffffffffffffffffffff1614610c32576040517f08c379a0000000000000000000000000000000000000000000000000000000008152600401610c29906124dd565b60405180910390fd5b610c3d8a8a8a610e81565b50505050505050505050565b6000600260008473ffffffffffffffffffffffffffffffffffffffff1673ffffffffffffffffffffffffffffffffffffffff16815260200190815260200160002060008373ffffffffffffffffffffffffffffffffffffffff1673ffffffffffffffffffffffffffffffffffffffff16815260200190815260200160002054905092915050565b610cd8610e79565b73ffffffffffffffffffffffffffffffffffffffff16610cf66108b0565b73ffffffffffffffffffffffffffffffffffffffff1614610d4c576040517f08c379a0000000000000000000000000000000000000000000000000000000008152600401610d439061251d565b60405180910390fd5b600073ffffffffffffffffffffffffffffffffffffffff168173ffffffffffffffffffffffffffffffffffffffff161415610dbc576040517f08c379a0000000000000000000000000000000000000000000000000000000008152600401610db39061241d565b60405180910390fd5b8073ffffffffffffffffffffffffffffffffffffffff1660008054906101000a900473ffffffffffffffffffffffffffffffffffffffff1673ffffffffffffffffffffffffffffffffffffffff167f8be0079c531659141344cd1fd0a4f28419497f9722a3daafe3b4186f6b6457e060405160405180910390a3806000806101000a81548173ffffffffffffffffffffffffffffffffffffffff021916908373ffffffffffffffffffffffffffffffffffffffff16021790555050565b600033905090565b600073ffffffffffffffffffffffffffffffffffffffff168373ffffffffffffffffffffffffffffffffffffffff161415610ef1576040517f08c379a0000000000000000000000000000000000000000000000000000000008152600401610ee89061257d565b60405180910390fd5b600073ffffffffffffffffffffffffffffffffffffffff168273ffffffffffffffffffffffffffffffffffffffff161415610f61576040517f08c379a0000000000000000000000000000000000000000000000000000000008152600401610f589061243d565b60405180910390fd5b80600260008573ffffffffffffffffffffffffffffffffffffffff1673ffffffffffffffffffffffffffffffffffffffff16815260200190815260200160002060008473ffffffffffffffffffffffffffffffffffffffff1673ffffffffffffffffffffffffffffffffffffffff168152602001908152602001600020819055508173ffffffffffffffffffffffffffffffffffffffff168373ffffffffffffffffffffffffffffffffffffffff167f8c5be1e5ebec7d5bd14f71427d1e84f3dd0314c0f7b2291e5b200ac8c7c3b9258360405161103f91906125dd565b60405180910390a3505050565b600073ffffffffffffffffffffffffffffffffffffffff168373ffffffffffffffffffffffffffffffffffffffff1614156110bc576040517f08c379a00000000000000000000000000000000000000000000000000000000081526004016110b39061255d565b60405180910390fd5b600073ffffffffffffffffffffffffffffffffffffffff168273ffffffffffffffffffffffffffffffffffffffff16141561112c576040517f08c379a0000000000000000000000000000000000000000000000000000000008152600401611123906123dd565b60405180910390fd5b6111378383836118cd565b6000600160008573ffffffffffffffffffffffffffffffffffffffff1673ffffffffffffffffffffffffffffffffffffffff168152602001908152602001600020549050818110156111be576040517f08c379a00000000000000000000000000000000000000000000000000000000081526004016111b59061247d565b60405180910390fd5b81816111ca9190612690565b600160008673ffffffffffffffffffffffffffffffffffffffff1673ffffffffffffffffffffffffffffffffffffffff1681526020019081526020016000208190555081600160008573ffffffffffffffffffffffffffffffffffffffff1673ffffffffffffffffffffffffffffffffffffffff168152602001908152602001600020600082825461125c919061263a565b925050819055508273ffffffffffffffffffffffffffffffffffffffff168473ffffffffffffffffffffffffffffffffffffffff167fddf252ad1be2c89b69c2b068fc378daa952ba7f163c4a11628f55a4df523b3ef846040516112c091906125dd565b60405180910390a350505050565b60007f0000000000000000000000000000000000000000000000000000000000000000461415611320577f0000000000000000000000000000000000000000000000000000000000000000905061138e565b61138b7f00000000000000000000000000000000000000000000000000000000000000007f00000000000000000000000000000000000000000000000000000000000000007f00000000000000000000000000000000000000000000000000000000000000006118d2565b90505b90565b600073ffffffffffffffffffffffffffffffffffffffff168273ffffffffffffffffffffffffffffffffffffffff161415611401576040517f08c379a00000000000000000000000000000000000000000000000000000000081526004016113f8906125bd565b60405180910390fd5b61140d600083836118cd565b806003600082825461141f919061263a565b9250508190555080600160008473ffffffffffffffffffffffffffffffffffffffff1673ffffffffffffffffffffffffffffffffffffffff1681526020019081526020016000206000828254611475919061263a565b925050819055508173ffffffffffffffffffffffffffffffffffffffff16600073ffffffffffffffffffffffffffffffffffffffff167fddf252ad1be2c89b69c2b068fc378daa952ba7f163c4a11628f55a4df523b3ef836040516114da91906125dd565b60405180910390a35050565b600081600001549050919050565b600073ffffffffffffffffffffffffffffffffffffffff168273ffffffffffffffffffffffffffffffffffffffff161415611564576040517f08c379a000000000000000000000000000000000000000000000000000000000815260040161155b9061253d565b60405180910390fd5b611570826000836118cd565b6000600160008473ffffffffffffffffffffffffffffffffffffffff1673ffffffffffffffffffffffffffffffffffffffff168152602001908152602001600020549050818110156115f7576040517f08c379a00000000000000000000000000000000000000000000000000000000081526004016115ee906123fd565b60405180910390fd5b81816116039190612690565b600160008573ffffffffffffffffffffffffffffffffffffffff1673ffffffffffffffffffffffffffffffffffffffff1681526020019081526020016000208190555081600360008282546116589190612690565b92505081905550600073ffffffffffffffffffffffffffffffffffffffff168373ffffffffffffffffffffffffffffffffffffffff167fddf252ad1be2c89b69c2b068fc378daa952ba7f163c4a11628f55a4df523b3ef846040516116bd91906125dd565b60405180910390a3505050565b600080600660008473ffffffffffffffffffffffffffffffffffffffff1673ffffffffffffffffffffffffffffffffffffffff1681526020019081526020016000209050611717816114e6565b91506117228161190c565b50919050565b600061173b6117356112ce565b83611922565b9050919050565b60007f7fffffffffffffffffffffffffffffff5d576e7357a4501ddfe92f46681b20a08260001c11156117aa576040517f08c379a00000000000000000000000000000000000000000000000000000000081526004016117a19061249d565b60405180910390fd5b601b8460ff1614806117bf5750601c8460ff16145b6117fe576040517f08c379a00000000000000000000000000000000000000000000000000000000081526004016117f5906124bd565b60405180910390fd5b6000600186868686604051600081526020016040526040516118239493929190612356565b6020604051602081039080840390855afa158015611845573d6000803e3d6000fd5b505050602060405103519050600073ffffffffffffffffffffffffffffffffffffffff168173ffffffffffffffffffffffffffffffffffffffff1614156118c1576040517f08c379a00000000000000000000000000000000000000000000000000000000081526004016118b8906123bd565b60405180910390fd5b80915050949350505050565b505050565b600083838346306040516020016118ed959493929190612303565b6040516020818303038152906040528051906020012090509392505050565b6001816000016000828254019250508190555050565b6000828260405160200161193792919061221a565b60405160208183030381529060405280519060200120905092915050565b60008135905061196481612801565b92915050565b60008135905061197981612818565b92915050565b60008135905061198e8161282f565b92915050565b6000813590506119a381612846565b92915050565b6000602082840312156119bb57600080fd5b60006119c984828501611955565b91505092915050565b600080604083850312156119e557600080fd5b60006119f385828601611955565b9250506020611a0485828601611955565b9150509250929050565b600080600060608486031215611a2357600080fd5b6000611a3186828701611955565b9350506020611a4286828701611955565b9250506040611a538682870161197f565b9150509250925092565b600080600080600080600060e0888a031215611a7857600080fd5b6000611a868a828b01611955565b9750506020611a978a828b01611955565b9650506040611aa88a828b0161197f565b9550506060611ab98a828b0161197f565b9450506080611aca8a828b01611994565b93505060a0611adb8a828b0161196a565b92505060c0611aec8a828b0161196a565b91505092959891949750929550565b60008060408385031215611b0e57600080fd5b6000611b1c85828601611955565b9250506020611b2d8582860161197f565b9150509250929050565b611b40816126c4565b82525050565b611b4f816126d6565b82525050565b611b5e816126e2565b82525050565b611b75611b70826126e2565b612788565b82525050565b6000611b8682612613565b611b90818561261e565b9350611ba0818560208601612723565b611ba9816127f0565b840191505092915050565b6000611bc160188361261e565b91507f45434453413a20696e76616c6964207369676e617475726500000000000000006000830152602082019050919050565b6000611c0160238361261e565b91507f45524332303a207472616e7366657220746f20746865207a65726f206164647260008301527f65737300000000000000000000000000000000000000000000000000000000006020830152604082019050919050565b6000611c6760228361261e565b91507f45524332303a206275726e20616d6f756e7420657863656564732062616c616e60008301527f63650000000000000000000000000000000000000000000000000000000000006020830152604082019050919050565b6000611ccd60268361261e565b91507f4f776e61626c653a206e6577206f776e657220697320746865207a65726f206160008301527f64647265737300000000000000000000000000000000000000000000000000006020830152604082019050919050565b6000611d3360228361261e565b91507f45524332303a20617070726f766520746f20746865207a65726f20616464726560008301527f73730000000000000000000000000000000000000000000000000000000000006020830152604082019050919050565b6000611d9960028361262f565b91507f19010000000000000000000000000000000000000000000000000000000000006000830152600282019050919050565b6000611dd9601d8361261e565b91507f45524332305065726d69743a206578706972656420646561646c696e650000006000830152602082019050919050565b6000611e1960268361261e565b91507f45524332303a207472616e7366657220616d6f756e742065786365656473206260008301527f616c616e636500000000000000000000000000000000000000000000000000006020830152604082019050919050565b6000611e7f60228361261e565b91507f45434453413a20696e76616c6964207369676e6174757265202773272076616c60008301527f75650000000000000000000000000000000000000000000000000000000000006020830152604082019050919050565b6000611ee560228361261e565b91507f45434453413a20696e76616c6964207369676e6174757265202776272076616c60008301527f75650000000000000000000000000000000000000000000000000000000000006020830152604082019050919050565b6000611f4b601e8361261e565b91507f45524332305065726d69743a20696e76616c6964207369676e617475726500006000830152602082019050919050565b6000611f8b60288361261e565b91507f45524332303a207472616e7366657220616d6f756e742065786365656473206160008301527f6c6c6f77616e63650000000000000000000000000000000000000000000000006020830152604082019050919050565b6000611ff160208361261e565b91507f4f776e61626c653a2063616c6c6572206973206e6f7420746865206f776e65726000830152602082019050919050565b600061203160218361261e565b91507f45524332303a206275726e2066726f6d20746865207a65726f2061646472657360008301527f73000000000000000000000000000000000000000000000000000000000000006020830152604082019050919050565b600061209760258361261e565b91507f45524332303a207472616e736665722066726f6d20746865207a65726f20616460008301527f64726573730000000000000000000000000000000000000000000000000000006020830152604082019050919050565b60006120fd60248361261e565b91507f45524332303a20617070726f76652066726f6d20746865207a65726f2061646460008301527f72657373000000000000000000000000000000000000000000000000000000006020830152604082019050919050565b600061216360258361261e565b91507f45524332303a2064656372656173656420616c6c6f77616e63652062656c6f7760008301527f207a65726f0000000000000000000000000000000000000000000000000000006020830152604082019050919050565b60006121c9601f8361261e565b91507f45524332303a206d696e7420746f20746865207a65726f2061646472657373006000830152602082019050919050565b6122058161270c565b82525050565b61221481612716565b82525050565b600061222582611d8c565b91506122318285611b64565b6020820191506122418284611b64565b6020820191508190509392505050565b60006020820190506122666000830184611b37565b92915050565b60006020820190506122816000830184611b46565b92915050565b600060208201905061229c6000830184611b55565b92915050565b600060c0820190506122b76000830189611b55565b6122c46020830188611b37565b6122d16040830187611b37565b6122de60608301866121fc565b6122eb60808301856121fc565b6122f860a08301846121fc565b979650505050505050565b600060a0820190506123186000830188611b55565b6123256020830187611b55565b6123326040830186611b55565b61233f60608301856121fc565b61234c6080830184611b37565b9695505050505050565b600060808201905061236b6000830187611b55565b612378602083018661220b565b6123856040830185611b55565b6123926060830184611b55565b95945050505050565b600060208201905081810360008301526123b58184611b7b565b905092915050565b600060208201905081810360008301526123d681611bb4565b9050919050565b600060208201905081810360008301526123f681611bf4565b9050919050565b6000602082019050818103600083015261241681611c5a565b9050919050565b6000602082019050818103600083015261243681611cc0565b9050919050565b6000602082019050818103600083015261245681611d26565b9050919050565b6000602082019050818103600083015261247681611dcc565b9050919050565b6000602082019050818103600083015261249681611e0c565b9050919050565b600060208201905081810360008301526124b681611e72565b9050919050565b600060208201905081810360008301526124d681611ed8565b9050919050565b600060208201905081810360008301526124f681611f3e565b9050919050565b6000602082019050818103600083015261251681611f7e565b9050919050565b6000602082019050818103600083015261253681611fe4565b9050919050565b6000602082019050818103600083015261255681612024565b9050919050565b600060208201905081810360008301526125768161208a565b9050919050565b60006020820190508181036000830152612596816120f0565b9050919050565b600060208201905081810360008301526125b681612156565b9050919050565b600060208201905081810360008301526125d6816121bc565b9050919050565b60006020820190506125f260008301846121fc565b92915050565b600060208201905061260d600083018461220b565b92915050565b600081519050919050565b600082825260208201905092915050565b600081905092915050565b60006126458261270c565b91506126508361270c565b9250827fffffffffffffffffffffffffffffffffffffffffffffffffffffffffffffffff0382111561268557612684612792565b5b828201905092915050565b600061269b8261270c565b91506126a68361270c565b9250828210156126b9576126b8612792565b5b828203905092915050565b60006126cf826126ec565b9050919050565b60008115159050919050565b6000819050919050565b600073ffffffffffffffffffffffffffffffffffffffff82169050919050565b6000819050919050565b600060ff82169050919050565b60005b83811015612741578082015181840152602081019050612726565b83811115612750576000848401525b50505050565b6000600282049050600182168061276e57607f821691505b60208210811415612782576127816127c1565b5b50919050565b6000819050919050565b7f4e487b7100000000000000000000000000000000000000000000000000000000600052601160045260246000fd5b7f4e487b7100000000000000000000000000000000000000000000000000000000600052602260045260246000fd5b6000601f19601f8301169050919050565b61280a816126c4565b811461281557600080fd5b50565b612821816126e2565b811461282c57600080fd5b50565b6128388161270c565b811461284357600080fd5b50565b61284f81612716565b811461285a57600080fd5b5056fea2646970667358221220c208f045b9b7844c64c9b2caa77b7fba513d4dc4330569be57e756453974970f64736f6c63430008000033",
  "linkReferences": {},
  "deployedLinkReferences": {}
}