{
  "_format": "hh-sol-artifact-1",
  "contractName": "SyntERC20",
  "sourceName": "contracts/SyntERC20.sol",
  "abi": [
    {
      "inputs": [
        {
          "internalType": "string",
          "name": "name_",
          "type": "string"
        },
        {
          "internalType": "string",
          "name": "symbol_",
          "type": "string"
        }
      ],
      "stateMutability": "nonpayable",
      "type": "constructor"
    },
    {
      "anonymous": false,
      "inputs": [
        {
          "indexed": true,
          "internalType": "address",
          "name": "owner",
          "type": "address"
        },
        {
          "indexed": true,
          "internalType": "address",
          "name": "spender",
          "type": "address"
        },
        {
          "indexed": false,
          "internalType": "uint256",
          "name": "value",
          "type": "uint256"
        }
      ],
      "name": "Approval",
      "type": "event"
    },
    {
      "anonymous": false,
      "inputs": [
        {
          "indexed": true,
          "internalType": "address",
          "name": "previousOwner",
          "type": "address"
        },
        {
          "indexed": true,
          "internalType": "address",
          "name": "newOwner",
          "type": "address"
        }
      ],
      "name": "OwnershipTransferred",
      "type": "event"
    },
    {
      "anonymous": false,
      "inputs": [
        {
          "indexed": true,
          "internalType": "address",
          "name": "from",
          "type": "address"
        },
        {
          "indexed": true,
          "internalType": "address",
          "name": "to",
          "type": "address"
        },
        {
          "indexed": false,
          "internalType": "uint256",
          "name": "value",
          "type": "uint256"
        }
      ],
      "name": "Transfer",
      "type": "event"
    },
    {
      "inputs": [],
      "name": "DOMAIN_SEPARATOR",
      "outputs": [
        {
          "internalType": "bytes32",
          "name": "",
          "type": "bytes32"
        }
      ],
      "stateMutability": "view",
      "type": "function"
    },
    {
      "inputs": [
        {
          "internalType": "address",
          "name": "owner",
          "type": "address"
        },
        {
          "internalType": "address",
          "name": "spender",
          "type": "address"
        }
      ],
      "name": "allowance",
      "outputs": [
        {
          "internalType": "uint256",
          "name": "",
          "type": "uint256"
        }
      ],
      "stateMutability": "view",
      "type": "function"
    },
    {
      "inputs": [
        {
          "internalType": "address",
          "name": "spender",
          "type": "address"
        },
        {
          "internalType": "uint256",
          "name": "amount",
          "type": "uint256"
        }
      ],
      "name": "approve",
      "outputs": [
        {
          "internalType": "bool",
          "name": "",
          "type": "bool"
        }
      ],
      "stateMutability": "nonpayable",
      "type": "function"
    },
    {
      "inputs": [
        {
          "internalType": "address",
          "name": "account",
          "type": "address"
        }
      ],
      "name": "balanceOf",
      "outputs": [
        {
          "internalType": "uint256",
          "name": "",
          "type": "uint256"
        }
      ],
      "stateMutability": "view",
      "type": "function"
    },
    {
      "inputs": [
        {
          "internalType": "address",
          "name": "account",
          "type": "address"
        },
        {
          "internalType": "uint256",
          "name": "amount",
          "type": "uint256"
        }
      ],
      "name": "burn",
      "outputs": [],
      "stateMutability": "nonpayable",
      "type": "function"
    },
    {
      "inputs": [
        {
          "internalType": "address",
          "name": "account",
          "type": "address"
        },
        {
          "internalType": "address",
          "name": "spender",
          "type": "address"
        },
        {
          "internalType": "uint256",
          "name": "amount",
          "type": "uint256"
        }
      ],
      "name": "burnWithAllowanceDecrease",
      "outputs": [],
      "stateMutability": "nonpayable",
      "type": "function"
    },
    {
      "inputs": [],
      "name": "decimals",
      "outputs": [
        {
          "internalType": "uint8",
          "name": "",
          "type": "uint8"
        }
      ],
      "stateMutability": "view",
      "type": "function"
    },
    {
      "inputs": [
        {
          "internalType": "address",
          "name": "spender",
          "type": "address"
        },
        {
          "internalType": "uint256",
          "name": "subtractedValue",
          "type": "uint256"
        }
      ],
      "name": "decreaseAllowance",
      "outputs": [
        {
          "internalType": "bool",
          "name": "",
          "type": "bool"
        }
      ],
      "stateMutability": "nonpayable",
      "type": "function"
    },
    {
      "inputs": [
        {
          "internalType": "address",
          "name": "spender",
          "type": "address"
        },
        {
          "internalType": "uint256",
          "name": "addedValue",
          "type": "uint256"
        }
      ],
      "name": "increaseAllowance",
      "outputs": [
        {
          "internalType": "bool",
          "name": "",
          "type": "bool"
        }
      ],
      "stateMutability": "nonpayable",
      "type": "function"
    },
    {
      "inputs": [
        {
          "internalType": "address",
          "name": "account",
          "type": "address"
        },
        {
          "internalType": "uint256",
          "name": "amount",
          "type": "uint256"
        }
      ],
      "name": "mint",
      "outputs": [],
      "stateMutability": "nonpayable",
      "type": "function"
    },
    {
      "inputs": [
        {
          "internalType": "address",
          "name": "account",
          "type": "address"
        },
        {
          "internalType": "address",
          "name": "spender",
          "type": "address"
        },
        {
          "internalType": "uint256",
          "name": "amount",
          "type": "uint256"
        }
      ],
      "name": "mintWithAllowance",
      "outputs": [],
      "stateMutability": "nonpayable",
      "type": "function"
    },
    {
      "inputs": [],
      "name": "name",
      "outputs": [
        {
          "internalType": "string",
          "name": "",
          "type": "string"
        }
      ],
      "stateMutability": "view",
      "type": "function"
    },
    {
      "inputs": [
        {
          "internalType": "address",
          "name": "owner",
          "type": "address"
        }
      ],
      "name": "nonces",
      "outputs": [
        {
          "internalType": "uint256",
          "name": "",
          "type": "uint256"
        }
      ],
      "stateMutability": "view",
      "type": "function"
    },
    {
      "inputs": [],
      "name": "owner",
      "outputs": [
        {
          "internalType": "address",
          "name": "",
          "type": "address"
        }
      ],
      "stateMutability": "view",
      "type": "function"
    },
    {
      "inputs": [
        {
          "internalType": "address",
          "name": "owner",
          "type": "address"
        },
        {
          "internalType": "address",
          "name": "spender",
          "type": "address"
        },
        {
          "internalType": "uint256",
          "name": "value",
          "type": "uint256"
        },
        {
          "internalType": "uint256",
          "name": "deadline",
          "type": "uint256"
        },
        {
          "internalType": "uint8",
          "name": "v",
          "type": "uint8"
        },
        {
          "internalType": "bytes32",
          "name": "r",
          "type": "bytes32"
        },
        {
          "internalType": "bytes32",
          "name": "s",
          "type": "bytes32"
        }
      ],
      "name": "permit",
      "outputs": [],
      "stateMutability": "nonpayable",
      "type": "function"
    },
    {
      "inputs": [],
      "name": "renounceOwnership",
      "outputs": [],
      "stateMutability": "nonpayable",
      "type": "function"
    },
    {
      "inputs": [],
      "name": "symbol",
      "outputs": [
        {
          "internalType": "string",
          "name": "",
          "type": "string"
        }
      ],
      "stateMutability": "view",
      "type": "function"
    },
    {
      "inputs": [],
      "name": "totalSupply",
      "outputs": [
        {
          "internalType": "uint256",
          "name": "",
          "type": "uint256"
        }
      ],
      "stateMutability": "view",
      "type": "function"
    },
    {
      "inputs": [
        {
          "internalType": "address",
          "name": "recipient",
          "type": "address"
        },
        {
          "internalType": "uint256",
          "name": "amount",
          "type": "uint256"
        }
      ],
      "name": "transfer",
      "outputs": [
        {
          "internalType": "bool",
          "name": "",
          "type": "bool"
        }
      ],
      "stateMutability": "nonpayable",
      "type": "function"
    },
    {
      "inputs": [
        {
          "internalType": "address",
          "name": "sender",
          "type": "address"
        },
        {
          "internalType": "address",
          "name": "recipient",
          "type": "address"
        },
        {
          "internalType": "uint256",
          "name": "amount",
          "type": "uint256"
        }
      ],
      "name": "transferFrom",
      "outputs": [
        {
          "internalType": "bool",
          "name": "",
          "type": "bool"
        }
      ],
      "stateMutability": "nonpayable",
      "type": "function"
    },
    {
      "inputs": [
        {
          "internalType": "address",
          "name": "newOwner",
          "type": "address"
        }
      ],
      "name": "transferOwnership",
      "outputs": [],
      "stateMutability": "nonpayable",
      "type": "function"
    }
  ],
  "bytecode": "0x6101406040527f6e71edae12b1b97f4d1f60370fef10105fa2faae0126114a169c64845d6126c9610120908152503480156200003a57600080fd5b50604051620030e9380380620030e983398181016040528101906200006091906200039f565b6040518060400160405280600c81526020017f53696d62696f7a697347534e0000000000000000000000000000000000000000815250806040518060400160405280600181526020017f310000000000000000000000000000000000000000000000000000000000000081525084846000620000e16200023960201b60201c565b9050806000806101000a81548173ffffffffffffffffffffffffffffffffffffffff021916908373ffffffffffffffffffffffffffffffffffffffff1602179055508073ffffffffffffffffffffffffffffffffffffffff16600073ffffffffffffffffffffffffffffffffffffffff167f8be0079c531659141344cd1fd0a4f28419497f9722a3daafe3b4186f6b6457e060405160405180910390a3508160049080519060200190620001979291906200027d565b508060059080519060200190620001b09291906200027d565b50505060008280519060200120905060008280519060200120905060007f8b73c3c69bb8fe3d512ecc4cf759cc79239f7b179b0ffacaa9a75d522b39400f90508260c081815250508160e081815250504660a081815250506200021b8184846200024160201b60201c565b6080818152505080610100818152505050505050505050506200061b565b600033905090565b600083838346306040516020016200025e95949392919062000445565b6040516020818303038152906040528051906020012090509392505050565b8280546200028b9062000587565b90600052602060002090601f016020900481019282620002af5760008555620002fb565b82601f10620002ca57805160ff1916838001178555620002fb565b82800160010185558215620002fb579182015b82811115620002fa578251825591602001919060010190620002dd565b5b5090506200030a91906200030e565b5090565b5b80821115620003295760008160009055506001016200030f565b5090565b6000620003446200033e84620004d6565b620004a2565b9050828152602081018484840111156200035d57600080fd5b6200036a84828562000551565b509392505050565b600082601f8301126200038457600080fd5b8151620003968482602086016200032d565b91505092915050565b60008060408385031215620003b357600080fd5b600083015167ffffffffffffffff811115620003ce57600080fd5b620003dc8582860162000372565b925050602083015167ffffffffffffffff811115620003fa57600080fd5b620004088582860162000372565b9150509250929050565b6200041d8162000509565b82525050565b6200042e816200051d565b82525050565b6200043f8162000547565b82525050565b600060a0820190506200045c600083018862000423565b6200046b602083018762000423565b6200047a604083018662000423565b62000489606083018562000434565b62000498608083018462000412565b9695505050505050565b6000604051905081810181811067ffffffffffffffff82111715620004cc57620004cb620005ec565b5b8060405250919050565b600067ffffffffffffffff821115620004f457620004f3620005ec565b5b601f19601f8301169050602081019050919050565b6000620005168262000527565b9050919050565b6000819050919050565b600073ffffffffffffffffffffffffffffffffffffffff82169050919050565b6000819050919050565b60005b838110156200057157808201518184015260208101905062000554565b8381111562000581576000848401525b50505050565b60006002820490506001821680620005a057607f821691505b60208210811415620005b757620005b6620005bd565b5b50919050565b7f4e487b7100000000000000000000000000000000000000000000000000000000600052602260045260246000fd5b7f4e487b7100000000000000000000000000000000000000000000000000000000600052604160045260246000fd5b60805160a05160c05160e0516101005161012051612a7e6200066b6000396000610d39015260006115100152600061155201526000611531015260006114bd015260006114e50152612a7e6000f3fe608060405234801561001057600080fd5b50600436106101375760003560e01c80637ecebe00116100b8578063a457c2d71161007c578063a457c2d71461033e578063a9059cbb1461036e578063a918adf51461039e578063d505accf146103ba578063dd62ed3e146103d6578063f2fde38b1461040657610137565b80637ecebe001461029a5780638da5cb5b146102ca57806395d89b41146102e85780639be4e7b2146103065780639dc29fac1461032257610137565b80633644e515116100ff5780633644e515146101f6578063395093511461021457806340c10f191461024457806370a0823114610260578063715018a61461029057610137565b806306fdde031461013c578063095ea7b31461015a57806318160ddd1461018a57806323b872dd146101a8578063313ce567146101d8575b600080fd5b610144610422565b6040516101519190612586565b60405180910390f35b610174600480360381019061016f9190611ce6565b6104b4565b6040516101819190612457565b60405180910390f35b6101926104d2565b60405161019f91906127c8565b60405180910390f35b6101c260048036038101906101bd9190611bf9565b6104dc565b6040516101cf9190612457565b60405180910390f35b6101e06105dd565b6040516101ed91906127e3565b60405180910390f35b6101fe6105e6565b60405161020b9190612472565b60405180910390f35b61022e60048036038101906102299190611ce6565b6105f5565b60405161023b9190612457565b60405180910390f35b61025e60048036038101906102599190611ce6565b6106a1565b005b61027a60048036038101906102759190611b94565b61072b565b60405161028791906127c8565b60405180910390f35b610298610774565b005b6102b460048036038101906102af9190611b94565b6108ae565b6040516102c191906127c8565b60405180910390f35b6102d26108fe565b6040516102df919061243c565b60405180910390f35b6102f0610927565b6040516102fd9190612586565b60405180910390f35b610320600480360381019061031b9190611bf9565b6109b9565b005b61033c60048036038101906103379190611ce6565b610a63565b005b61035860048036038101906103539190611ce6565b610aed565b6040516103659190612457565b60405180910390f35b61038860048036038101906103839190611ce6565b610be1565b6040516103959190612457565b60405180910390f35b6103b860048036038101906103b39190611bf9565b610bff565b005b6103d460048036038101906103cf9190611c48565b610cf2565b005b6103f060048036038101906103eb9190611bbd565b610e34565b6040516103fd91906127c8565b60405180910390f35b610420600480360381019061041b9190611b94565b610ebb565b005b60606004805461043190612941565b80601f016020809104026020016040519081016040528092919081815260200182805461045d90612941565b80156104aa5780601f1061047f576101008083540402835291602001916104aa565b820191906000526020600020905b81548152906001019060200180831161048d57829003601f168201915b5050505050905090565b60006104c86104c1611064565b848461106c565b6001905092915050565b6000600354905090565b60006104e9848484611237565b6000600260008673ffffffffffffffffffffffffffffffffffffffff1673ffffffffffffffffffffffffffffffffffffffff1681526020019081526020016000206000610534611064565b73ffffffffffffffffffffffffffffffffffffffff1673ffffffffffffffffffffffffffffffffffffffff168152602001908152602001600020549050828110156105b4576040517f08c379a00000000000000000000000000000000000000000000000000000000081526004016105ab906126e8565b60405180910390fd5b6105d1856105c0611064565b85846105cc919061287b565b61106c565b60019150509392505050565b60006012905090565b60006105f06114b9565b905090565b6000610697610602611064565b848460026000610610611064565b73ffffffffffffffffffffffffffffffffffffffff1673ffffffffffffffffffffffffffffffffffffffff16815260200190815260200160002060008873ffffffffffffffffffffffffffffffffffffffff1673ffffffffffffffffffffffffffffffffffffffff168152602001908152602001600020546106929190612825565b61106c565b6001905092915050565b6106a9611064565b73ffffffffffffffffffffffffffffffffffffffff166106c76108fe565b73ffffffffffffffffffffffffffffffffffffffff161461071d576040517f08c379a000000000000000000000000000000000000000000000000000000000815260040161071490612708565b60405180910390fd5b610727828261157c565b5050565b6000600160008373ffffffffffffffffffffffffffffffffffffffff1673ffffffffffffffffffffffffffffffffffffffff168152602001908152602001600020549050919050565b61077c611064565b73ffffffffffffffffffffffffffffffffffffffff1661079a6108fe565b73ffffffffffffffffffffffffffffffffffffffff16146107f0576040517f08c379a00000000000000000000000000000000000000000000000000000000081526004016107e790612708565b60405180910390fd5b600073ffffffffffffffffffffffffffffffffffffffff1660008054906101000a900473ffffffffffffffffffffffffffffffffffffffff1673ffffffffffffffffffffffffffffffffffffffff167f8be0079c531659141344cd1fd0a4f28419497f9722a3daafe3b4186f6b6457e060405160405180910390a360008060006101000a81548173ffffffffffffffffffffffffffffffffffffffff021916908373ffffffffffffffffffffffffffffffffffffffff160217905550565b60006108f7600660008473ffffffffffffffffffffffffffffffffffffffff1673ffffffffffffffffffffffffffffffffffffffff1681526020019081526020016000206116d1565b9050919050565b60008060009054906101000a900473ffffffffffffffffffffffffffffffffffffffff16905090565b60606005805461093690612941565b80601f016020809104026020016040519081016040528092919081815260200182805461096290612941565b80156109af5780601f10610984576101008083540402835291602001916109af565b820191906000526020600020905b81548152906001019060200180831161099257829003601f168201915b5050505050905090565b6109c1611064565b73ffffffffffffffffffffffffffffffffffffffff166109df6108fe565b73ffffffffffffffffffffffffffffffffffffffff1614610a35576040517f08c379a0000000000000000000000000000000000000000000000000000000008152600401610a2c90612708565b60405180910390fd5b610a3f838261157c565b610a5e838383610a4f8787610e34565b610a599190612825565b61106c565b505050565b610a6b611064565b73ffffffffffffffffffffffffffffffffffffffff16610a896108fe565b73ffffffffffffffffffffffffffffffffffffffff1614610adf576040517f08c379a0000000000000000000000000000000000000000000000000000000008152600401610ad690612708565b60405180910390fd5b610ae982826116df565b5050565b60008060026000610afc611064565b73ffffffffffffffffffffffffffffffffffffffff1673ffffffffffffffffffffffffffffffffffffffff16815260200190815260200160002060008573ffffffffffffffffffffffffffffffffffffffff1673ffffffffffffffffffffffffffffffffffffffff16815260200190815260200160002054905082811015610bb9576040517f08c379a0000000000000000000000000000000000000000000000000000000008152600401610bb090612788565b60405180910390fd5b610bd6610bc4611064565b858584610bd1919061287b565b61106c565b600191505092915050565b6000610bf5610bee611064565b8484611237565b6001905092915050565b610c07611064565b73ffffffffffffffffffffffffffffffffffffffff16610c256108fe565b73ffffffffffffffffffffffffffffffffffffffff1614610c7b576040517f08c379a0000000000000000000000000000000000000000000000000000000008152600401610c7290612708565b60405180910390fd5b6000610c878484610e34565b905081811015610ccc576040517f08c379a0000000000000000000000000000000000000000000000000000000008152600401610cc390612788565b60405180910390fd5b610ce284848484610cdd919061287b565b61106c565b610cec84836116df565b50505050565b83421115610d35576040517f08c379a0000000000000000000000000000000000000000000000000000000008152600401610d2c90612648565b60405180910390fd5b60007f0000000000000000000000000000000000000000000000000000000000000000888888610d648c6118b5565b89604051602001610d7a9695949392919061248d565b6040516020818303038152906040528051906020012090506000610d9d82611913565b90506000610dad8287878761192d565b90508973ffffffffffffffffffffffffffffffffffffffff168173ffffffffffffffffffffffffffffffffffffffff1614610e1d576040517f08c379a0000000000000000000000000000000000000000000000000000000008152600401610e14906126c8565b60405180910390fd5b610e288a8a8a61106c565b50505050505050505050565b6000600260008473ffffffffffffffffffffffffffffffffffffffff1673ffffffffffffffffffffffffffffffffffffffff16815260200190815260200160002060008373ffffffffffffffffffffffffffffffffffffffff1673ffffffffffffffffffffffffffffffffffffffff16815260200190815260200160002054905092915050565b610ec3611064565b73ffffffffffffffffffffffffffffffffffffffff16610ee16108fe565b73ffffffffffffffffffffffffffffffffffffffff1614610f37576040517f08c379a0000000000000000000000000000000000000000000000000000000008152600401610f2e90612708565b60405180910390fd5b600073ffffffffffffffffffffffffffffffffffffffff168173ffffffffffffffffffffffffffffffffffffffff161415610fa7576040517f08c379a0000000000000000000000000000000000000000000000000000000008152600401610f9e90612608565b60405180910390fd5b8073ffffffffffffffffffffffffffffffffffffffff1660008054906101000a900473ffffffffffffffffffffffffffffffffffffffff1673ffffffffffffffffffffffffffffffffffffffff167f8be0079c531659141344cd1fd0a4f28419497f9722a3daafe3b4186f6b6457e060405160405180910390a3806000806101000a81548173ffffffffffffffffffffffffffffffffffffffff021916908373ffffffffffffffffffffffffffffffffffffffff16021790555050565b600033905090565b600073ffffffffffffffffffffffffffffffffffffffff168373ffffffffffffffffffffffffffffffffffffffff1614156110dc576040517f08c379a00000000000000000000000000000000000000000000000000000000081526004016110d390612768565b60405180910390fd5b600073ffffffffffffffffffffffffffffffffffffffff168273ffffffffffffffffffffffffffffffffffffffff16141561114c576040517f08c379a000000000000000000000000000000000000000000000000000000000815260040161114390612628565b60405180910390fd5b80600260008573ffffffffffffffffffffffffffffffffffffffff1673ffffffffffffffffffffffffffffffffffffffff16815260200190815260200160002060008473ffffffffffffffffffffffffffffffffffffffff1673ffffffffffffffffffffffffffffffffffffffff168152602001908152602001600020819055508173ffffffffffffffffffffffffffffffffffffffff168373ffffffffffffffffffffffffffffffffffffffff167f8c5be1e5ebec7d5bd14f71427d1e84f3dd0314c0f7b2291e5b200ac8c7c3b9258360405161122a91906127c8565b60405180910390a3505050565b600073ffffffffffffffffffffffffffffffffffffffff168373ffffffffffffffffffffffffffffffffffffffff1614156112a7576040517f08c379a000000000000000000000000000000000000000000000000000000000815260040161129e90612748565b60405180910390fd5b600073ffffffffffffffffffffffffffffffffffffffff168273ffffffffffffffffffffffffffffffffffffffff161415611317576040517f08c379a000000000000000000000000000000000000000000000000000000000815260040161130e906125c8565b60405180910390fd5b611322838383611ab8565b6000600160008573ffffffffffffffffffffffffffffffffffffffff1673ffffffffffffffffffffffffffffffffffffffff168152602001908152602001600020549050818110156113a9576040517f08c379a00000000000000000000000000000000000000000000000000000000081526004016113a090612668565b60405180910390fd5b81816113b5919061287b565b600160008673ffffffffffffffffffffffffffffffffffffffff1673ffffffffffffffffffffffffffffffffffffffff1681526020019081526020016000208190555081600160008573ffffffffffffffffffffffffffffffffffffffff1673ffffffffffffffffffffffffffffffffffffffff16815260200190815260200160002060008282546114479190612825565b925050819055508273ffffffffffffffffffffffffffffffffffffffff168473ffffffffffffffffffffffffffffffffffffffff167fddf252ad1be2c89b69c2b068fc378daa952ba7f163c4a11628f55a4df523b3ef846040516114ab91906127c8565b60405180910390a350505050565b60007f000000000000000000000000000000000000000000000000000000000000000046141561150b577f00000000000000000000000000000000000000000000000000000000000000009050611579565b6115767f00000000000000000000000000000000000000000000000000000000000000007f00000000000000000000000000000000000000000000000000000000000000007f0000000000000000000000000000000000000000000000000000000000000000611abd565b90505b90565b600073ffffffffffffffffffffffffffffffffffffffff168273ffffffffffffffffffffffffffffffffffffffff1614156115ec576040517f08c379a00000000000000000000000000000000000000000000000000000000081526004016115e3906127a8565b60405180910390fd5b6115f860008383611ab8565b806003600082825461160a9190612825565b9250508190555080600160008473ffffffffffffffffffffffffffffffffffffffff1673ffffffffffffffffffffffffffffffffffffffff16815260200190815260200160002060008282546116609190612825565b925050819055508173ffffffffffffffffffffffffffffffffffffffff16600073ffffffffffffffffffffffffffffffffffffffff167fddf252ad1be2c89b69c2b068fc378daa952ba7f163c4a11628f55a4df523b3ef836040516116c591906127c8565b60405180910390a35050565b600081600001549050919050565b600073ffffffffffffffffffffffffffffffffffffffff168273ffffffffffffffffffffffffffffffffffffffff16141561174f576040517f08c379a000000000000000000000000000000000000000000000000000000000815260040161174690612728565b60405180910390fd5b61175b82600083611ab8565b6000600160008473ffffffffffffffffffffffffffffffffffffffff1673ffffffffffffffffffffffffffffffffffffffff168152602001908152602001600020549050818110156117e2576040517f08c379a00000000000000000000000000000000000000000000000000000000081526004016117d9906125e8565b60405180910390fd5b81816117ee919061287b565b600160008573ffffffffffffffffffffffffffffffffffffffff1673ffffffffffffffffffffffffffffffffffffffff168152602001908152602001600020819055508160036000828254611843919061287b565b92505081905550600073ffffffffffffffffffffffffffffffffffffffff168373ffffffffffffffffffffffffffffffffffffffff167fddf252ad1be2c89b69c2b068fc378daa952ba7f163c4a11628f55a4df523b3ef846040516118a891906127c8565b60405180910390a3505050565b600080600660008473ffffffffffffffffffffffffffffffffffffffff1673ffffffffffffffffffffffffffffffffffffffff1681526020019081526020016000209050611902816116d1565b915061190d81611af7565b50919050565b60006119266119206114b9565b83611b0d565b9050919050565b60007f7fffffffffffffffffffffffffffffff5d576e7357a4501ddfe92f46681b20a08260001c1115611995576040517f08c379a000000000000000000000000000000000000000000000000000000000815260040161198c90612688565b60405180910390fd5b601b8460ff1614806119aa5750601c8460ff16145b6119e9576040517f08c379a00000000000000000000000000000000000000000000000000000000081526004016119e0906126a8565b60405180910390fd5b600060018686868660405160008152602001604052604051611a0e9493929190612541565b6020604051602081039080840390855afa158015611a30573d6000803e3d6000fd5b505050602060405103519050600073ffffffffffffffffffffffffffffffffffffffff168173ffffffffffffffffffffffffffffffffffffffff161415611aac576040517f08c379a0000000000000000000000000000000000000000000000000000000008152600401611aa3906125a8565b60405180910390fd5b80915050949350505050565b505050565b60008383834630604051602001611ad89594939291906124ee565b6040516020818303038152906040528051906020012090509392505050565b6001816000016000828254019250508190555050565b60008282604051602001611b22929190612405565b60405160208183030381529060405280519060200120905092915050565b600081359050611b4f816129ec565b92915050565b600081359050611b6481612a03565b92915050565b600081359050611b7981612a1a565b92915050565b600081359050611b8e81612a31565b92915050565b600060208284031215611ba657600080fd5b6000611bb484828501611b40565b91505092915050565b60008060408385031215611bd057600080fd5b6000611bde85828601611b40565b9250506020611bef85828601611b40565b9150509250929050565b600080600060608486031215611c0e57600080fd5b6000611c1c86828701611b40565b9350506020611c2d86828701611b40565b9250506040611c3e86828701611b6a565b9150509250925092565b600080600080600080600060e0888a031215611c6357600080fd5b6000611c718a828b01611b40565b9750506020611c828a828b01611b40565b9650506040611c938a828b01611b6a565b9550506060611ca48a828b01611b6a565b9450506080611cb58a828b01611b7f565b93505060a0611cc68a828b01611b55565b92505060c0611cd78a828b01611b55565b91505092959891949750929550565b60008060408385031215611cf957600080fd5b6000611d0785828601611b40565b9250506020611d1885828601611b6a565b9150509250929050565b611d2b816128af565b82525050565b611d3a816128c1565b82525050565b611d49816128cd565b82525050565b611d60611d5b826128cd565b612973565b82525050565b6000611d71826127fe565b611d7b8185612809565b9350611d8b81856020860161290e565b611d94816129db565b840191505092915050565b6000611dac601883612809565b91507f45434453413a20696e76616c6964207369676e617475726500000000000000006000830152602082019050919050565b6000611dec602383612809565b91507f45524332303a207472616e7366657220746f20746865207a65726f206164647260008301527f65737300000000000000000000000000000000000000000000000000000000006020830152604082019050919050565b6000611e52602283612809565b91507f45524332303a206275726e20616d6f756e7420657863656564732062616c616e60008301527f63650000000000000000000000000000000000000000000000000000000000006020830152604082019050919050565b6000611eb8602683612809565b91507f4f776e61626c653a206e6577206f776e657220697320746865207a65726f206160008301527f64647265737300000000000000000000000000000000000000000000000000006020830152604082019050919050565b6000611f1e602283612809565b91507f45524332303a20617070726f766520746f20746865207a65726f20616464726560008301527f73730000000000000000000000000000000000000000000000000000000000006020830152604082019050919050565b6000611f8460028361281a565b91507f19010000000000000000000000000000000000000000000000000000000000006000830152600282019050919050565b6000611fc4601d83612809565b91507f45524332305065726d69743a206578706972656420646561646c696e650000006000830152602082019050919050565b6000612004602683612809565b91507f45524332303a207472616e7366657220616d6f756e742065786365656473206260008301527f616c616e636500000000000000000000000000000000000000000000000000006020830152604082019050919050565b600061206a602283612809565b91507f45434453413a20696e76616c6964207369676e6174757265202773272076616c60008301527f75650000000000000000000000000000000000000000000000000000000000006020830152604082019050919050565b60006120d0602283612809565b91507f45434453413a20696e76616c6964207369676e6174757265202776272076616c60008301527f75650000000000000000000000000000000000000000000000000000000000006020830152604082019050919050565b6000612136601e83612809565b91507f45524332305065726d69743a20696e76616c6964207369676e617475726500006000830152602082019050919050565b6000612176602883612809565b91507f45524332303a207472616e7366657220616d6f756e742065786365656473206160008301527f6c6c6f77616e63650000000000000000000000000000000000000000000000006020830152604082019050919050565b60006121dc602083612809565b91507f4f776e61626c653a2063616c6c6572206973206e6f7420746865206f776e65726000830152602082019050919050565b600061221c602183612809565b91507f45524332303a206275726e2066726f6d20746865207a65726f2061646472657360008301527f73000000000000000000000000000000000000000000000000000000000000006020830152604082019050919050565b6000612282602583612809565b91507f45524332303a207472616e736665722066726f6d20746865207a65726f20616460008301527f64726573730000000000000000000000000000000000000000000000000000006020830152604082019050919050565b60006122e8602483612809565b91507f45524332303a20617070726f76652066726f6d20746865207a65726f2061646460008301527f72657373000000000000000000000000000000000000000000000000000000006020830152604082019050919050565b600061234e602583612809565b91507f45524332303a2064656372656173656420616c6c6f77616e63652062656c6f7760008301527f207a65726f0000000000000000000000000000000000000000000000000000006020830152604082019050919050565b60006123b4601f83612809565b91507f45524332303a206d696e7420746f20746865207a65726f2061646472657373006000830152602082019050919050565b6123f0816128f7565b82525050565b6123ff81612901565b82525050565b600061241082611f77565b915061241c8285611d4f565b60208201915061242c8284611d4f565b6020820191508190509392505050565b60006020820190506124516000830184611d22565b92915050565b600060208201905061246c6000830184611d31565b92915050565b60006020820190506124876000830184611d40565b92915050565b600060c0820190506124a26000830189611d40565b6124af6020830188611d22565b6124bc6040830187611d22565b6124c960608301866123e7565b6124d660808301856123e7565b6124e360a08301846123e7565b979650505050505050565b600060a0820190506125036000830188611d40565b6125106020830187611d40565b61251d6040830186611d40565b61252a60608301856123e7565b6125376080830184611d22565b9695505050505050565b60006080820190506125566000830187611d40565b61256360208301866123f6565b6125706040830185611d40565b61257d6060830184611d40565b95945050505050565b600060208201905081810360008301526125a08184611d66565b905092915050565b600060208201905081810360008301526125c181611d9f565b9050919050565b600060208201905081810360008301526125e181611ddf565b9050919050565b6000602082019050818103600083015261260181611e45565b9050919050565b6000602082019050818103600083015261262181611eab565b9050919050565b6000602082019050818103600083015261264181611f11565b9050919050565b6000602082019050818103600083015261266181611fb7565b9050919050565b6000602082019050818103600083015261268181611ff7565b9050919050565b600060208201905081810360008301526126a18161205d565b9050919050565b600060208201905081810360008301526126c1816120c3565b9050919050565b600060208201905081810360008301526126e181612129565b9050919050565b6000602082019050818103600083015261270181612169565b9050919050565b60006020820190508181036000830152612721816121cf565b9050919050565b600060208201905081810360008301526127418161220f565b9050919050565b6000602082019050818103600083015261276181612275565b9050919050565b60006020820190508181036000830152612781816122db565b9050919050565b600060208201905081810360008301526127a181612341565b9050919050565b600060208201905081810360008301526127c1816123a7565b9050919050565b60006020820190506127dd60008301846123e7565b92915050565b60006020820190506127f860008301846123f6565b92915050565b600081519050919050565b600082825260208201905092915050565b600081905092915050565b6000612830826128f7565b915061283b836128f7565b9250827fffffffffffffffffffffffffffffffffffffffffffffffffffffffffffffffff038211156128705761286f61297d565b5b828201905092915050565b6000612886826128f7565b9150612891836128f7565b9250828210156128a4576128a361297d565b5b828203905092915050565b60006128ba826128d7565b9050919050565b60008115159050919050565b6000819050919050565b600073ffffffffffffffffffffffffffffffffffffffff82169050919050565b6000819050919050565b600060ff82169050919050565b60005b8381101561292c578082015181840152602081019050612911565b8381111561293b576000848401525b50505050565b6000600282049050600182168061295957607f821691505b6020821081141561296d5761296c6129ac565b5b50919050565b6000819050919050565b7f4e487b7100000000000000000000000000000000000000000000000000000000600052601160045260246000fd5b7f4e487b7100000000000000000000000000000000000000000000000000000000600052602260045260246000fd5b6000601f19601f8301169050919050565b6129f5816128af565b8114612a0057600080fd5b50565b612a0c816128cd565b8114612a1757600080fd5b50565b612a23816128f7565b8114612a2e57600080fd5b50565b612a3a81612901565b8114612a4557600080fd5b5056fea2646970667358221220801435130e42c8383bb8b85fdf58f6a068d96a60da3ae2079e85738da880906564736f6c63430008000033",
  "linkReferences": {},
  "deployedLinkReferences": {}
}