{
  "_format": "hh-sol-artifact-1",
  "contractName": "Synthesis",
  "sourceName": "contracts/Synthesis.sol",
  "abi": [
    {
      "anonymous": false,
      "inputs": [
        {
          "indexed": true,
          "internalType": "bytes32",
          "name": "_id",
          "type": "bytes32"
        },
        {
          "indexed": true,
          "internalType": "address",
          "name": "_from",
          "type": "address"
        },
        {
          "indexed": true,
          "internalType": "address",
          "name": "_to",
          "type": "address"
        },
        {
          "indexed": false,
          "internalType": "uint256",
          "name": "_amount",
          "type": "uint256"
        },
        {
          "indexed": false,
          "internalType": "address",
          "name": "_token",
          "type": "address"
        }
      ],
      "name": "BurnRequest",
      "type": "event"
    },
    {
      "anonymous": false,
      "inputs": [
        {
          "indexed": true,
          "internalType": "address",
          "name": "previousOwner",
          "type": "address"
        },
        {
          "indexed": true,
          "internalType": "address",
          "name": "newOwner",
          "type": "address"
        }
      ],
      "name": "OwnershipTransferred",
      "type": "event"
    },
    {
      "anonymous": false,
      "inputs": [
        {
          "indexed": true,
          "internalType": "bytes32",
          "name": "_id",
          "type": "bytes32"
        },
        {
          "indexed": true,
          "internalType": "address",
          "name": "_to",
          "type": "address"
        },
        {
          "indexed": false,
          "internalType": "uint256",
          "name": "_amount",
          "type": "uint256"
        },
        {
          "indexed": false,
          "internalType": "address",
          "name": "_token",
          "type": "address"
        }
      ],
      "name": "RevertBurnCompleted",
      "type": "event"
    },
    {
      "anonymous": false,
      "inputs": [
        {
          "indexed": true,
          "internalType": "bytes32",
          "name": "_id",
          "type": "bytes32"
        },
        {
          "indexed": true,
          "internalType": "address",
          "name": "_to",
          "type": "address"
        }
      ],
      "name": "RevertSynthesizeRequest",
      "type": "event"
    },
    {
      "anonymous": false,
      "inputs": [
        {
          "indexed": true,
          "internalType": "bytes32",
          "name": "_id",
          "type": "bytes32"
        },
        {
          "indexed": true,
          "internalType": "address",
          "name": "_to",
          "type": "address"
        },
        {
          "indexed": false,
          "internalType": "uint256",
          "name": "_amount",
          "type": "uint256"
        },
        {
          "indexed": false,
          "internalType": "address",
          "name": "_token",
          "type": "address"
        }
      ],
      "name": "SynthesizeCompleted",
      "type": "event"
    },
    {
      "inputs": [],
      "name": "bridge",
      "outputs": [
        {
          "internalType": "address",
          "name": "",
          "type": "address"
        }
      ],
      "stateMutability": "view",
      "type": "function"
    },
    {
      "inputs": [
        {
          "internalType": "address",
          "name": "_stoken",
          "type": "address"
        },
        {
          "internalType": "uint256",
          "name": "_amount",
          "type": "uint256"
        },
        {
          "internalType": "address",
          "name": "_chain2address",
          "type": "address"
        },
        {
          "internalType": "address",
          "name": "_receiveSide",
          "type": "address"
        },
        {
          "internalType": "address",
          "name": "_oppositeBridge",
          "type": "address"
        },
        {
          "internalType": "uint256",
          "name": "_chainID",
          "type": "uint256"
        }
      ],
      "name": "burnSyntheticToken",
      "outputs": [
        {
          "internalType": "bytes32",
          "name": "txID",
          "type": "bytes32"
        }
      ],
      "stateMutability": "nonpayable",
      "type": "function"
    },
    {
      "inputs": [
        {
          "internalType": "address",
          "name": "_bridge",
          "type": "address"
        }
      ],
      "name": "changeBridge",
      "outputs": [],
      "stateMutability": "nonpayable",
      "type": "function"
    },
    {
      "inputs": [
        {
          "internalType": "address",
          "name": "_rtoken",
          "type": "address"
        },
        {
          "internalType": "uint256",
          "name": "_chainID",
          "type": "uint256"
        },
        {
          "internalType": "string",
          "name": "_stokenName",
          "type": "string"
        },
        {
          "internalType": "string",
          "name": "_stokenSymbol",
          "type": "string"
        }
      ],
      "name": "createRepresentation",
      "outputs": [],
      "stateMutability": "nonpayable",
      "type": "function"
    },
    {
      "inputs": [
        {
          "internalType": "bytes32",
          "name": "_txID",
          "type": "bytes32"
        }
      ],
      "name": "emergencyUnburn",
      "outputs": [],
      "stateMutability": "nonpayable",
      "type": "function"
    },
    {
      "inputs": [
        {
          "internalType": "bytes32",
          "name": "_txID",
          "type": "bytes32"
        },
        {
          "internalType": "address",
          "name": "_receiveSide",
          "type": "address"
        },
        {
          "internalType": "address",
          "name": "_oppositeBridge",
          "type": "address"
        },
        {
          "internalType": "uint256",
          "name": "_chainID",
          "type": "uint256"
        }
      ],
      "name": "emergencyUnsyntesizeRequest",
      "outputs": [],
      "stateMutability": "nonpayable",
      "type": "function"
    },
    {
      "inputs": [
        {
          "internalType": "address",
          "name": "_bridge",
          "type": "address"
        },
        {
          "internalType": "address",
          "name": "_trustedForwarder",
          "type": "address"
        }
      ],
      "name": "initialize",
      "outputs": [],
      "stateMutability": "nonpayable",
      "type": "function"
    },
    {
      "inputs": [
        {
          "internalType": "address",
          "name": "forwarder",
          "type": "address"
        }
      ],
      "name": "isTrustedForwarder",
      "outputs": [
        {
          "internalType": "bool",
          "name": "",
          "type": "bool"
        }
      ],
      "stateMutability": "view",
      "type": "function"
    },
    {
      "inputs": [
        {
          "internalType": "bytes32",
          "name": "_txID",
          "type": "bytes32"
        },
        {
          "internalType": "address",
          "name": "_tokenReal",
          "type": "address"
        },
        {
          "internalType": "uint256",
          "name": "_chainID",
          "type": "uint256"
        },
        {
          "internalType": "uint256",
          "name": "_amount",
          "type": "uint256"
        },
        {
          "internalType": "address",
          "name": "_to",
          "type": "address"
        }
      ],
      "name": "mintSyntheticToken",
      "outputs": [],
      "stateMutability": "nonpayable",
      "type": "function"
    },
    {
      "inputs": [],
      "name": "owner",
      "outputs": [
        {
          "internalType": "address",
          "name": "",
          "type": "address"
        }
      ],
      "stateMutability": "view",
      "type": "function"
    },
    {
      "inputs": [],
      "name": "pause",
      "outputs": [],
      "stateMutability": "nonpayable",
      "type": "function"
    },
    {
      "inputs": [],
      "name": "paused",
      "outputs": [
        {
          "internalType": "bool",
          "name": "",
          "type": "bool"
        }
      ],
      "stateMutability": "view",
      "type": "function"
    },
    {
      "inputs": [],
      "name": "renounceOwnership",
      "outputs": [],
      "stateMutability": "nonpayable",
      "type": "function"
    },
    {
      "inputs": [
        {
          "internalType": "address",
          "name": "",
          "type": "address"
        }
      ],
      "name": "representationReal",
      "outputs": [
        {
          "internalType": "address",
          "name": "",
          "type": "address"
        }
      ],
      "stateMutability": "view",
      "type": "function"
    },
    {
      "inputs": [
        {
          "internalType": "bytes32",
          "name": "",
          "type": "bytes32"
        }
      ],
      "name": "representationSynt",
      "outputs": [
        {
          "internalType": "address",
          "name": "",
          "type": "address"
        }
      ],
      "stateMutability": "view",
      "type": "function"
    },
    {
      "inputs": [
        {
          "internalType": "bytes32",
          "name": "",
          "type": "bytes32"
        }
      ],
      "name": "requests",
      "outputs": [
        {
          "internalType": "address",
          "name": "recipient",
          "type": "address"
        },
        {
          "internalType": "address",
          "name": "chain2address",
          "type": "address"
        },
        {
          "internalType": "uint256",
          "name": "amount",
          "type": "uint256"
        },
        {
          "internalType": "address",
          "name": "token",
          "type": "address"
        },
        {
          "internalType": "address",
          "name": "stoken",
          "type": "address"
        },
        {
          "internalType": "enum Synthesis.RequestState",
          "name": "state",
          "type": "uint8"
        }
      ],
      "stateMutability": "view",
      "type": "function"
    },
    {
      "inputs": [
        {
          "internalType": "bytes32",
          "name": "",
          "type": "bytes32"
        }
      ],
      "name": "synthesizeStates",
      "outputs": [
        {
          "internalType": "enum Synthesis.SynthesizeState",
          "name": "",
          "type": "uint8"
        }
      ],
      "stateMutability": "view",
      "type": "function"
    },
    {
      "inputs": [
        {
          "internalType": "address",
          "name": "newOwner",
          "type": "address"
        }
      ],
      "name": "transferOwnership",
      "outputs": [],
      "stateMutability": "nonpayable",
      "type": "function"
    },
    {
      "inputs": [],
      "name": "unpause",
      "outputs": [],
      "stateMutability": "nonpayable",
      "type": "function"
    },
    {
      "inputs": [],
      "name": "versionRecipient",
      "outputs": [
        {
          "internalType": "string",
          "name": "",
          "type": "string"
        }
      ],
      "stateMutability": "view",
      "type": "function"
    }
  ],
  "bytecode": "0x608060405234801561001057600080fd5b50615e26806100206000396000f3fe60806040523480156200001157600080fd5b5060043610620001485760003560e01c8063715018a611620000bd5780639d866985116200007b5780639d866985146200034f578063bb5f3cca146200038a578063d23fd79614620003aa578063e78cea9214620003e0578063f2fde38b14620004025762000148565b8063715018a614620002bf5780637c6a151b14620002cb5780638456cb5914620003015780638da5cb5b146200030d578063926ad0fe146200032f5762000148565b8063486ff0cd116200010b578063486ff0cd14620001ef578063572b6c0514620002115780635850e36e14620002475780635c975abb14620002675780636034161214620002895762000148565b806308774410146200014d578063120bfd02146200016d5780632036f36e146200018d5780633f4ba83a14620001c3578063485cc95514620001cf575b600080fd5b6200016b600480360381019062000165919062002166565b62000422565b005b6200018b600480360381019062000185919062002269565b620004e9565b005b620001ab6004803603810190620001a5919062002307565b620005bf565b604051620001ba919062002856565b60405180910390f35b620001cd620005f2565b005b620001ed6004803603810190620001e7919062002192565b62000692565b005b620001f9620007bf565b60405162000208919062002a05565b60405180910390f35b6200022f600480360381019062000229919062002166565b620007fc565b6040516200023e91906200290d565b60405180910390f35b6200026560048036038101906200025f9190620023cb565b62000856565b005b6200027162000b2f565b6040516200028091906200290d565b60405180910390f35b620002a76004803603810190620002a19190620021d3565b62000b42565b604051620002b691906200292a565b60405180910390f35b620002c962000f9d565b005b620002e96004803603810190620002e3919062002166565b620010e1565b604051620002f8919062002856565b60405180910390f35b6200030b62001114565b005b62000317620011b4565b60405162000326919062002856565b60405180910390f35b6200034d60048036038101906200034791906200235f565b620011de565b005b6200036d600480360381019062000367919062002307565b620014f4565b604051620003819695949392919062002873565b60405180910390f35b620003a86004803603810190620003a2919062002307565b620015bd565b005b620003c86004803603810190620003c2919062002307565b620018c7565b604051620003d79190620029e8565b60405180910390f35b620003ea620018e7565b604051620003f9919062002856565b60405180910390f35b6200042060048036038101906200041a919062002166565b6200190d565b005b6200042c62001ac3565b73ffffffffffffffffffffffffffffffffffffffff166200044c620011b4565b73ffffffffffffffffffffffffffffffffffffffff1614620004a5576040517f08c379a00000000000000000000000000000000000000000000000000000000081526004016200049c9062002b0e565b60405180910390fd5b80606c60006101000a81548173ffffffffffffffffffffffffffffffffffffffff021916908373ffffffffffffffffffffffffffffffffffffffff16021790555050565b620004f362001ac3565b73ffffffffffffffffffffffffffffffffffffffff1662000513620011b4565b73ffffffffffffffffffffffffffffffffffffffff16146200056c576040517f08c379a0000000000000000000000000000000000000000000000000000000008152600401620005639062002b0e565b60405180910390fd5b600082826040516200057e906200208a565b6200058b92919062002a29565b604051809103906000f080158015620005a8573d6000803e3d6000fd5b509050620005b885828662001afc565b5050505050565b60676020528060005260406000206000915054906101000a900473ffffffffffffffffffffffffffffffffffffffff1681565b620005fc62001ac3565b73ffffffffffffffffffffffffffffffffffffffff166200061c620011b4565b73ffffffffffffffffffffffffffffffffffffffff161462000675576040517f08c379a00000000000000000000000000000000000000000000000000000000081526004016200066c9062002b0e565b60405180910390fd5b6000606960006101000a81548160ff021916908315150217905550565b600060019054906101000a900460ff1680620006b9575060008054906101000a900460ff16155b620006fb576040517f08c379a0000000000000000000000000000000000000000000000000000000008152600401620006f29062002aca565b60405180910390fd5b60008060019054906101000a900460ff1615905080156200074c576001600060016101000a81548160ff02191690831515021790555060016000806101000a81548160ff0219169083151502179055505b620007578262001bfb565b82606c60006101000a81548173ffffffffffffffffffffffffffffffffffffffff021916908373ffffffffffffffffffffffffffffffffffffffff1602179055508015620007ba5760008060016101000a81548160ff0219169083151502179055505b505050565b60606040518060400160405280600581526020017f322e302e31000000000000000000000000000000000000000000000000000000815250905090565b6000606560009054906101000a900473ffffffffffffffffffffffffffffffffffffffff1673ffffffffffffffffffffffffffffffffffffffff168273ffffffffffffffffffffffffffffffffffffffff16149050919050565b3373ffffffffffffffffffffffffffffffffffffffff16606c60009054906101000a900473ffffffffffffffffffffffffffffffffffffffff1673ffffffffffffffffffffffffffffffffffffffff1614620008b157600080fd5b606960009054906101000a900460ff1615620008cc57600080fd5b6000600281111562000907577f4e487b7100000000000000000000000000000000000000000000000000000000600052602160045260246000fd5b606b600087815260200190815260200160002060009054906101000a900460ff16600281111562000961577f4e487b7100000000000000000000000000000000000000000000000000000000600052602160045260246000fd5b14620009a4576040517f08c379a00000000000000000000000000000000000000000000000000000000081526004016200099b9062002aa8565b60405180910390fd5b606760008585604051602001620009bd929190620027f6565b60405160208183030381529060405280519060200120815260200190815260200160002060009054906101000a900473ffffffffffffffffffffffffffffffffffffffff1673ffffffffffffffffffffffffffffffffffffffff166340c10f1982846040518363ffffffff1660e01b815260040162000a3e929190620028e0565b600060405180830381600087803b15801562000a5957600080fd5b505af115801562000a6e573d6000803e3d6000fd5b505050506001606b600087815260200190815260200160002060006101000a81548160ff0219169083600281111562000ad0577f4e487b7100000000000000000000000000000000000000000000000000000000600052602160045260246000fd5b02179055508073ffffffffffffffffffffffffffffffffffffffff16857f95b6058c9127027e5bcd170e6da61f7d1f0b074726e189dd29037fab3363cfb7848760405162000b2092919062002b30565b60405180910390a35050505050565b606960009054906101000a900460ff1681565b6000606960009054906101000a900460ff161562000b5f57600080fd5b8673ffffffffffffffffffffffffffffffffffffffff16639dc29fac62000b8562001ac3565b886040518363ffffffff1660e01b815260040162000ba5929190620028e0565b600060405180830381600087803b15801562000bc057600080fd5b505af115801562000bd5573d6000803e3d6000fd5b505050503060685460405160200162000bf092919062002826565b60405160208183030381529060405280519060200120905060006040518060600160405280602d815260200162005dc4602d91398051906020012082606660008b73ffffffffffffffffffffffffffffffffffffffff1673ffffffffffffffffffffffffffffffffffffffff16815260200190815260200160002060009054906101000a900473ffffffffffffffffffffffffffffffffffffffff16898960405160240162000ca3949392919062002947565b604051602081830303815290604052907bffffffffffffffffffffffffffffffffffffffffffffffffffffffff19166020820180517bffffffffffffffffffffffffffffffffffffffffffffffffffffffff83818316178352505050509050606c60009054906101000a900473ffffffffffffffffffffffffffffffffffffffff1673ffffffffffffffffffffffffffffffffffffffff16636cebc9c2828787876040518563ffffffff1660e01b815260040162000d65949392919062002994565b602060405180830381600087803b15801562000d8057600080fd5b505af115801562000d95573d6000803e3d6000fd5b505050506040513d601f19601f8201168201806040525081019062000dbb919062002333565b506000606a6000848152602001908152602001600020905062000ddd62001ac3565b8160000160006101000a81548173ffffffffffffffffffffffffffffffffffffffff021916908373ffffffffffffffffffffffffffffffffffffffff160217905550868160010160006101000a81548173ffffffffffffffffffffffffffffffffffffffff021916908373ffffffffffffffffffffffffffffffffffffffff160217905550888160040160006101000a81548173ffffffffffffffffffffffffffffffffffffffff021916908373ffffffffffffffffffffffffffffffffffffffff16021790555087816002018190555060018160040160146101000a81548160ff0219169083600281111562000efd577f4e487b7100000000000000000000000000000000000000000000000000000000600052602160045260246000fd5b021790555060016068600082825462000f17919062002bfc565b925050819055508673ffffffffffffffffffffffffffffffffffffffff1662000f3f62001ac3565b73ffffffffffffffffffffffffffffffffffffffff16847fc9956c099ac2218b5efa7ef3e2a449c6f1afbf7ac3f4dbb27846253e53ff6f758b8d60405162000f8992919062002b30565b60405180910390a450509695505050505050565b62000fa762001ac3565b73ffffffffffffffffffffffffffffffffffffffff1662000fc7620011b4565b73ffffffffffffffffffffffffffffffffffffffff161462001020576040517f08c379a0000000000000000000000000000000000000000000000000000000008152600401620010179062002b0e565b60405180910390fd5b600073ffffffffffffffffffffffffffffffffffffffff16603360009054906101000a900473ffffffffffffffffffffffffffffffffffffffff1673ffffffffffffffffffffffffffffffffffffffff167f8be0079c531659141344cd1fd0a4f28419497f9722a3daafe3b4186f6b6457e060405160405180910390a36000603360006101000a81548173ffffffffffffffffffffffffffffffffffffffff021916908373ffffffffffffffffffffffffffffffffffffffff160217905550565b60666020528060005260406000206000915054906101000a900473ffffffffffffffffffffffffffffffffffffffff1681565b6200111e62001ac3565b73ffffffffffffffffffffffffffffffffffffffff166200113e620011b4565b73ffffffffffffffffffffffffffffffffffffffff161462001197576040517f08c379a00000000000000000000000000000000000000000000000000000000081526004016200118e9062002b0e565b60405180910390fd5b6001606960006101000a81548160ff021916908315150217905550565b6000603360009054906101000a900473ffffffffffffffffffffffffffffffffffffffff16905090565b606960009054906101000a900460ff1615620011f957600080fd5b6001600281111562001234577f4e487b7100000000000000000000000000000000000000000000000000000000600052602160045260246000fd5b606b600086815260200190815260200160002060009054906101000a900460ff1660028111156200128e577f4e487b7100000000000000000000000000000000000000000000000000000000600052602160045260246000fd5b1415620012d2576040517f08c379a0000000000000000000000000000000000000000000000000000000008152600401620012c99062002aec565b60405180910390fd5b6002606b600086815260200190815260200160002060006101000a81548160ff0219169083600281111562001330577f4e487b7100000000000000000000000000000000000000000000000000000000600052602160045260246000fd5b021790555060006040518060400160405280601e81526020017f656d657267656e6379556e73796e74686573697a65286279746573333229000081525080519060200120856040516024016200138791906200292a565b604051602081830303815290604052907bffffffffffffffffffffffffffffffffffffffffffffffffffffffff19166020820180517bffffffffffffffffffffffffffffffffffffffffffffffffffffffff83818316178352505050509050606c60009054906101000a900473ffffffffffffffffffffffffffffffffffffffff1673ffffffffffffffffffffffffffffffffffffffff16636cebc9c2828686866040518563ffffffff1660e01b815260040162001449949392919062002994565b602060405180830381600087803b1580156200146457600080fd5b505af115801562001479573d6000803e3d6000fd5b505050506040513d601f19601f820116820180604052508101906200149f919062002333565b50620014aa62001ac3565b73ffffffffffffffffffffffffffffffffffffffff16857f9bc8099e19706f253ae634ef1a5fb6ef84b4748c2183472905b9b2511cfa861760405160405180910390a35050505050565b606a6020528060005260406000206000915090508060000160009054906101000a900473ffffffffffffffffffffffffffffffffffffffff16908060010160009054906101000a900473ffffffffffffffffffffffffffffffffffffffff16908060020154908060030160009054906101000a900473ffffffffffffffffffffffffffffffffffffffff16908060040160009054906101000a900473ffffffffffffffffffffffffffffffffffffffff16908060040160149054906101000a900460ff16905086565b3373ffffffffffffffffffffffffffffffffffffffff16606c60009054906101000a900473ffffffffffffffffffffffffffffffffffffffff1673ffffffffffffffffffffffffffffffffffffffff16146200161857600080fd5b606960009054906101000a900460ff16156200163357600080fd5b6000606a600083815260200190815260200160002090506001600281111562001685577f4e487b7100000000000000000000000000000000000000000000000000000000600052602160045260246000fd5b8160040160149054906101000a900460ff166002811115620016d0577f4e487b7100000000000000000000000000000000000000000000000000000000600052602160045260246000fd5b1462001713576040517f08c379a00000000000000000000000000000000000000000000000000000000081526004016200170a9062002a86565b60405180910390fd5b60028160040160146101000a81548160ff0219169083600281111562001762577f4e487b7100000000000000000000000000000000000000000000000000000000600052602160045260246000fd5b02179055508060040160009054906101000a900473ffffffffffffffffffffffffffffffffffffffff1673ffffffffffffffffffffffffffffffffffffffff166340c10f198260000160009054906101000a900473ffffffffffffffffffffffffffffffffffffffff1683600201546040518363ffffffff1660e01b8152600401620017f0929190620028e0565b600060405180830381600087803b1580156200180b57600080fd5b505af115801562001820573d6000803e3d6000fd5b505050508060000160009054906101000a900473ffffffffffffffffffffffffffffffffffffffff1673ffffffffffffffffffffffffffffffffffffffff16827f9493a56a97907eea22cfa71b25b1900a9afc3041e4de977a2717b964d3eac61583600201548460040160009054906101000a900473ffffffffffffffffffffffffffffffffffffffff16604051620018bb92919062002b30565b60405180910390a35050565b606b6020528060005260406000206000915054906101000a900460ff1681565b606c60009054906101000a900473ffffffffffffffffffffffffffffffffffffffff1681565b6200191762001ac3565b73ffffffffffffffffffffffffffffffffffffffff1662001937620011b4565b73ffffffffffffffffffffffffffffffffffffffff161462001990576040517f08c379a0000000000000000000000000000000000000000000000000000000008152600401620019879062002b0e565b60405180910390fd5b600073ffffffffffffffffffffffffffffffffffffffff168173ffffffffffffffffffffffffffffffffffffffff16141562001a03576040517f08c379a0000000000000000000000000000000000000000000000000000000008152600401620019fa9062002a64565b60405180910390fd5b8073ffffffffffffffffffffffffffffffffffffffff16603360009054906101000a900473ffffffffffffffffffffffffffffffffffffffff1673ffffffffffffffffffffffffffffffffffffffff167f8be0079c531659141344cd1fd0a4f28419497f9722a3daafe3b4186f6b6457e060405160405180910390a380603360006101000a81548173ffffffffffffffffffffffffffffffffffffffff021916908373ffffffffffffffffffffffffffffffffffffffff16021790555050565b600062001ad033620007fc565b1562001ae657601436033560601c905062001af8565b62001af062001d26565b905062001af9565b5b90565b8160676000858460405160200162001b16929190620027f6565b60405160208183030381529060405280519060200120815260200190815260200160002060006101000a81548173ffffffffffffffffffffffffffffffffffffffff021916908373ffffffffffffffffffffffffffffffffffffffff16021790555082606660008473ffffffffffffffffffffffffffffffffffffffff1673ffffffffffffffffffffffffffffffffffffffff16815260200190815260200160002060006101000a81548173ffffffffffffffffffffffffffffffffffffffff021916908373ffffffffffffffffffffffffffffffffffffffff160217905550505050565b600060019054906101000a900460ff168062001c22575060008054906101000a900460ff16155b62001c64576040517f08c379a000000000000000000000000000000000000000000000000000000000815260040162001c5b9062002aca565b60405180910390fd5b60008060019054906101000a900460ff16159050801562001cb5576001600060016101000a81548160ff02191690831515021790555060016000806101000a81548160ff0219169083151502179055505b62001cbf62001d2e565b81606560006101000a81548173ffffffffffffffffffffffffffffffffffffffff021916908373ffffffffffffffffffffffffffffffffffffffff160217905550801562001d225760008060016101000a81548160ff0219169083151502179055505b5050565b600033905090565b600060019054906101000a900460ff168062001d55575060008054906101000a900460ff16155b62001d97576040517f08c379a000000000000000000000000000000000000000000000000000000000815260040162001d8e9062002aca565b60405180910390fd5b60008060019054906101000a900460ff16159050801562001de8576001600060016101000a81548160ff02191690831515021790555060016000806101000a81548160ff0219169083151502179055505b62001df262001e21565b62001dfc62001f00565b801562001e1e5760008060016101000a81548160ff0219169083151502179055505b50565b600060019054906101000a900460ff168062001e48575060008054906101000a900460ff16155b62001e8a576040517f08c379a000000000000000000000000000000000000000000000000000000000815260040162001e819062002aca565b60405180910390fd5b60008060019054906101000a900460ff16159050801562001edb576001600060016101000a81548160ff02191690831515021790555060016000806101000a81548160ff0219169083151502179055505b801562001efd5760008060016101000a81548160ff0219169083151502179055505b50565b600060019054906101000a900460ff168062001f27575060008054906101000a900460ff16155b62001f69576040517f08c379a000000000000000000000000000000000000000000000000000000000815260040162001f609062002aca565b60405180910390fd5b60008060019054906101000a900460ff16159050801562001fba576001600060016101000a81548160ff02191690831515021790555060016000806101000a81548160ff0219169083151502179055505b600062001fc662001ac3565b905080603360006101000a81548173ffffffffffffffffffffffffffffffffffffffff021916908373ffffffffffffffffffffffffffffffffffffffff1602179055508073ffffffffffffffffffffffffffffffffffffffff16600073ffffffffffffffffffffffffffffffffffffffff167f8be0079c531659141344cd1fd0a4f28419497f9722a3daafe3b4186f6b6457e060405160405180910390a3508015620020875760008060016101000a81548160ff0219169083151502179055505b50565b612efe8062002ec683390190565b6000620020af620020a98462002b91565b62002b5d565b905082815260208101848484011115620020c857600080fd5b620020d584828562002d27565b509392505050565b600081359050620020ee8162002e77565b92915050565b600081359050620021058162002e91565b92915050565b6000815190506200211c8162002e91565b92915050565b600082601f8301126200213457600080fd5b81356200214684826020860162002098565b91505092915050565b600081359050620021608162002eab565b92915050565b6000602082840312156200217957600080fd5b60006200218984828501620020dd565b91505092915050565b60008060408385031215620021a657600080fd5b6000620021b685828601620020dd565b9250506020620021c985828601620020dd565b9150509250929050565b60008060008060008060c08789031215620021ed57600080fd5b6000620021fd89828a01620020dd565b96505060206200221089828a016200214f565b95505060406200222389828a01620020dd565b94505060606200223689828a01620020dd565b93505060806200224989828a01620020dd565b92505060a06200225c89828a016200214f565b9150509295509295509295565b600080600080608085870312156200228057600080fd5b60006200229087828801620020dd565b9450506020620022a3878288016200214f565b935050604085013567ffffffffffffffff811115620022c157600080fd5b620022cf8782880162002122565b925050606085013567ffffffffffffffff811115620022ed57600080fd5b620022fb8782880162002122565b91505092959194509250565b6000602082840312156200231a57600080fd5b60006200232a84828501620020f4565b91505092915050565b6000602082840312156200234657600080fd5b600062002356848285016200210b565b91505092915050565b600080600080608085870312156200237657600080fd5b60006200238687828801620020f4565b94505060206200239987828801620020dd565b9350506040620023ac87828801620020dd565b9250506060620023bf878288016200214f565b91505092959194509250565b600080600080600060a08688031215620023e457600080fd5b6000620023f488828901620020f4565b95505060206200240788828901620020dd565b94505060406200241a888289016200214f565b93505060606200242d888289016200214f565b92505060806200244088828901620020dd565b9150509295509295909350565b620024588162002c59565b82525050565b620024736200246d8262002c59565b62002d6c565b82525050565b620024848162002c6d565b82525050565b620024958162002c79565b82525050565b6000620024a88262002bc4565b620024b4818562002bda565b9350620024c681856020860162002d36565b620024d18162002e2b565b840191505092915050565b620024f1620024eb8262002cd7565b62002d6c565b82525050565b620025028162002cff565b82525050565b620025138162002d13565b82525050565b6000620025268262002bcf565b62002532818562002beb565b93506200254481856020860162002d36565b6200254f8162002e2b565b840191505092915050565b60006200256960268362002beb565b91507f4f776e61626c653a206e6577206f776e657220697320746865207a65726f206160008301527f64647265737300000000000000000000000000000000000000000000000000006020830152604082019050919050565b6000620025d160298362002beb565b91507f53796e743a207374617465206e6f74206f70656e206f7220747820646f65732060008301527f6e6f7420657869737400000000000000000000000000000000000000000000006020830152604082019050919050565b60006200263960518362002beb565b91507f53796e743a20656d657267656e6379556e73796e74686573697a65645265717560008301527f6573742063616c6c6564206f7220746f6b656e7320686173206265656e20616c60208301527f72656164792073796e74686573697a65640000000000000000000000000000006040830152606082019050919050565b6000620026c7602e8362002beb565b91507f496e697469616c697a61626c653a20636f6e747261637420697320616c72656160008301527f647920696e697469616c697a65640000000000000000000000000000000000006020830152604082019050919050565b60006200272f60248362002beb565b91507f53796e743a2073796e746174696320746f6b656e7320616c7265616479206d6960008301527f6e746564000000000000000000000000000000000000000000000000000000006020830152604082019050919050565b60006200279760208362002beb565b91507f4f776e61626c653a2063616c6c6572206973206e6f7420746865206f776e65726000830152602082019050919050565b620027d58162002ccd565b82525050565b620027f0620027ea8262002ccd565b62002d94565b82525050565b60006200280482856200245e565b601482019150620028168284620027db565b6020820191508190509392505050565b6000620028348285620024dc565b601482019150620028468284620027db565b6020820191508190509392505050565b60006020820190506200286d60008301846200244d565b92915050565b600060c0820190506200288a60008301896200244d565b6200289960208301886200244d565b620028a86040830187620027ca565b620028b760608301866200244d565b620028c660808301856200244d565b620028d560a0830184620024f7565b979650505050505050565b6000604082019050620028f760008301856200244d565b620029066020830184620027ca565b9392505050565b600060208201905062002924600083018462002479565b92915050565b60006020820190506200294160008301846200248a565b92915050565b60006080820190506200295e60008301876200248a565b6200296d60208301866200244d565b6200297c6040830185620027ca565b6200298b60608301846200244d565b95945050505050565b60006080820190508181036000830152620029b081876200249b565b9050620029c160208301866200244d565b620029d060408301856200244d565b620029df6060830184620027ca565b95945050505050565b6000602082019050620029ff600083018462002508565b92915050565b6000602082019050818103600083015262002a21818462002519565b905092915050565b6000604082019050818103600083015262002a45818562002519565b9050818103602083015262002a5b818462002519565b90509392505050565b6000602082019050818103600083015262002a7f816200255a565b9050919050565b6000602082019050818103600083015262002aa181620025c2565b9050919050565b6000602082019050818103600083015262002ac3816200262a565b9050919050565b6000602082019050818103600083015262002ae581620026b8565b9050919050565b6000602082019050818103600083015262002b078162002720565b9050919050565b6000602082019050818103600083015262002b298162002788565b9050919050565b600060408201905062002b476000830185620027ca565b62002b5660208301846200244d565b9392505050565b6000604051905081810181811067ffffffffffffffff8211171562002b875762002b8662002dfc565b5b8060405250919050565b600067ffffffffffffffff82111562002baf5762002bae62002dfc565b5b601f19601f8301169050602081019050919050565b600081519050919050565b600081519050919050565b600082825260208201905092915050565b600082825260208201905092915050565b600062002c098262002ccd565b915062002c168362002ccd565b9250827fffffffffffffffffffffffffffffffffffffffffffffffffffffffffffffffff0382111562002c4e5762002c4d62002d9e565b5b828201905092915050565b600062002c668262002cad565b9050919050565b60008115159050919050565b6000819050919050565b600081905062002c938262002e49565b919050565b600081905062002ca88262002e60565b919050565b600073ffffffffffffffffffffffffffffffffffffffff82169050919050565b6000819050919050565b600062002ce48262002ceb565b9050919050565b600062002cf88262002cad565b9050919050565b600062002d0c8262002c83565b9050919050565b600062002d208262002c98565b9050919050565b82818337600083830152505050565b60005b8381101562002d5657808201518184015260208101905062002d39565b8381111562002d66576000848401525b50505050565b600062002d798262002d80565b9050919050565b600062002d8d8262002e3c565b9050919050565b6000819050919050565b7f4e487b7100000000000000000000000000000000000000000000000000000000600052601160045260246000fd5b7f4e487b7100000000000000000000000000000000000000000000000000000000600052602160045260246000fd5b7f4e487b7100000000000000000000000000000000000000000000000000000000600052604160045260246000fd5b6000601f19601f8301169050919050565b60008160601b9050919050565b6003811062002e5d5762002e5c62002dcd565b5b50565b6003811062002e745762002e7362002dcd565b5b50565b62002e828162002c59565b811462002e8e57600080fd5b50565b62002e9c8162002c79565b811462002ea857600080fd5b50565b62002eb68162002ccd565b811462002ec257600080fd5b5056fe6101406040527f6e71edae12b1b97f4d1f60370fef10105fa2faae0126114a169c64845d6126c9610120908152503480156200003a57600080fd5b5060405162002efe38038062002efe83398181016040528101906200006091906200039f565b6040518060400160405280600c81526020017f53796d62696f73697347534e0000000000000000000000000000000000000000815250806040518060400160405280600181526020017f310000000000000000000000000000000000000000000000000000000000000081525084846000620000e16200023960201b60201c565b9050806000806101000a81548173ffffffffffffffffffffffffffffffffffffffff021916908373ffffffffffffffffffffffffffffffffffffffff1602179055508073ffffffffffffffffffffffffffffffffffffffff16600073ffffffffffffffffffffffffffffffffffffffff167f8be0079c531659141344cd1fd0a4f28419497f9722a3daafe3b4186f6b6457e060405160405180910390a3508160049080519060200190620001979291906200027d565b508060059080519060200190620001b09291906200027d565b50505060008280519060200120905060008280519060200120905060007f8b73c3c69bb8fe3d512ecc4cf759cc79239f7b179b0ffacaa9a75d522b39400f90508260c081815250508160e081815250504660a081815250506200021b8184846200024160201b60201c565b6080818152505080610100818152505050505050505050506200061b565b600033905090565b600083838346306040516020016200025e95949392919062000445565b6040516020818303038152906040528051906020012090509392505050565b8280546200028b9062000587565b90600052602060002090601f016020900481019282620002af5760008555620002fb565b82601f10620002ca57805160ff1916838001178555620002fb565b82800160010185558215620002fb579182015b82811115620002fa578251825591602001919060010190620002dd565b5b5090506200030a91906200030e565b5090565b5b80821115620003295760008160009055506001016200030f565b5090565b6000620003446200033e84620004d6565b620004a2565b9050828152602081018484840111156200035d57600080fd5b6200036a84828562000551565b509392505050565b600082601f8301126200038457600080fd5b8151620003968482602086016200032d565b91505092915050565b60008060408385031215620003b357600080fd5b600083015167ffffffffffffffff811115620003ce57600080fd5b620003dc8582860162000372565b925050602083015167ffffffffffffffff811115620003fa57600080fd5b620004088582860162000372565b9150509250929050565b6200041d8162000509565b82525050565b6200042e816200051d565b82525050565b6200043f8162000547565b82525050565b600060a0820190506200045c600083018862000423565b6200046b602083018762000423565b6200047a604083018662000423565b62000489606083018562000434565b62000498608083018462000412565b9695505050505050565b6000604051905081810181811067ffffffffffffffff82111715620004cc57620004cb620005ec565b5b8060405250919050565b600067ffffffffffffffff821115620004f457620004f3620005ec565b5b601f19601f8301169050602081019050919050565b6000620005168262000527565b9050919050565b6000819050919050565b600073ffffffffffffffffffffffffffffffffffffffff82169050919050565b6000819050919050565b60005b838110156200057157808201518184015260208101905062000554565b8381111562000581576000848401525b50505050565b60006002820490506001821680620005a057607f821691505b60208210811415620005b757620005b6620005bd565b5b50919050565b7f4e487b7100000000000000000000000000000000000000000000000000000000600052602260045260246000fd5b7f4e487b7100000000000000000000000000000000000000000000000000000000600052604160045260246000fd5b60805160a05160c05160e05161010051610120516128936200066b6000396000610b4e015260006113250152600061136701526000611346015260006112d2015260006112fa01526128936000f3fe608060405234801561001057600080fd5b50600436106101215760003560e01c8063715018a6116100ad578063a457c2d711610071578063a457c2d71461030c578063a9059cbb1461033c578063d505accf1461036c578063dd62ed3e14610388578063f2fde38b146103b857610121565b8063715018a61461027a5780637ecebe00146102845780638da5cb5b146102b457806395d89b41146102d25780639dc29fac146102f057610121565b8063313ce567116100f4578063313ce567146101c25780633644e515146101e057806339509351146101fe57806340c10f191461022e57806370a082311461024a57610121565b806306fdde0314610126578063095ea7b31461014457806318160ddd1461017457806323b872dd14610192575b600080fd5b61012e6103d4565b60405161013b919061239b565b60405180910390f35b61015e60048036038101906101599190611afb565b610466565b60405161016b919061226c565b60405180910390f35b61017c610484565b60405161018991906125dd565b60405180910390f35b6101ac60048036038101906101a79190611a0e565b61048e565b6040516101b9919061226c565b60405180910390f35b6101ca61058f565b6040516101d791906125f8565b60405180910390f35b6101e8610598565b6040516101f59190612287565b60405180910390f35b61021860048036038101906102139190611afb565b6105a7565b604051610225919061226c565b60405180910390f35b61024860048036038101906102439190611afb565b610653565b005b610264600480360381019061025f91906119a9565b6106dd565b60405161027191906125dd565b60405180910390f35b610282610726565b005b61029e600480360381019061029991906119a9565b610860565b6040516102ab91906125dd565b60405180910390f35b6102bc6108b0565b6040516102c99190612251565b60405180910390f35b6102da6108d9565b6040516102e7919061239b565b60405180910390f35b61030a60048036038101906103059190611afb565b61096b565b005b61032660048036038101906103219190611afb565b6109f5565b604051610333919061226c565b60405180910390f35b61035660048036038101906103519190611afb565b610ae9565b604051610363919061226c565b60405180910390f35b61038660048036038101906103819190611a5d565b610b07565b005b6103a2600480360381019061039d91906119d2565b610c49565b6040516103af91906125dd565b60405180910390f35b6103d260048036038101906103cd91906119a9565b610cd0565b005b6060600480546103e390612756565b80601f016020809104026020016040519081016040528092919081815260200182805461040f90612756565b801561045c5780601f106104315761010080835404028352916020019161045c565b820191906000526020600020905b81548152906001019060200180831161043f57829003601f168201915b5050505050905090565b600061047a610473610e79565b8484610e81565b6001905092915050565b6000600354905090565b600061049b84848461104c565b6000600260008673ffffffffffffffffffffffffffffffffffffffff1673ffffffffffffffffffffffffffffffffffffffff16815260200190815260200160002060006104e6610e79565b73ffffffffffffffffffffffffffffffffffffffff1673ffffffffffffffffffffffffffffffffffffffff16815260200190815260200160002054905082811015610566576040517f08c379a000000000000000000000000000000000000000000000000000000000815260040161055d906124fd565b60405180910390fd5b61058385610572610e79565b858461057e9190612690565b610e81565b60019150509392505050565b60006012905090565b60006105a26112ce565b905090565b60006106496105b4610e79565b8484600260006105c2610e79565b73ffffffffffffffffffffffffffffffffffffffff1673ffffffffffffffffffffffffffffffffffffffff16815260200190815260200160002060008873ffffffffffffffffffffffffffffffffffffffff1673ffffffffffffffffffffffffffffffffffffffff16815260200190815260200160002054610644919061263a565b610e81565b6001905092915050565b61065b610e79565b73ffffffffffffffffffffffffffffffffffffffff166106796108b0565b73ffffffffffffffffffffffffffffffffffffffff16146106cf576040517f08c379a00000000000000000000000000000000000000000000000000000000081526004016106c69061251d565b60405180910390fd5b6106d98282611391565b5050565b6000600160008373ffffffffffffffffffffffffffffffffffffffff1673ffffffffffffffffffffffffffffffffffffffff168152602001908152602001600020549050919050565b61072e610e79565b73ffffffffffffffffffffffffffffffffffffffff1661074c6108b0565b73ffffffffffffffffffffffffffffffffffffffff16146107a2576040517f08c379a00000000000000000000000000000000000000000000000000000000081526004016107999061251d565b60405180910390fd5b600073ffffffffffffffffffffffffffffffffffffffff1660008054906101000a900473ffffffffffffffffffffffffffffffffffffffff1673ffffffffffffffffffffffffffffffffffffffff167f8be0079c531659141344cd1fd0a4f28419497f9722a3daafe3b4186f6b6457e060405160405180910390a360008060006101000a81548173ffffffffffffffffffffffffffffffffffffffff021916908373ffffffffffffffffffffffffffffffffffffffff160217905550565b60006108a9600660008473ffffffffffffffffffffffffffffffffffffffff1673ffffffffffffffffffffffffffffffffffffffff1681526020019081526020016000206114e6565b9050919050565b60008060009054906101000a900473ffffffffffffffffffffffffffffffffffffffff16905090565b6060600580546108e890612756565b80601f016020809104026020016040519081016040528092919081815260200182805461091490612756565b80156109615780601f1061093657610100808354040283529160200191610961565b820191906000526020600020905b81548152906001019060200180831161094457829003601f168201915b5050505050905090565b610973610e79565b73ffffffffffffffffffffffffffffffffffffffff166109916108b0565b73ffffffffffffffffffffffffffffffffffffffff16146109e7576040517f08c379a00000000000000000000000000000000000000000000000000000000081526004016109de9061251d565b60405180910390fd5b6109f182826114f4565b5050565b60008060026000610a04610e79565b73ffffffffffffffffffffffffffffffffffffffff1673ffffffffffffffffffffffffffffffffffffffff16815260200190815260200160002060008573ffffffffffffffffffffffffffffffffffffffff1673ffffffffffffffffffffffffffffffffffffffff16815260200190815260200160002054905082811015610ac1576040517f08c379a0000000000000000000000000000000000000000000000000000000008152600401610ab89061259d565b60405180910390fd5b610ade610acc610e79565b858584610ad99190612690565b610e81565b600191505092915050565b6000610afd610af6610e79565b848461104c565b6001905092915050565b83421115610b4a576040517f08c379a0000000000000000000000000000000000000000000000000000000008152600401610b419061245d565b60405180910390fd5b60007f0000000000000000000000000000000000000000000000000000000000000000888888610b798c6116ca565b89604051602001610b8f969594939291906122a2565b6040516020818303038152906040528051906020012090506000610bb282611728565b90506000610bc282878787611742565b90508973ffffffffffffffffffffffffffffffffffffffff168173ffffffffffffffffffffffffffffffffffffffff1614610c32576040517f08c379a0000000000000000000000000000000000000000000000000000000008152600401610c29906124dd565b60405180910390fd5b610c3d8a8a8a610e81565b50505050505050505050565b6000600260008473ffffffffffffffffffffffffffffffffffffffff1673ffffffffffffffffffffffffffffffffffffffff16815260200190815260200160002060008373ffffffffffffffffffffffffffffffffffffffff1673ffffffffffffffffffffffffffffffffffffffff16815260200190815260200160002054905092915050565b610cd8610e79565b73ffffffffffffffffffffffffffffffffffffffff16610cf66108b0565b73ffffffffffffffffffffffffffffffffffffffff1614610d4c576040517f08c379a0000000000000000000000000000000000000000000000000000000008152600401610d439061251d565b60405180910390fd5b600073ffffffffffffffffffffffffffffffffffffffff168173ffffffffffffffffffffffffffffffffffffffff161415610dbc576040517f08c379a0000000000000000000000000000000000000000000000000000000008152600401610db39061241d565b60405180910390fd5b8073ffffffffffffffffffffffffffffffffffffffff1660008054906101000a900473ffffffffffffffffffffffffffffffffffffffff1673ffffffffffffffffffffffffffffffffffffffff167f8be0079c531659141344cd1fd0a4f28419497f9722a3daafe3b4186f6b6457e060405160405180910390a3806000806101000a81548173ffffffffffffffffffffffffffffffffffffffff021916908373ffffffffffffffffffffffffffffffffffffffff16021790555050565b600033905090565b600073ffffffffffffffffffffffffffffffffffffffff168373ffffffffffffffffffffffffffffffffffffffff161415610ef1576040517f08c379a0000000000000000000000000000000000000000000000000000000008152600401610ee89061257d565b60405180910390fd5b600073ffffffffffffffffffffffffffffffffffffffff168273ffffffffffffffffffffffffffffffffffffffff161415610f61576040517f08c379a0000000000000000000000000000000000000000000000000000000008152600401610f589061243d565b60405180910390fd5b80600260008573ffffffffffffffffffffffffffffffffffffffff1673ffffffffffffffffffffffffffffffffffffffff16815260200190815260200160002060008473ffffffffffffffffffffffffffffffffffffffff1673ffffffffffffffffffffffffffffffffffffffff168152602001908152602001600020819055508173ffffffffffffffffffffffffffffffffffffffff168373ffffffffffffffffffffffffffffffffffffffff167f8c5be1e5ebec7d5bd14f71427d1e84f3dd0314c0f7b2291e5b200ac8c7c3b9258360405161103f91906125dd565b60405180910390a3505050565b600073ffffffffffffffffffffffffffffffffffffffff168373ffffffffffffffffffffffffffffffffffffffff1614156110bc576040517f08c379a00000000000000000000000000000000000000000000000000000000081526004016110b39061255d565b60405180910390fd5b600073ffffffffffffffffffffffffffffffffffffffff168273ffffffffffffffffffffffffffffffffffffffff16141561112c576040517f08c379a0000000000000000000000000000000000000000000000000000000008152600401611123906123dd565b60405180910390fd5b6111378383836118cd565b6000600160008573ffffffffffffffffffffffffffffffffffffffff1673ffffffffffffffffffffffffffffffffffffffff168152602001908152602001600020549050818110156111be576040517f08c379a00000000000000000000000000000000000000000000000000000000081526004016111b59061247d565b60405180910390fd5b81816111ca9190612690565b600160008673ffffffffffffffffffffffffffffffffffffffff1673ffffffffffffffffffffffffffffffffffffffff1681526020019081526020016000208190555081600160008573ffffffffffffffffffffffffffffffffffffffff1673ffffffffffffffffffffffffffffffffffffffff168152602001908152602001600020600082825461125c919061263a565b925050819055508273ffffffffffffffffffffffffffffffffffffffff168473ffffffffffffffffffffffffffffffffffffffff167fddf252ad1be2c89b69c2b068fc378daa952ba7f163c4a11628f55a4df523b3ef846040516112c091906125dd565b60405180910390a350505050565b60007f0000000000000000000000000000000000000000000000000000000000000000461415611320577f0000000000000000000000000000000000000000000000000000000000000000905061138e565b61138b7f00000000000000000000000000000000000000000000000000000000000000007f00000000000000000000000000000000000000000000000000000000000000007f00000000000000000000000000000000000000000000000000000000000000006118d2565b90505b90565b600073ffffffffffffffffffffffffffffffffffffffff168273ffffffffffffffffffffffffffffffffffffffff161415611401576040517f08c379a00000000000000000000000000000000000000000000000000000000081526004016113f8906125bd565b60405180910390fd5b61140d600083836118cd565b806003600082825461141f919061263a565b9250508190555080600160008473ffffffffffffffffffffffffffffffffffffffff1673ffffffffffffffffffffffffffffffffffffffff1681526020019081526020016000206000828254611475919061263a565b925050819055508173ffffffffffffffffffffffffffffffffffffffff16600073ffffffffffffffffffffffffffffffffffffffff167fddf252ad1be2c89b69c2b068fc378daa952ba7f163c4a11628f55a4df523b3ef836040516114da91906125dd565b60405180910390a35050565b600081600001549050919050565b600073ffffffffffffffffffffffffffffffffffffffff168273ffffffffffffffffffffffffffffffffffffffff161415611564576040517f08c379a000000000000000000000000000000000000000000000000000000000815260040161155b9061253d565b60405180910390fd5b611570826000836118cd565b6000600160008473ffffffffffffffffffffffffffffffffffffffff1673ffffffffffffffffffffffffffffffffffffffff168152602001908152602001600020549050818110156115f7576040517f08c379a00000000000000000000000000000000000000000000000000000000081526004016115ee906123fd565b60405180910390fd5b81816116039190612690565b600160008573ffffffffffffffffffffffffffffffffffffffff1673ffffffffffffffffffffffffffffffffffffffff1681526020019081526020016000208190555081600360008282546116589190612690565b92505081905550600073ffffffffffffffffffffffffffffffffffffffff168373ffffffffffffffffffffffffffffffffffffffff167fddf252ad1be2c89b69c2b068fc378daa952ba7f163c4a11628f55a4df523b3ef846040516116bd91906125dd565b60405180910390a3505050565b600080600660008473ffffffffffffffffffffffffffffffffffffffff1673ffffffffffffffffffffffffffffffffffffffff1681526020019081526020016000209050611717816114e6565b91506117228161190c565b50919050565b600061173b6117356112ce565b83611922565b9050919050565b60007f7fffffffffffffffffffffffffffffff5d576e7357a4501ddfe92f46681b20a08260001c11156117aa576040517f08c379a00000000000000000000000000000000000000000000000000000000081526004016117a19061249d565b60405180910390fd5b601b8460ff1614806117bf5750601c8460ff16145b6117fe576040517f08c379a00000000000000000000000000000000000000000000000000000000081526004016117f5906124bd565b60405180910390fd5b6000600186868686604051600081526020016040526040516118239493929190612356565b6020604051602081039080840390855afa158015611845573d6000803e3d6000fd5b505050602060405103519050600073ffffffffffffffffffffffffffffffffffffffff168173ffffffffffffffffffffffffffffffffffffffff1614156118c1576040517f08c379a00000000000000000000000000000000000000000000000000000000081526004016118b8906123bd565b60405180910390fd5b80915050949350505050565b505050565b600083838346306040516020016118ed959493929190612303565b6040516020818303038152906040528051906020012090509392505050565b6001816000016000828254019250508190555050565b6000828260405160200161193792919061221a565b60405160208183030381529060405280519060200120905092915050565b60008135905061196481612801565b92915050565b60008135905061197981612818565b92915050565b60008135905061198e8161282f565b92915050565b6000813590506119a381612846565b92915050565b6000602082840312156119bb57600080fd5b60006119c984828501611955565b91505092915050565b600080604083850312156119e557600080fd5b60006119f385828601611955565b9250506020611a0485828601611955565b9150509250929050565b600080600060608486031215611a2357600080fd5b6000611a3186828701611955565b9350506020611a4286828701611955565b9250506040611a538682870161197f565b9150509250925092565b600080600080600080600060e0888a031215611a7857600080fd5b6000611a868a828b01611955565b9750506020611a978a828b01611955565b9650506040611aa88a828b0161197f565b9550506060611ab98a828b0161197f565b9450506080611aca8a828b01611994565b93505060a0611adb8a828b0161196a565b92505060c0611aec8a828b0161196a565b91505092959891949750929550565b60008060408385031215611b0e57600080fd5b6000611b1c85828601611955565b9250506020611b2d8582860161197f565b9150509250929050565b611b40816126c4565b82525050565b611b4f816126d6565b82525050565b611b5e816126e2565b82525050565b611b75611b70826126e2565b612788565b82525050565b6000611b8682612613565b611b90818561261e565b9350611ba0818560208601612723565b611ba9816127f0565b840191505092915050565b6000611bc160188361261e565b91507f45434453413a20696e76616c6964207369676e617475726500000000000000006000830152602082019050919050565b6000611c0160238361261e565b91507f45524332303a207472616e7366657220746f20746865207a65726f206164647260008301527f65737300000000000000000000000000000000000000000000000000000000006020830152604082019050919050565b6000611c6760228361261e565b91507f45524332303a206275726e20616d6f756e7420657863656564732062616c616e60008301527f63650000000000000000000000000000000000000000000000000000000000006020830152604082019050919050565b6000611ccd60268361261e565b91507f4f776e61626c653a206e6577206f776e657220697320746865207a65726f206160008301527f64647265737300000000000000000000000000000000000000000000000000006020830152604082019050919050565b6000611d3360228361261e565b91507f45524332303a20617070726f766520746f20746865207a65726f20616464726560008301527f73730000000000000000000000000000000000000000000000000000000000006020830152604082019050919050565b6000611d9960028361262f565b91507f19010000000000000000000000000000000000000000000000000000000000006000830152600282019050919050565b6000611dd9601d8361261e565b91507f45524332305065726d69743a206578706972656420646561646c696e650000006000830152602082019050919050565b6000611e1960268361261e565b91507f45524332303a207472616e7366657220616d6f756e742065786365656473206260008301527f616c616e636500000000000000000000000000000000000000000000000000006020830152604082019050919050565b6000611e7f60228361261e565b91507f45434453413a20696e76616c6964207369676e6174757265202773272076616c60008301527f75650000000000000000000000000000000000000000000000000000000000006020830152604082019050919050565b6000611ee560228361261e565b91507f45434453413a20696e76616c6964207369676e6174757265202776272076616c60008301527f75650000000000000000000000000000000000000000000000000000000000006020830152604082019050919050565b6000611f4b601e8361261e565b91507f45524332305065726d69743a20696e76616c6964207369676e617475726500006000830152602082019050919050565b6000611f8b60288361261e565b91507f45524332303a207472616e7366657220616d6f756e742065786365656473206160008301527f6c6c6f77616e63650000000000000000000000000000000000000000000000006020830152604082019050919050565b6000611ff160208361261e565b91507f4f776e61626c653a2063616c6c6572206973206e6f7420746865206f776e65726000830152602082019050919050565b600061203160218361261e565b91507f45524332303a206275726e2066726f6d20746865207a65726f2061646472657360008301527f73000000000000000000000000000000000000000000000000000000000000006020830152604082019050919050565b600061209760258361261e565b91507f45524332303a207472616e736665722066726f6d20746865207a65726f20616460008301527f64726573730000000000000000000000000000000000000000000000000000006020830152604082019050919050565b60006120fd60248361261e565b91507f45524332303a20617070726f76652066726f6d20746865207a65726f2061646460008301527f72657373000000000000000000000000000000000000000000000000000000006020830152604082019050919050565b600061216360258361261e565b91507f45524332303a2064656372656173656420616c6c6f77616e63652062656c6f7760008301527f207a65726f0000000000000000000000000000000000000000000000000000006020830152604082019050919050565b60006121c9601f8361261e565b91507f45524332303a206d696e7420746f20746865207a65726f2061646472657373006000830152602082019050919050565b6122058161270c565b82525050565b61221481612716565b82525050565b600061222582611d8c565b91506122318285611b64565b6020820191506122418284611b64565b6020820191508190509392505050565b60006020820190506122666000830184611b37565b92915050565b60006020820190506122816000830184611b46565b92915050565b600060208201905061229c6000830184611b55565b92915050565b600060c0820190506122b76000830189611b55565b6122c46020830188611b37565b6122d16040830187611b37565b6122de60608301866121fc565b6122eb60808301856121fc565b6122f860a08301846121fc565b979650505050505050565b600060a0820190506123186000830188611b55565b6123256020830187611b55565b6123326040830186611b55565b61233f60608301856121fc565b61234c6080830184611b37565b9695505050505050565b600060808201905061236b6000830187611b55565b612378602083018661220b565b6123856040830185611b55565b6123926060830184611b55565b95945050505050565b600060208201905081810360008301526123b58184611b7b565b905092915050565b600060208201905081810360008301526123d681611bb4565b9050919050565b600060208201905081810360008301526123f681611bf4565b9050919050565b6000602082019050818103600083015261241681611c5a565b9050919050565b6000602082019050818103600083015261243681611cc0565b9050919050565b6000602082019050818103600083015261245681611d26565b9050919050565b6000602082019050818103600083015261247681611dcc565b9050919050565b6000602082019050818103600083015261249681611e0c565b9050919050565b600060208201905081810360008301526124b681611e72565b9050919050565b600060208201905081810360008301526124d681611ed8565b9050919050565b600060208201905081810360008301526124f681611f3e565b9050919050565b6000602082019050818103600083015261251681611f7e565b9050919050565b6000602082019050818103600083015261253681611fe4565b9050919050565b6000602082019050818103600083015261255681612024565b9050919050565b600060208201905081810360008301526125768161208a565b9050919050565b60006020820190508181036000830152612596816120f0565b9050919050565b600060208201905081810360008301526125b681612156565b9050919050565b600060208201905081810360008301526125d6816121bc565b9050919050565b60006020820190506125f260008301846121fc565b92915050565b600060208201905061260d600083018461220b565b92915050565b600081519050919050565b600082825260208201905092915050565b600081905092915050565b60006126458261270c565b91506126508361270c565b9250827fffffffffffffffffffffffffffffffffffffffffffffffffffffffffffffffff0382111561268557612684612792565b5b828201905092915050565b600061269b8261270c565b91506126a68361270c565b9250828210156126b9576126b8612792565b5b828203905092915050565b60006126cf826126ec565b9050919050565b60008115159050919050565b6000819050919050565b600073ffffffffffffffffffffffffffffffffffffffff82169050919050565b6000819050919050565b600060ff82169050919050565b60005b83811015612741578082015181840152602081019050612726565b83811115612750576000848401525b50505050565b6000600282049050600182168061276e57607f821691505b60208210811415612782576127816127c1565b5b50919050565b6000819050919050565b7f4e487b7100000000000000000000000000000000000000000000000000000000600052601160045260246000fd5b7f4e487b7100000000000000000000000000000000000000000000000000000000600052602260045260246000fd5b6000601f19601f8301169050919050565b61280a816126c4565b811461281557600080fd5b50565b612821816126e2565b811461282c57600080fd5b50565b6128388161270c565b811461284357600080fd5b50565b61284f81612716565b811461285a57600080fd5b5056fea2646970667358221220c208f045b9b7844c64c9b2caa77b7fba513d4dc4330569be57e756453974970f64736f6c63430008000033756e73796e74686573697a6528627974657333322c616464726573732c75696e743235362c6164647265737329a264697066735822122088b67e1978f27ded1f14b251f07ee850b05a10422e96e59b28af1e100e4cb79d64736f6c63430008000033",
  "linkReferences": {},
  "deployedLinkReferences": {}
}